{
  "contractName": "RahatAdmin",
  "abi": [
    {
      "inputs": [
        {
          "internalType": "contract RahatERC20",
          "name": "_erc20",
          "type": "address"
        },
        {
          "internalType": "contract RahatERC1155",
          "name": "_erc1155",
          "type": "address"
        },
        {
          "internalType": "contract Rahat",
          "name": "_rahatContract",
          "type": "address"
        },
        {
          "internalType": "uint256",
          "name": "_intitialSupply",
          "type": "uint256"
        },
        {
          "internalType": "address",
          "name": "_admin",
          "type": "address"
        }
      ],
      "stateMutability": "nonpayable",
      "type": "constructor"
    },
    {
      "anonymous": false,
      "inputs": [
        {
          "indexed": false,
          "internalType": "bool",
          "name": "success",
          "type": "bool"
        }
      ],
      "name": "Minted",
      "type": "event"
    },
    {
      "anonymous": false,
      "inputs": [
        {
          "indexed": true,
          "internalType": "bytes32",
          "name": "projectId",
          "type": "bytes32"
        },
        {
          "indexed": true,
          "internalType": "uint256",
          "name": "tokenId",
          "type": "uint256"
        },
        {
          "indexed": false,
          "internalType": "uint256",
          "name": "projectCapital",
          "type": "uint256"
        },
        {
          "indexed": false,
          "internalType": "string",
          "name": "tag",
          "type": "string"
        }
      ],
      "name": "ProjectERC1155BudgetUpdated",
      "type": "event"
    },
    {
      "anonymous": false,
      "inputs": [
        {
          "indexed": true,
          "internalType": "bytes32",
          "name": "projectId",
          "type": "bytes32"
        },
        {
          "indexed": false,
          "internalType": "uint256",
          "name": "projectCapital",
          "type": "uint256"
        },
        {
          "indexed": false,
          "internalType": "string",
          "name": "tag",
          "type": "string"
        }
      ],
      "name": "ProjectERC20BudgetUpdated",
      "type": "event"
    },
    {
      "inputs": [],
      "name": "erc1155",
      "outputs": [
        {
          "internalType": "contract RahatERC1155",
          "name": "",
          "type": "address"
        }
      ],
      "stateMutability": "view",
      "type": "function"
    },
    {
      "inputs": [],
      "name": "erc20",
      "outputs": [
        {
          "internalType": "contract RahatERC20",
          "name": "",
          "type": "address"
        }
      ],
      "stateMutability": "view",
      "type": "function"
    },
    {
      "inputs": [
        {
          "internalType": "bytes[]",
          "name": "data",
          "type": "bytes[]"
        }
      ],
      "name": "multicall",
      "outputs": [
        {
          "internalType": "bytes[]",
          "name": "results",
          "type": "bytes[]"
        }
      ],
      "stateMutability": "nonpayable",
      "type": "function"
    },
    {
      "inputs": [
        {
          "internalType": "address",
          "name": "",
          "type": "address"
        },
        {
          "internalType": "address",
          "name": "",
          "type": "address"
        },
        {
          "internalType": "uint256[]",
          "name": "",
          "type": "uint256[]"
        },
        {
          "internalType": "uint256[]",
          "name": "",
          "type": "uint256[]"
        },
        {
          "internalType": "bytes",
          "name": "",
          "type": "bytes"
        }
      ],
      "name": "onERC1155BatchReceived",
      "outputs": [
        {
          "internalType": "bytes4",
          "name": "",
          "type": "bytes4"
        }
      ],
      "stateMutability": "nonpayable",
      "type": "function"
    },
    {
      "inputs": [
        {
          "internalType": "address",
          "name": "",
          "type": "address"
        },
        {
          "internalType": "address",
          "name": "",
          "type": "address"
        },
        {
          "internalType": "uint256",
          "name": "",
          "type": "uint256"
        },
        {
          "internalType": "uint256",
          "name": "",
          "type": "uint256"
        },
        {
          "internalType": "bytes",
          "name": "",
          "type": "bytes"
        }
      ],
      "name": "onERC1155Received",
      "outputs": [
        {
          "internalType": "bytes4",
          "name": "",
          "type": "bytes4"
        }
      ],
      "stateMutability": "nonpayable",
      "type": "function"
    },
    {
      "inputs": [
        {
          "internalType": "address",
          "name": "",
          "type": "address"
        }
      ],
      "name": "owner",
      "outputs": [
        {
          "internalType": "bool",
          "name": "",
          "type": "bool"
        }
      ],
      "stateMutability": "view",
      "type": "function"
    },
    {
      "inputs": [
        {
          "internalType": "bytes32",
          "name": "",
          "type": "bytes32"
        },
        {
          "internalType": "uint256",
          "name": "",
          "type": "uint256"
        }
      ],
      "name": "projectERC1155Capital",
      "outputs": [
        {
          "internalType": "uint256",
          "name": "",
          "type": "uint256"
        }
      ],
      "stateMutability": "view",
      "type": "function"
    },
    {
      "inputs": [
        {
          "internalType": "bytes32",
          "name": "",
          "type": "bytes32"
        }
      ],
      "name": "projectERC20Capital",
      "outputs": [
        {
          "internalType": "uint256",
          "name": "",
          "type": "uint256"
        }
      ],
      "stateMutability": "view",
      "type": "function"
    },
    {
      "inputs": [
        {
          "internalType": "bytes32",
          "name": "",
          "type": "bytes32"
        }
      ],
      "name": "projectExists",
      "outputs": [
        {
          "internalType": "bool",
          "name": "",
          "type": "bool"
        }
      ],
      "stateMutability": "view",
      "type": "function"
    },
    {
      "inputs": [
        {
          "internalType": "uint256",
          "name": "",
          "type": "uint256"
        }
      ],
      "name": "projectId",
      "outputs": [
        {
          "internalType": "bytes32",
          "name": "",
          "type": "bytes32"
        }
      ],
      "stateMutability": "view",
      "type": "function"
    },
    {
      "inputs": [],
      "name": "rahatContract",
      "outputs": [
        {
          "internalType": "contract Rahat",
          "name": "",
          "type": "address"
        }
      ],
      "stateMutability": "view",
      "type": "function"
    },
    {
      "inputs": [
        {
          "internalType": "bytes4",
          "name": "interfaceId",
          "type": "bytes4"
        }
      ],
      "name": "supportsInterface",
      "outputs": [
        {
          "internalType": "bool",
          "name": "",
          "type": "bool"
        }
      ],
      "stateMutability": "view",
      "type": "function"
    },
    {
      "inputs": [
        {
          "internalType": "string",
          "name": "_projectId",
          "type": "string"
        },
        {
          "internalType": "uint256",
          "name": "_projectCapital",
          "type": "uint256"
        }
      ],
      "name": "setProjectBudget_ERC20",
      "outputs": [],
      "stateMutability": "nonpayable",
      "type": "function"
    },
    {
      "inputs": [
        {
          "internalType": "string",
          "name": "_projectId",
          "type": "string"
        },
        {
          "internalType": "uint256",
          "name": "_projectCapital",
          "type": "uint256"
        },
        {
          "internalType": "uint256",
          "name": "tokenId",
          "type": "uint256"
        }
      ],
      "name": "setProjectBudget_ERC1155",
      "outputs": [],
      "stateMutability": "nonpayable",
      "type": "function"
    },
    {
      "inputs": [
        {
          "internalType": "string",
          "name": "_name",
          "type": "string"
        },
        {
          "internalType": "string",
          "name": "_symbol",
          "type": "string"
        },
        {
          "internalType": "string",
          "name": "_projectId",
          "type": "string"
        },
        {
          "internalType": "uint256",
          "name": "_projectCapital",
          "type": "uint256"
        }
      ],
      "name": "createAndsetProjectBudget_ERC1155",
      "outputs": [],
      "stateMutability": "nonpayable",
      "type": "function"
    },
    {
      "inputs": [
        {
          "internalType": "string",
          "name": "_projectId",
          "type": "string"
        }
      ],
      "name": "getProjecERC20Balance",
      "outputs": [
        {
          "internalType": "uint256",
          "name": "_balance",
          "type": "uint256"
        }
      ],
      "stateMutability": "view",
      "type": "function"
    },
    {
      "inputs": [
        {
          "internalType": "string",
          "name": "_projectId",
          "type": "string"
        },
        {
          "internalType": "uint256",
          "name": "tokenId",
          "type": "uint256"
        }
      ],
      "name": "getProjectERC1155Balance",
      "outputs": [
        {
          "internalType": "uint256",
          "name": "_balance",
          "type": "uint256"
        }
      ],
      "stateMutability": "view",
      "type": "function"
    },
    {
      "inputs": [
        {
          "internalType": "string",
          "name": "_projectId",
          "type": "string"
        }
      ],
      "name": "getProjectERC1155Balances",
      "outputs": [
        {
          "internalType": "uint256[]",
          "name": "tokenIds",
          "type": "uint256[]"
        },
        {
          "internalType": "uint256[]",
          "name": "balances",
          "type": "uint256[]"
        }
      ],
      "stateMutability": "view",
      "type": "function"
    },
    {
      "inputs": [
        {
          "internalType": "string",
          "name": "_projectId",
          "type": "string"
        }
      ],
      "name": "getAllTokenIdsOfProject",
      "outputs": [
        {
          "internalType": "uint256[]",
          "name": "tokenIds",
          "type": "uint256[]"
        }
      ],
      "stateMutability": "view",
      "type": "function"
    },
    {
      "inputs": [
        {
          "internalType": "address",
          "name": "_address",
          "type": "address"
        },
        {
          "internalType": "uint256",
          "name": "_amount",
          "type": "uint256"
        }
      ],
      "name": "mintERC20",
      "outputs": [],
      "stateMutability": "nonpayable",
      "type": "function"
    },
    {
      "inputs": [
        {
          "internalType": "string",
          "name": "_name",
          "type": "string"
        },
        {
          "internalType": "string",
          "name": "_symbol",
          "type": "string"
        },
        {
          "internalType": "uint256",
          "name": "_amount",
          "type": "uint256"
        }
      ],
      "name": "mintERC1155",
      "outputs": [],
      "stateMutability": "nonpayable",
      "type": "function"
    },
    {
      "inputs": [
        {
          "internalType": "address",
          "name": "_account",
          "type": "address"
        }
      ],
      "name": "addOwner",
      "outputs": [],
      "stateMutability": "nonpayable",
      "type": "function"
    }
  ],
  "bytecode": "0x60806040523480156200001157600080fd5b506040516200244138038062002441833981016040819052620000349162000116565b600080546001600160a01b038781166001600160a01b03199283168117909355600180548883169084161790556002805491871691909216179055604051631f132a7360e21b815230600482015260248101849052637c4ca9cc90604401602060405180830381600087803b158015620000ad57600080fd5b505af1158015620000c2573d6000803e3d6000fd5b505050506040513d601f19601f82011682018060405250810190620000e891906200018a565b506001600160a01b03166000908152600360205260409020805460ff1916600117905550620001bd92505050565b600080600080600060a086880312156200012f57600080fd5b85516200013c81620001a4565b60208701519095506200014f81620001a4565b60408701519094506200016281620001a4565b6060870151608088015191945092506200017c81620001a4565b809150509295509295909350565b6000602082840312156200019d57600080fd5b5051919050565b6001600160a01b0381168114620001ba57600080fd5b50565b61227480620001cd6000396000f3fe608060405234801561001057600080fd5b50600436106101225760003560e01c80637c4ca9cc116100a85780637c4ca9cc14610262578063801fdb87146102755780638b4176c61461028857806396131d861461029b578063ac9650d8146102c6578063bc197c81146102e6578063c78f64781461031e578063d31678b514610331578063d56022d714610352578063f23a6e6114610365578063f7597a4f1461038457600080fd5b806301ffc9a714610127578063179680b11461014f57806334854e2f1461016457806338975895146101855780634dd1f816146101a85780634ff1a569146101bb57806363c183f0146101e6578063666e1b39146101f95780637065cb481461021c578063785e9e861461022f5780637c1e25a514610242575b600080fd5b61013a610135366004611c1a565b6103a4565b60405190151581526020015b60405180910390f35b61016261015d366004611d73565b6103db565b005b610177610172366004611c44565b610734565b604051908152602001610146565b61013a610193366004611bdf565b60066020526000908152604090205460ff1681565b6101776101b6366004611bdf565b6107c4565b6002546101ce906001600160a01b031681565b6040516001600160a01b039091168152602001610146565b6101626101f4366004611db7565b6107e5565b61013a6102073660046119f7565b60036020526000908152604090205460ff1681565b61016261022a3660046119f7565b610d54565b6000546101ce906001600160a01b031681565b610255610250366004611c44565b610da7565b6040516101469190611f53565b610162610270366004611b1f565b610dce565b610177610283366004611d73565b610e86565b610162610296366004611d07565b610f1e565b6101776102a9366004611bf8565b600860209081526000928352604080842090915290825290205481565b6102d96102d4366004611b49565b610fd3565b6040516101469190611ef1565b6103056102f4366004611a12565b63bc197c8160e01b95945050505050565b6040516001600160e01b03199091168152602001610146565b61016261032c366004611c78565b6110c7565b61034461033f366004611c44565b61151b565b604051610146929190611f66565b6001546101ce906001600160a01b031681565b610305610373366004611abb565b63f23a6e6160e01b95945050505050565b610177610392366004611bdf565b60076020526000908152604090205481565b60006001600160e01b03198216630271189760e51b14806103d557506301ffc9a760e01b6001600160e01b03198316145b92915050565b3360009081526003602052604090205460ff166104135760405162461bcd60e51b815260040161040a90612041565b60405180910390fd5b81600061041f82611669565b60008181526006602052604090205490915060ff161561059a57600061044485611669565b9050836007600083815260200190815260200160002060008282546104699190612136565b909155505060005460025460405163a9059cbb60e01b81526001600160a01b039283169263a9059cbb926104a4929116908890600401611ed8565b602060405180830381600087803b1580156104be57600080fd5b505af11580156104d2573d6000803e3d6000fd5b505050506040513d601f19601f820116820180604052508101906104f69190611bbd565b50600254604051638825756760e01b815260048101839052602481018690526001600160a01b0390911690638825756790604401600060405180830381600087803b15801561054457600080fd5b505af1158015610558573d6000803e3d6000fd5b50505050807ffb81835777f5c1e6fd7d6eb84fa729934ae66884bf599bb714743f575ec7b5778560405161058c9190612095565b60405180910390a25061072e565b60048054600181810190925560008051602061221f833981519152018290556000828152600660205260408120805460ff19169092179091556105dc85611669565b9050836007600083815260200190815260200160002060008282546106019190612136565b909155505060005460025460405163a9059cbb60e01b81526001600160a01b039283169263a9059cbb9261063c929116908890600401611ed8565b602060405180830381600087803b15801561065657600080fd5b505af115801561066a573d6000803e3d6000fd5b505050506040513d601f19601f8201168201806040525081019061068e9190611bbd565b50600254604051638825756760e01b815260048101839052602481018690526001600160a01b0390911690638825756790604401600060405180830381600087803b1580156106dc57600080fd5b505af11580156106f0573d6000803e3d6000fd5b50505050807ffb81835777f5c1e6fd7d6eb84fa729934ae66884bf599bb714743f575ec7b577856040516107249190612095565b60405180910390a2505b50505050565b60008061074083611669565b6002546040516367bc276d60e11b8152600481018390529192506001600160a01b03169063cf784eda9060240160206040518083038186803b15801561078557600080fd5b505afa158015610799573d6000803e3d6000fd5b505050506040513d601f19601f820116820180604052508101906107bd9190611e04565b9392505050565b600481815481106107d457600080fd5b600091825260209091200154905081565b3360009081526003602052604090205460ff166108145760405162461bcd60e51b815260040161040a90612041565b82600061082082611669565b60008181526006602052604090205490915060ff1615610aab57600154604051634f558e7960e01b8152600481018590526001600160a01b0390911690634f558e799060240160206040518083038186803b15801561087e57600080fd5b505afa158015610892573d6000803e3d6000fd5b505050506040513d601f19601f820116820180604052508101906108b69190611bbd565b6108d25760405162461bcd60e51b815260040161040a90611ff3565b60006108dd86611669565b60008181526005602052604090209091506108f89085611699565b61091657600081815260056020526040902061091490856116b1565b505b600154604051635bc73ecf60e11b815260048101869052602481018790526001600160a01b039091169063b78e7d9e90604401600060405180830381600087803b15801561096357600080fd5b505af1158015610977573d6000803e3d6000fd5b5050506000828152600860209081526040808320888452909152812080548893509091906109a6908490612136565b9091555050600154600254604051637921219560e11b81526001600160a01b039283169263f242432a926109e69230929091169089908b90600401611ea0565b600060405180830381600087803b158015610a0057600080fd5b505af1158015610a14573d6000803e3d6000fd5b5050600254604051630f6025eb60e01b81526001600160a01b039091169250630f6025eb9150610a4c90849089908990600401611f94565b600060405180830381600087803b158015610a6657600080fd5b505af1158015610a7a573d6000803e3d6000fd5b5050505083816000805160206121d883398151915287604051610a9d9190612095565b60405180910390a350610d4d565b600480546001808201835560008051602061221f83398151915290910183905560008381526006602052604090819020805460ff19168317905590549051634f558e7960e01b81529182018590526001600160a01b031690634f558e799060240160206040518083038186803b158015610b2457600080fd5b505afa158015610b38573d6000803e3d6000fd5b505050506040513d601f19601f82011682018060405250810190610b5c9190611bbd565b610b785760405162461bcd60e51b815260040161040a90611ff3565b6000610b8386611669565b6000818152600560205260409020909150610b9e9085611699565b610bbc576000818152600560205260409020610bba90856116b1565b505b600154604051635bc73ecf60e11b815260048101869052602481018790526001600160a01b039091169063b78e7d9e90604401600060405180830381600087803b158015610c0957600080fd5b505af1158015610c1d573d6000803e3d6000fd5b505050600082815260086020908152604080832088845290915281208054889350909190610c4c908490612136565b9091555050600154600254604051637921219560e11b81526001600160a01b039283169263f242432a92610c8c9230929091169089908b90600401611ea0565b600060405180830381600087803b158015610ca657600080fd5b505af1158015610cba573d6000803e3d6000fd5b5050600254604051630f6025eb60e01b81526001600160a01b039091169250630f6025eb9150610cf290849089908990600401611f94565b600060405180830381600087803b158015610d0c57600080fd5b505af1158015610d20573d6000803e3d6000fd5b5050505083816000805160206121d883398151915287604051610d439190612095565b60405180910390a3505b5050505050565b3360009081526003602052604090205460ff16610d835760405162461bcd60e51b815260040161040a90612041565b6001600160a01b03166000908152600360205260409020805460ff19166001179055565b60606000610db483611669565b60008181526005602052604090209091506107bd906116bd565b3360009081526003602052604090205460ff16610dfd5760405162461bcd60e51b815260040161040a90612041565b600054604051631f132a7360e21b81526001600160a01b0390911690637c4ca9cc90610e2f9085908590600401611ed8565b602060405180830381600087803b158015610e4957600080fd5b505af1158015610e5d573d6000803e3d6000fd5b505050506040513d601f19601f82011682018060405250810190610e819190611e04565b505050565b600080610e9284611669565b600254604051630e72f45760e21b815260048101839052602481018690529192506001600160a01b0316906339cbd15c9060440160206040518083038186803b158015610ede57600080fd5b505afa158015610ef2573d6000803e3d6000fd5b505050506040513d601f19601f82011682018060405250810190610f169190611e04565b949350505050565b3360009081526003602052604090205460ff16610f4d5760405162461bcd60e51b815260040161040a90612041565b6001546040516345a0bb6360e11b81526001600160a01b0390911690638b4176c690610f8190869086908690600401611fbd565b602060405180830381600087803b158015610f9b57600080fd5b505af1158015610faf573d6000803e3d6000fd5b505050506040513d601f19601f8201168201806040525081019061072e9190611e04565b6060816001600160401b03811115610fed57610fed6121c1565b60405190808252806020026020018201604052801561102057816020015b606081526020019060019003908161100b5790505b50905060005b828110156110c05761109030858584818110611044576110446121ab565b905060200281019061105691906120b9565b8080601f0160208091040260200160405190810160405280939291908181526020018383808284376000920191909152506116ca92505050565b8282815181106110a2576110a26121ab565b602002602001018190525080806110b89061217a565b915050611026565b5092915050565b3360009081526003602052604090205460ff166110f65760405162461bcd60e51b815260040161040a90612041565b81600061110282611669565b60008181526006602052604090205490915060ff16156112fe57600061112785611669565b6001546040516345a0bb6360e11b81529192506000916001600160a01b0390911690638b4176c690611161908b908b908a90600401611fbd565b602060405180830381600087803b15801561117b57600080fd5b505af115801561118f573d6000803e3d6000fd5b505050506040513d601f19601f820116820180604052508101906111b39190611e04565b60008381526005602052604090209091506111ce90826116b1565b506000828152600860209081526040808320848452909152812080548792906111f8908490612136565b9091555050600154600254604051637921219560e11b81526001600160a01b039283169263f242432a926112389230929091169086908b90600401611ea0565b600060405180830381600087803b15801561125257600080fd5b505af1158015611266573d6000803e3d6000fd5b5050600254604051630f6025eb60e01b81526001600160a01b039091169250630f6025eb915061129e90859089908690600401611f94565b600060405180830381600087803b1580156112b857600080fd5b505af11580156112cc573d6000803e3d6000fd5b5050505080826000805160206121d8833981519152876040516112ef9190612095565b60405180910390a35050611513565b60048054600181810190925560008051602061221f833981519152018290556000828152600660205260408120805460ff191690921790915561134085611669565b6001546040516345a0bb6360e11b81529192506000916001600160a01b0390911690638b4176c69061137a908b908b908a90600401611fbd565b602060405180830381600087803b15801561139457600080fd5b505af11580156113a8573d6000803e3d6000fd5b505050506040513d601f19601f820116820180604052508101906113cc9190611e04565b60008381526005602052604090209091506113e790826116b1565b50600082815260086020908152604080832084845290915281208054879290611411908490612136565b9091555050600154600254604051637921219560e11b81526001600160a01b039283169263f242432a926114519230929091169086908b90600401611ea0565b600060405180830381600087803b15801561146b57600080fd5b505af115801561147f573d6000803e3d6000fd5b5050600254604051630f6025eb60e01b81526001600160a01b039091169250630f6025eb91506114b790859089908690600401611f94565b600060405180830381600087803b1580156114d157600080fd5b505af11580156114e5573d6000803e3d6000fd5b5050505080826000805160206121d8833981519152876040516115089190612095565b60405180910390a350505b505050505050565b606080600061152984611669565b6000818152600560205260408120919250908190611546906116ef565b90506000816001600160401b03811115611562576115626121c1565b60405190808252806020026020018201604052801561158b578160200160208202803683370190505b5090506000826001600160401b038111156115a8576115a86121c1565b6040519080825280602002602001820160405280156115d1578160200160208202803683370190505b509050600093505b8284101561165c5760008581526005602052604081206115f990866116f9565b905060006116078a83610e86565b90508184878151811061161c5761161c6121ab565b6020026020010181815250508083878151811061163b5761163b6121ab565b602002602001018181525050505083806116549061217a565b9450506115d9565b9097909650945050505050565b60008160405160200161167c9190611e84565b604051602081830303815290604052805190602001209050919050565b600081815260018301602052604081205415156107bd565b60006107bd8383611705565b606060006107bd83611754565b60606107bd83836040518060600160405280602781526020016121f8602791396117b0565b60006103d5825490565b60006107bd8383611884565b600081815260018301602052604081205461174c575081546001818101845560008481526020808220909301849055845484825282860190935260409020919091556103d5565b5060006103d5565b6060816000018054806020026020016040519081016040528092919081815260200182805480156117a457602002820191906000526020600020905b815481526020019060010190808311611790575b50505050509050919050565b6060833b61180f5760405162461bcd60e51b815260206004820152602660248201527f416464726573733a2064656c65676174652063616c6c20746f206e6f6e2d636f6044820152651b9d1c9858dd60d21b606482015260840161040a565b600080856001600160a01b03168560405161182a9190611e84565b600060405180830381855af49150503d8060008114611865576040519150601f19603f3d011682016040523d82523d6000602084013e61186a565b606091505b509150915061187a8282866118ae565b9695505050505050565b600082600001828154811061189b5761189b6121ab565b9060005260206000200154905092915050565b606083156118bd5750816107bd565b8251156118cd5782518084602001fd5b8160405162461bcd60e51b815260040161040a9190611faa565b80356001600160a01b03811681146118fe57600080fd5b919050565b600082601f83011261191457600080fd5b813560206001600160401b0382111561192f5761192f6121c1565b8160051b61193e828201612106565b83815282810190868401838801850189101561195957600080fd5b600093505b8584101561197c57803583526001939093019291840191840161195e565b50979650505050505050565b600082601f83011261199957600080fd5b81356001600160401b038111156119b2576119b26121c1565b6119c5601f8201601f1916602001612106565b8181528460208386010111156119da57600080fd5b816020850160208301376000918101602001919091529392505050565b600060208284031215611a0957600080fd5b6107bd826118e7565b600080600080600060a08688031215611a2a57600080fd5b611a33866118e7565b9450611a41602087016118e7565b935060408601356001600160401b0380821115611a5d57600080fd5b611a6989838a01611903565b94506060880135915080821115611a7f57600080fd5b611a8b89838a01611903565b93506080880135915080821115611aa157600080fd5b50611aae88828901611988565b9150509295509295909350565b600080600080600060a08688031215611ad357600080fd5b611adc866118e7565b9450611aea602087016118e7565b9350604086013592506060860135915060808601356001600160401b03811115611b1357600080fd5b611aae88828901611988565b60008060408385031215611b3257600080fd5b611b3b836118e7565b946020939093013593505050565b60008060208385031215611b5c57600080fd5b82356001600160401b0380821115611b7357600080fd5b818501915085601f830112611b8757600080fd5b813581811115611b9657600080fd5b8660208260051b8501011115611bab57600080fd5b60209290920196919550909350505050565b600060208284031215611bcf57600080fd5b815180151581146107bd57600080fd5b600060208284031215611bf157600080fd5b5035919050565b60008060408385031215611c0b57600080fd5b50508035926020909101359150565b600060208284031215611c2c57600080fd5b81356001600160e01b0319811681146107bd57600080fd5b600060208284031215611c5657600080fd5b81356001600160401b03811115611c6c57600080fd5b610f1684828501611988565b60008060008060808587031215611c8e57600080fd5b84356001600160401b0380821115611ca557600080fd5b611cb188838901611988565b95506020870135915080821115611cc757600080fd5b611cd388838901611988565b94506040870135915080821115611ce957600080fd5b50611cf687828801611988565b949793965093946060013593505050565b600080600060608486031215611d1c57600080fd5b83356001600160401b0380821115611d3357600080fd5b611d3f87838801611988565b94506020860135915080821115611d5557600080fd5b50611d6286828701611988565b925050604084013590509250925092565b60008060408385031215611d8657600080fd5b82356001600160401b03811115611d9c57600080fd5b611da885828601611988565b95602094909401359450505050565b600080600060608486031215611dcc57600080fd5b83356001600160401b03811115611de257600080fd5b611dee86828701611988565b9660208601359650604090950135949350505050565b600060208284031215611e1657600080fd5b5051919050565b600081518084526020808501945080840160005b83811015611e4d57815187529582019590820190600101611e31565b509495945050505050565b60008151808452611e7081602086016020860161214e565b601f01601f19169290920160200192915050565b60008251611e9681846020870161214e565b9190910192915050565b6001600160a01b0394851681529290931660208301526040820152606081019190915260a06080820181905260009082015260c00190565b6001600160a01b03929092168252602082015260400190565b6000602080830181845280855180835260408601915060408160051b870101925083870160005b82811015611f4657603f19888603018452611f34858351611e58565b94509285019290850190600101611f18565b5092979650505050505050565b6020815260006107bd6020830184611e1d565b604081526000611f796040830185611e1d565b8281036020840152611f8b8185611e1d565b95945050505050565b9283526020830191909152604082015260600190565b6020815260006107bd6020830184611e58565b606081526000611fd06060830186611e58565b8281036020840152611fe28186611e58565b915050826040830152949350505050565b6020808252602e908201527f526168617441646d696e3a20546f6b656e207769746820676976656e2069642060408201526d646f65736e27742065786973747360901b606082015260800190565b60208082526034908201527f52414841545f41444d494e3a204f6e6c792041646d696e2063616e20657865636040820152733aba32903a3434b9903a3930b739b0b1ba34b7b760611b606082015260800190565b9081526040602082018190526003908201526218591960ea1b606082015260800190565b6000808335601e198436030181126120d057600080fd5b8301803591506001600160401b038211156120ea57600080fd5b6020019150368190038213156120ff57600080fd5b9250929050565b604051601f8201601f191681016001600160401b038111828210171561212e5761212e6121c1565b604052919050565b6000821982111561214957612149612195565b500190565b60005b83811015612169578181015183820152602001612151565b8381111561072e5750506000910152565b600060001982141561218e5761218e612195565b5060010190565b634e487b7160e01b600052601160045260246000fd5b634e487b7160e01b600052603260045260246000fd5b634e487b7160e01b600052604160045260246000fdfe01f512e18cf4998febd0989861a31e6a2d71570ad0fe29486e62613ba53a6540416464726573733a206c6f772d6c6576656c2064656c65676174652063616c6c206661696c65648a35acfbc15ff81a39ae7d344fd709f28e8600b4aa8c65c6b64bfe7fe36bd19ba2646970667358221220a27be977471d4f0016f3e3a8b16533437eb01de39cf3b32a2a6f287ab946bd4264736f6c63430008070033",
  "immutableReferences": {},
  "source": "//SPDX-License-Identifier: LGPL-3.0\r\n\r\npragma solidity 0.8.7;\r\n\r\nimport \"./RahatERC20.sol\";\r\nimport \"./RahatERC1155.sol\";\r\nimport \"./Rahat.sol\";\r\n\r\n/// @title Rahat Admin contract - owns all the tokens initially minted\r\n/// @author Rumsan Associates\r\n/// @notice You can use this contract to manage Rahat tokens and projects\r\n/// @dev All function calls are only executed by contract owner\r\ncontract RahatAdmin is ERC1155Holder, Multicall {\r\n  using EnumerableSet for EnumerableSet.UintSet;\r\n\r\n  event ProjectERC20BudgetUpdated(\r\n    bytes32 indexed projectId,\r\n    uint256 projectCapital,\r\n    string tag\r\n  );\r\n  event ProjectERC1155BudgetUpdated(\r\n    bytes32 indexed projectId,\r\n    uint256 indexed tokenId,\r\n    uint256 projectCapital,\r\n    string tag\r\n  );\r\n  event Minted(bool success);\r\n\r\n  // uint256 public mintData ;\r\n  // bool public mintSuccess =false;\r\n\r\n  RahatERC20 public erc20;\r\n  RahatERC1155 public erc1155;\r\n  Rahat public rahatContract;\r\n  mapping(address => bool) public owner;\r\n  //EnumerableSet.UintSet private tokenIds;\r\n\r\n  /// @notice list of projects\r\n  bytes32[] public projectId;\r\n\r\n  //NFTs minted for each project\r\n  mapping(bytes32 => EnumerableSet.UintSet) ERC1155InProject;\r\n\r\n  /// @notice check if projectId exists or not;\r\n  mapping(bytes32 => bool) public projectExists;\r\n\r\n  /// @notice assign budgets to project\r\n  mapping(bytes32 => uint256) public projectERC20Capital;\r\n  mapping(bytes32 => mapping(uint256 => uint256)) public projectERC1155Capital; // projectId => tokenId => balance\r\n\r\n  modifier OnlyOwner {\r\n    require(\r\n      owner[msg.sender],\r\n      \"RAHAT_ADMIN: Only Admin can execute this transaction\"\r\n    );\r\n    _;\r\n  }\r\n\r\n  modifier CheckProject(string memory _projectId) {\r\n    bytes32 _id = findHash(_projectId);\r\n    if (projectExists[_id]) {\r\n      _;\r\n    } else {\r\n      projectId.push(_id);\r\n      projectExists[_id] = true;\r\n      _;\r\n    }\r\n  }\r\n\r\n  /// @notice All the supply is allocated to this contract\r\n  /// @dev deploys AidToken and Rahat contract by sending supply to this contract\r\n\r\n  constructor(\r\n    RahatERC20 _erc20,\r\n    RahatERC1155 _erc1155,\r\n    Rahat _rahatContract,\r\n    uint256 _intitialSupply,\r\n    address _admin\r\n  ) {\r\n    erc20 = _erc20;\r\n    erc1155 = _erc1155;\r\n    rahatContract = _rahatContract;\r\n    erc20.mintERC20(address(this), _intitialSupply);\r\n    //(bool success, bytes memory result) = address(_tokenContract).call(abi.encodeWithSignature(\"mintERC20(address, uint256)\", address(this), _intitialSupply));\r\n    //mintSuccess = success;\r\n    //mintData = abi.decode(result,(uint256));\r\n\r\n    owner[_admin] = true;\r\n  }\r\n\r\n  /// @notice allocate token to projects\r\n  /// @dev Allocates token to the given projectId, Creates project and transfer tokens to Rahat contract.\r\n  /// @param _projectId Unique Id of Project\r\n  /// @param _projectCapital Budget Allocated to project\r\n  function setProjectBudget_ERC20(\r\n    string memory _projectId,\r\n    uint256 _projectCapital\r\n  ) public OnlyOwner CheckProject(_projectId) {\r\n    bytes32 _id = findHash(_projectId);\r\n    projectERC20Capital[_id] += _projectCapital;\r\n    erc20.transfer(address(rahatContract), _projectCapital);\r\n    rahatContract.updateProjectBudget(_id, _projectCapital);\r\n\r\n    emit ProjectERC20BudgetUpdated(_id, _projectCapital, \"add\");\r\n  }\r\n\r\n  /// @notice allocate ERC1155 tokens to projects\r\n  /// @dev Allocates token to the given projectId, Creates project and transfer tokens to Rahat contract.\r\n  /// @param _projectId Unique Id of Project\r\n  /// @param _projectCapital amount of ERC1155 token with _tokenId allocated to project\r\n  /// @param tokenId ERC1155 token ID\r\n  function setProjectBudget_ERC1155(\r\n    string memory _projectId,\r\n    uint256 _projectCapital,\r\n    uint256 tokenId\r\n  ) public OnlyOwner CheckProject(_projectId) {\r\n    require(\r\n      erc1155.exists(tokenId),\r\n      \"RahatAdmin: Token with given id doesn't exists\"\r\n    );\r\n    bytes32 _id = findHash(_projectId);\r\n    if (!ERC1155InProject[_id].contains(tokenId)) {\r\n      ERC1155InProject[_id].add(tokenId);\r\n    }\r\n\r\n    erc1155.mintExistingERC1155(tokenId, _projectCapital);\r\n    projectERC1155Capital[_id][tokenId] += _projectCapital;\r\n    erc1155.safeTransferFrom(\r\n      address(this),\r\n      address(rahatContract),\r\n      tokenId,\r\n      _projectCapital,\r\n      \"\"\r\n    );\r\n    rahatContract.updateProjectBudget(_id, _projectCapital, tokenId);\r\n\r\n    emit ProjectERC1155BudgetUpdated(_id, tokenId, _projectCapital, \"add\");\r\n  }\r\n\r\n  /// @notice allocate ERC1155 tokens to projects\r\n  /// @dev create token and allocate them to the given projectId, Creates project and transfer tokens to Rahat contract.\r\n  ///@param _name name of NFT\r\n  ///@param _symbol symbol of NFT\r\n  /// @param _projectId Unique Id of Project\r\n  /// @param _projectCapital amount of ERC1155 token with _tokenId allocated to project\r\n  /// @param _projectCapital ERC1155 token ID\r\n  function createAndsetProjectBudget_ERC1155(\r\n    string memory _name,\r\n    string memory _symbol,\r\n    string memory _projectId,\r\n    uint256 _projectCapital\r\n  ) public OnlyOwner CheckProject(_projectId) {\r\n    bytes32 _id = findHash(_projectId);\r\n    uint256 tokenId = erc1155.mintERC1155(_name, _symbol, _projectCapital);\r\n\r\n    ERC1155InProject[_id].add(tokenId);\r\n    projectERC1155Capital[_id][tokenId] += _projectCapital;\r\n    erc1155.safeTransferFrom(\r\n      address(this),\r\n      address(rahatContract),\r\n      tokenId,\r\n      _projectCapital,\r\n      \"\"\r\n    );\r\n    rahatContract.updateProjectBudget(_id, _projectCapital, tokenId);\r\n\r\n    emit ProjectERC1155BudgetUpdated(_id, tokenId, _projectCapital, \"add\");\r\n  }\r\n\r\n  // \tfunction revokeProjectBudget(string memory _projectId, uint256 _projectCapital)\r\n  // \tpublic\r\n  // \tOnlyOwner\r\n  // \tCheckProject(_projectId)\r\n  // {\r\n  // \tbytes32 _id = findHash(_projectId);\r\n  // \tprojectERC20Capital[_id] -= _projectCapital;\r\n  // //\ttokenContract.transfer(address(rahatContract), _projectCapital);\r\n  // \t//rahatContract.updateProjectBudget(_id, _projectCapital);\r\n\r\n  // \temit ProjectERC20BudgetUpdated(_id, _projectCapital,'deduct');\r\n  // }\r\n\r\n  // \tfunction revokeProjectBudget(string memory _projectId, uint256 _projectCapital,uint256 tokenId)\r\n  // \tpublic\r\n  // \tOnlyOwner\r\n  // \tCheckProject(_projectId)\r\n  // {\r\n  //     require(erc1155.exists(tokenId),\"RahatAdmin: Token with given id doesn't exists\");\r\n\r\n  // \tbytes32 _id = findHash(_projectId);\r\n  // \tprojectERC1155Capital[_id][tokenId] += _projectCapital;\r\n  // //\ttokenContract.safeTransferFrom(address(this),address(rahatContract),tokenId, _projectCapital,'');\r\n  // //\trahatContract.updateProjectBudget(_id, _projectCapital,tokenId);\r\n\r\n  // \temit ProjectERC1155BudgetUpdated(_id,tokenId, _projectCapital,'deduct');\r\n  // }\r\n\r\n  // function suspendProject(string memory _projectId) public OnlyOwner CheckProject(_projectId){\r\n\r\n  // }\r\n\r\n  /// @notice get the current balance of project\r\n  /// @param _projectId Unique Id of project\r\n  function getProjecERC20Balance(string memory _projectId)\r\n    public\r\n    view\r\n    returns (uint256 _balance)\r\n  {\r\n    bytes32 _id = findHash(_projectId);\r\n    return (rahatContract.getProjectBalance(_id));\r\n  }\r\n\r\n  /// @notice get the current ERC1155 amount of given tokenId in the project\r\n  /// @param _projectId Unique Id of project\r\n  /// @param tokenId ERC1155 tokenID\r\n  function getProjectERC1155Balance(string memory _projectId, uint256 tokenId)\r\n    public\r\n    view\r\n    returns (uint256 _balance)\r\n  {\r\n    bytes32 _id = findHash(_projectId);\r\n    return (rahatContract.getProjectBalance(_id, tokenId));\r\n  }\r\n\r\n  function getProjectERC1155Balances(string memory _projectId)\r\n    public\r\n    view\r\n    returns (uint256[] memory tokenIds, uint256[] memory balances)\r\n  {\r\n    bytes32 _id = findHash(_projectId);\r\n    uint256 i;\r\n    uint256 _totalERC1155 = ERC1155InProject[_id].length();\r\n    uint256[] memory _tokenIds = new uint256[](_totalERC1155);\r\n    uint256[] memory _balances = new uint256[](_totalERC1155);\r\n\r\n    for (i = 0; i < _totalERC1155; i++) {\r\n      uint256 _tokenId = ERC1155InProject[_id].at(i);\r\n      uint256 _balance = getProjectERC1155Balance(_projectId, _tokenId);\r\n      _tokenIds[i] = _tokenId;\r\n      _balances[i] = _balance;\r\n    }\r\n\r\n    return (_tokenIds, _balances);\r\n  }\r\n\r\n  function getAllTokenIdsOfProject(string memory _projectId)\r\n    public\r\n    view\r\n    returns (uint256[] memory tokenIds)\r\n  {\r\n    bytes32 _id = findHash(_projectId);\r\n    return ERC1155InProject[_id].values();\r\n  }\r\n\r\n  // // TODO:   //SANTOSH - Can't we take default error of transferring?\r\n  // /// @notice take out token from this contract\r\n  // /// @param _amount Amount to withdraw token from this contract\r\n  // function withdrawToken(uint256 _amount) public OnlyOwner {\r\n  // \trequire(erc20.transfer(msg.sender, _amount), 'RAHAT_ADMIN: Error while calling token contract');\r\n  // }\r\n\r\n  /// @notice mint new tokens\r\n  /// @param _address address to send the minted tokens\r\n  /// @param _amount Amount of token to Mint\r\n  function mintERC20(address _address, uint256 _amount) public OnlyOwner {\r\n    erc20.mintERC20(_address, _amount);\r\n  }\r\n\r\n  /// @dev mint new tokens\r\n  ///@param _name name of NFT\r\n  ///@param _symbol symbol of NFT\r\n  ///@param _amount amount of NFT\r\n  function mintERC1155(\r\n    string memory _name,\r\n    string memory _symbol,\r\n    uint256 _amount\r\n  ) public OnlyOwner {\r\n    erc1155.mintERC1155(_name, _symbol, _amount);\r\n  }\r\n\r\n  /// @notice Add an account to the owner role. Restricted to owners.\r\n  /// @param _account address of new owner\r\n  function addOwner(address _account) public OnlyOwner {\r\n    owner[_account] = true;\r\n  }\r\n\r\n  /// @notice generates the hash of the given string\r\n  /// @param _data String of which hash is to be generated\r\n  function findHash(string memory _data) private pure returns (bytes32) {\r\n    return keccak256(abi.encodePacked(_data));\r\n  }\r\n}\r\n",
  "sourcePath": "D:\\projects\\Rahat\\rahat-contracts\\contracts\\RahatAdmin.sol",
  "compiler": {
    "name": "solc",
    "version": "0.8.7+commit.e28d00a7.Emscripten.clang"
  },
  "schemaVersion": "3.4.3",
  "updatedAt": "2022-06-27T02:07:40.099Z",
  "devdoc": {
    "author": "Rumsan Associates",
    "details": "All function calls are only executed by contract owner",
    "kind": "dev",
    "methods": {
      "addOwner(address)": {
        "params": {
          "_account": "address of new owner"
        }
      },
      "constructor": {
        "details": "deploys AidToken and Rahat contract by sending supply to this contract"
      },
      "createAndsetProjectBudget_ERC1155(string,string,string,uint256)": {
        "details": "create token and allocate them to the given projectId, Creates project and transfer tokens to Rahat contract.",
        "params": {
          "_name": "name of NFT",
          "_projectCapital": "ERC1155 token ID",
          "_projectId": "Unique Id of Project",
          "_symbol": "symbol of NFT"
        }
      },
      "getProjecERC20Balance(string)": {
        "params": {
          "_projectId": "Unique Id of project"
        }
      },
      "getProjectERC1155Balance(string,uint256)": {
        "params": {
          "_projectId": "Unique Id of project",
          "tokenId": "ERC1155 tokenID"
        }
      },
      "mintERC1155(string,string,uint256)": {
        "details": "mint new tokens",
        "params": {
          "_amount": "amount of NFT",
          "_name": "name of NFT",
          "_symbol": "symbol of NFT"
        }
      },
      "mintERC20(address,uint256)": {
        "params": {
          "_address": "address to send the minted tokens",
          "_amount": "Amount of token to Mint"
        }
      },
      "multicall(bytes[])": {
        "details": "Receives and executes a batch of function calls on this contract."
      },
      "setProjectBudget_ERC1155(string,uint256,uint256)": {
        "details": "Allocates token to the given projectId, Creates project and transfer tokens to Rahat contract.",
        "params": {
          "_projectCapital": "amount of ERC1155 token with _tokenId allocated to project",
          "_projectId": "Unique Id of Project",
          "tokenId": "ERC1155 token ID"
        }
      },
      "setProjectBudget_ERC20(string,uint256)": {
        "details": "Allocates token to the given projectId, Creates project and transfer tokens to Rahat contract.",
        "params": {
          "_projectCapital": "Budget Allocated to project",
          "_projectId": "Unique Id of Project"
        }
      },
      "supportsInterface(bytes4)": {
        "details": "See {IERC165-supportsInterface}."
      }
    },
    "title": "Rahat Admin contract - owns all the tokens initially minted",
    "version": 1
  },
  "userdoc": {
    "kind": "user",
    "methods": {
      "addOwner(address)": {
        "notice": "Add an account to the owner role. Restricted to owners."
      },
      "constructor": {
        "notice": "All the supply is allocated to this contract"
      },
      "createAndsetProjectBudget_ERC1155(string,string,string,uint256)": {
        "notice": "allocate ERC1155 tokens to projects"
      },
      "getProjecERC20Balance(string)": {
        "notice": "get the current balance of project"
      },
      "getProjectERC1155Balance(string,uint256)": {
        "notice": "get the current ERC1155 amount of given tokenId in the project"
      },
      "mintERC20(address,uint256)": {
        "notice": "mint new tokens"
      },
      "projectERC20Capital(bytes32)": {
        "notice": "assign budgets to project"
      },
      "projectExists(bytes32)": {
        "notice": "check if projectId exists or not;"
      },
      "projectId(uint256)": {
        "notice": "list of projects"
      },
      "setProjectBudget_ERC1155(string,uint256,uint256)": {
        "notice": "allocate ERC1155 tokens to projects"
      },
      "setProjectBudget_ERC20(string,uint256)": {
        "notice": "allocate token to projects"
      }
    },
    "notice": "You can use this contract to manage Rahat tokens and projects",
    "version": 1
  }
}