{
  "contractName": "RahatERC1155",
  "abi": [
    {
      "inputs": [
        {
          "internalType": "address",
          "name": "_admin",
          "type": "address"
        }
      ],
      "stateMutability": "nonpayable",
      "type": "constructor"
    },
    {
      "anonymous": false,
      "inputs": [
        {
          "indexed": true,
          "internalType": "address",
          "name": "account",
          "type": "address"
        },
        {
          "indexed": true,
          "internalType": "address",
          "name": "operator",
          "type": "address"
        },
        {
          "indexed": false,
          "internalType": "bool",
          "name": "approved",
          "type": "bool"
        }
      ],
      "name": "ApprovalForAll",
      "type": "event"
    },
    {
      "anonymous": false,
      "inputs": [
        {
          "indexed": true,
          "internalType": "address",
          "name": "operator",
          "type": "address"
        },
        {
          "indexed": true,
          "internalType": "address",
          "name": "from",
          "type": "address"
        },
        {
          "indexed": true,
          "internalType": "address",
          "name": "to",
          "type": "address"
        },
        {
          "indexed": false,
          "internalType": "uint256[]",
          "name": "ids",
          "type": "uint256[]"
        },
        {
          "indexed": false,
          "internalType": "uint256[]",
          "name": "values",
          "type": "uint256[]"
        }
      ],
      "name": "TransferBatch",
      "type": "event"
    },
    {
      "anonymous": false,
      "inputs": [
        {
          "indexed": true,
          "internalType": "address",
          "name": "operator",
          "type": "address"
        },
        {
          "indexed": true,
          "internalType": "address",
          "name": "from",
          "type": "address"
        },
        {
          "indexed": true,
          "internalType": "address",
          "name": "to",
          "type": "address"
        },
        {
          "indexed": false,
          "internalType": "uint256",
          "name": "id",
          "type": "uint256"
        },
        {
          "indexed": false,
          "internalType": "uint256",
          "name": "value",
          "type": "uint256"
        }
      ],
      "name": "TransferSingle",
      "type": "event"
    },
    {
      "anonymous": false,
      "inputs": [
        {
          "indexed": false,
          "internalType": "string",
          "name": "value",
          "type": "string"
        },
        {
          "indexed": true,
          "internalType": "uint256",
          "name": "id",
          "type": "uint256"
        }
      ],
      "name": "URI",
      "type": "event"
    },
    {
      "inputs": [
        {
          "internalType": "address",
          "name": "account",
          "type": "address"
        },
        {
          "internalType": "uint256",
          "name": "id",
          "type": "uint256"
        }
      ],
      "name": "balanceOf",
      "outputs": [
        {
          "internalType": "uint256",
          "name": "",
          "type": "uint256"
        }
      ],
      "stateMutability": "view",
      "type": "function"
    },
    {
      "inputs": [
        {
          "internalType": "address[]",
          "name": "accounts",
          "type": "address[]"
        },
        {
          "internalType": "uint256[]",
          "name": "ids",
          "type": "uint256[]"
        }
      ],
      "name": "balanceOfBatch",
      "outputs": [
        {
          "internalType": "uint256[]",
          "name": "",
          "type": "uint256[]"
        }
      ],
      "stateMutability": "view",
      "type": "function"
    },
    {
      "inputs": [
        {
          "internalType": "address",
          "name": "account",
          "type": "address"
        },
        {
          "internalType": "uint256",
          "name": "id",
          "type": "uint256"
        },
        {
          "internalType": "uint256",
          "name": "value",
          "type": "uint256"
        }
      ],
      "name": "burn",
      "outputs": [],
      "stateMutability": "nonpayable",
      "type": "function"
    },
    {
      "inputs": [
        {
          "internalType": "address",
          "name": "account",
          "type": "address"
        },
        {
          "internalType": "uint256[]",
          "name": "ids",
          "type": "uint256[]"
        },
        {
          "internalType": "uint256[]",
          "name": "values",
          "type": "uint256[]"
        }
      ],
      "name": "burnBatch",
      "outputs": [],
      "stateMutability": "nonpayable",
      "type": "function"
    },
    {
      "inputs": [
        {
          "internalType": "address",
          "name": "account",
          "type": "address"
        },
        {
          "internalType": "address",
          "name": "operator",
          "type": "address"
        }
      ],
      "name": "isApprovedForAll",
      "outputs": [
        {
          "internalType": "bool",
          "name": "",
          "type": "bool"
        }
      ],
      "stateMutability": "view",
      "type": "function"
    },
    {
      "inputs": [
        {
          "internalType": "uint256",
          "name": "",
          "type": "uint256"
        }
      ],
      "name": "name",
      "outputs": [
        {
          "internalType": "string",
          "name": "",
          "type": "string"
        }
      ],
      "stateMutability": "view",
      "type": "function"
    },
    {
      "inputs": [
        {
          "internalType": "address",
          "name": "",
          "type": "address"
        }
      ],
      "name": "owner",
      "outputs": [
        {
          "internalType": "bool",
          "name": "",
          "type": "bool"
        }
      ],
      "stateMutability": "view",
      "type": "function"
    },
    {
      "inputs": [
        {
          "internalType": "address",
          "name": "from",
          "type": "address"
        },
        {
          "internalType": "address",
          "name": "to",
          "type": "address"
        },
        {
          "internalType": "uint256[]",
          "name": "ids",
          "type": "uint256[]"
        },
        {
          "internalType": "uint256[]",
          "name": "amounts",
          "type": "uint256[]"
        },
        {
          "internalType": "bytes",
          "name": "data",
          "type": "bytes"
        }
      ],
      "name": "safeBatchTransferFrom",
      "outputs": [],
      "stateMutability": "nonpayable",
      "type": "function"
    },
    {
      "inputs": [
        {
          "internalType": "address",
          "name": "from",
          "type": "address"
        },
        {
          "internalType": "address",
          "name": "to",
          "type": "address"
        },
        {
          "internalType": "uint256",
          "name": "id",
          "type": "uint256"
        },
        {
          "internalType": "uint256",
          "name": "amount",
          "type": "uint256"
        },
        {
          "internalType": "bytes",
          "name": "data",
          "type": "bytes"
        }
      ],
      "name": "safeTransferFrom",
      "outputs": [],
      "stateMutability": "nonpayable",
      "type": "function"
    },
    {
      "inputs": [
        {
          "internalType": "address",
          "name": "operator",
          "type": "address"
        },
        {
          "internalType": "bool",
          "name": "approved",
          "type": "bool"
        }
      ],
      "name": "setApprovalForAll",
      "outputs": [],
      "stateMutability": "nonpayable",
      "type": "function"
    },
    {
      "inputs": [
        {
          "internalType": "bytes4",
          "name": "interfaceId",
          "type": "bytes4"
        }
      ],
      "name": "supportsInterface",
      "outputs": [
        {
          "internalType": "bool",
          "name": "",
          "type": "bool"
        }
      ],
      "stateMutability": "view",
      "type": "function"
    },
    {
      "inputs": [
        {
          "internalType": "uint256",
          "name": "",
          "type": "uint256"
        }
      ],
      "name": "symbol",
      "outputs": [
        {
          "internalType": "string",
          "name": "",
          "type": "string"
        }
      ],
      "stateMutability": "view",
      "type": "function"
    },
    {
      "inputs": [
        {
          "internalType": "uint256",
          "name": "id",
          "type": "uint256"
        }
      ],
      "name": "totalSupply",
      "outputs": [
        {
          "internalType": "uint256",
          "name": "",
          "type": "uint256"
        }
      ],
      "stateMutability": "view",
      "type": "function"
    },
    {
      "inputs": [
        {
          "internalType": "uint256",
          "name": "",
          "type": "uint256"
        }
      ],
      "name": "uri",
      "outputs": [
        {
          "internalType": "string",
          "name": "",
          "type": "string"
        }
      ],
      "stateMutability": "view",
      "type": "function"
    },
    {
      "inputs": [
        {
          "internalType": "string",
          "name": "newuri",
          "type": "string"
        }
      ],
      "name": "setBaseURI",
      "outputs": [],
      "stateMutability": "nonpayable",
      "type": "function"
    },
    {
      "inputs": [
        {
          "internalType": "uint256",
          "name": "_id",
          "type": "uint256"
        }
      ],
      "name": "exists",
      "outputs": [
        {
          "internalType": "bool",
          "name": "",
          "type": "bool"
        }
      ],
      "stateMutability": "view",
      "type": "function"
    },
    {
      "inputs": [
        {
          "internalType": "string",
          "name": "_name",
          "type": "string"
        },
        {
          "internalType": "string",
          "name": "_symbol",
          "type": "string"
        },
        {
          "internalType": "uint256",
          "name": "_amount",
          "type": "uint256"
        }
      ],
      "name": "mintERC1155",
      "outputs": [
        {
          "internalType": "uint256",
          "name": "",
          "type": "uint256"
        }
      ],
      "stateMutability": "nonpayable",
      "type": "function"
    },
    {
      "inputs": [
        {
          "internalType": "uint256",
          "name": "_id",
          "type": "uint256"
        },
        {
          "internalType": "uint256",
          "name": "_amount",
          "type": "uint256"
        }
      ],
      "name": "mintERC1155",
      "outputs": [],
      "stateMutability": "nonpayable",
      "type": "function"
    },
    {
      "inputs": [
        {
          "internalType": "uint256",
          "name": "_tokenId",
          "type": "uint256"
        }
      ],
      "name": "getTokenData",
      "outputs": [
        {
          "internalType": "string",
          "name": "",
          "type": "string"
        }
      ],
      "stateMutability": "view",
      "type": "function"
    }
  ],
  "bytecode": "0x60806040523480156200001157600080fd5b506040516200231b3803806200231b83398101604081905262000034916200015b565b60408051808201909152601c81527f68747470733a2f2f697066732e72756d73616e2e636f6d2f6970667300000000602082015262000073816200009c565b506001600160a01b03166000908152600560205260409020805460ff19166001179055620001ca565b8051620000b1906002906020840190620000b5565b5050565b828054620000c3906200018d565b90600052602060002090601f016020900481019282620000e7576000855562000132565b82601f106200010257805160ff191683800117855562000132565b8280016001018555821562000132579182015b828111156200013257825182559160200191906001019062000115565b506200014092915062000144565b5090565b5b8082111562000140576000815560010162000145565b6000602082840312156200016e57600080fd5b81516001600160a01b03811681146200018657600080fd5b9392505050565b600181811c90821680620001a257607f821691505b60208210811415620001c457634e487b7160e01b600052602260045260246000fd5b50919050565b61214180620001da6000396000f3fe608060405234801561001057600080fd5b506004361061010f5760003560e01c8063666e1b39116100ad578063bd85b03911610071578063bd85b03914610271578063c048d5a114610291578063e985e9c5146102a4578063f242432a146102e0578063f5298aca146102f357600080fd5b8063666e1b39146102025780636b20c454146102255780638b4176c614610238578063a22cb4651461024b578063b09afec11461025e57600080fd5b8062ad800c14610114578062fdd58e1461013d57806301ffc9a71461015e5780630e89341c146101815780632eb2c2d6146101945780634e1273f4146101a95780634e41a1fb146101c95780634f558e79146101dc57806355f804b3146101ef575b600080fd5b610127610122366004611ada565b610306565b6040516101349190611cae565b60405180910390f35b61015061014b3660046118d3565b6103a0565b604051908152602001610134565b61017161016c366004611a00565b610437565b6040519015158152602001610134565b61012761018f366004611ada565b610489565b6101a76101a2366004611717565b61051d565b005b6101bc6101b7366004611930565b6105b4565b6040516101349190611c6d565b6101276101d7366004611ada565b6106dd565b6101716101ea366004611ada565b6106f6565b6101a76101fd366004611a3a565b61070a565b6101716102103660046116c2565b60056020526000908152604090205460ff1681565b6101a7610233366004611824565b610785565b610150610246366004611a6e565b6107cd565b6101a7610259366004611897565b610850565b61012761026c366004611ada565b610927565b61015061027f366004611ada565b60009081526003602052604090205490565b6101a761029f366004611af3565b61093b565b6101716102b23660046116e4565b6001600160a01b03918216600090815260016020908152604080832093909416825291909152205460ff1690565b6101a76102ee3660046117c0565b6109ba565b6101a76103013660046118fd565b6109ff565b6006602052600090815260409020805461031f90611f42565b80601f016020809104026020016040519081016040528092919081815260200182805461034b90611f42565b80156103985780601f1061036d57610100808354040283529160200191610398565b820191906000526020600020905b81548152906001019060200180831161037b57829003601f168201915b505050505081565b60006001600160a01b0383166104115760405162461bcd60e51b815260206004820152602b60248201527f455243313135353a2062616c616e636520717565727920666f7220746865207a60448201526a65726f206164647265737360a81b60648201526084015b60405180910390fd5b506000908152602081815260408083206001600160a01b03949094168352929052205490565b60006001600160e01b03198216636cdb3d1360e11b148061046857506001600160e01b031982166303a24d0760e21b145b8061048357506301ffc9a760e01b6001600160e01b03198316145b92915050565b60606002805461049890611f42565b80601f01602080910402602001604051908101604052809291908181526020018280546104c490611f42565b80156105115780601f106104e657610100808354040283529160200191610511565b820191906000526020600020905b8154815290600101906020018083116104f457829003601f168201915b50505050509050919050565b6001600160a01b038516331480610539575061053985336102b2565b6105a05760405162461bcd60e51b815260206004820152603260248201527f455243313135353a207472616e736665722063616c6c6572206973206e6f74206044820152711bdddb995c881b9bdc88185c1c1c9bdd995960721b6064820152608401610408565b6105ad8585858585610a42565b5050505050565b606081518351146106195760405162461bcd60e51b815260206004820152602960248201527f455243313135353a206163636f756e747320616e6420696473206c656e677468604482015268040dad2e6dac2e8c6d60bb1b6064820152608401610408565b600083516001600160401b038111156106345761063461201a565b60405190808252806020026020018201604052801561065d578160200160208202803683370190505b50905060005b84518110156106d5576106a885828151811061068157610681612004565b602002602001015185838151811061069b5761069b612004565b60200260200101516103a0565b8282815181106106ba576106ba612004565b60209081029190910101526106ce81611fa9565b9050610663565b509392505050565b6007602052600090815260409020805461031f90611f42565b60008161070260045490565b101592915050565b3260009081526005602052604090205460ff166107795760405162461bcd60e51b815260206004820152602760248201527f4f6e6c792041646d696e2063616e20657865637574652074686973207472616e60448201526639b0b1ba34b7b760c91b6064820152608401610408565b61078281610bde565b50565b6001600160a01b0383163314806107a157506107a183336102b2565b6107bd5760405162461bcd60e51b815260040161040890611d4d565b6107c8838383610bf1565b505050565b60006107dd600480546001019055565b60006107e860045490565b6000818152600660209081526040909120875192935061080c929091880190611523565b506000818152600760209081526040909120855161082c92870190611523565b5061084833828560405180602001604052806000815250610bfc565b949350505050565b336001600160a01b03831614156108bb5760405162461bcd60e51b815260206004820152602960248201527f455243313135353a2073657474696e6720617070726f76616c20737461747573604482015268103337b91039b2b63360b91b6064820152608401610408565b3360008181526001602090815260408083206001600160a01b03871680855290835292819020805460ff191686151590811790915590519081529192917f17307eab39ab6107e8899845ad3d59bd9653f200f220920489ca2b5937696c31910160405180910390a35050565b606061048361093583610489565b83610c0e565b610944826106f6565b61099b5760405162461bcd60e51b815260206004820152602260248201527f746f6b656e207769746820676976656e20696420646f65736e27742065786973604482015261747360f01b6064820152608401610408565b6109b633838360405180602001604052806000815250610bfc565b5050565b6001600160a01b0385163314806109d657506109d685336102b2565b6109f25760405162461bcd60e51b815260040161040890611d4d565b6105ad8585858585610c42565b6001600160a01b038316331480610a1b5750610a1b83336102b2565b610a375760405162461bcd60e51b815260040161040890611d4d565b6107c8838383610d56565b8151835114610a635760405162461bcd60e51b815260040161040890611e68565b6001600160a01b038416610a895760405162461bcd60e51b815260040161040890611d96565b3360005b8451811015610b70576000858281518110610aaa57610aaa612004565b602002602001015190506000858381518110610ac857610ac8612004565b602090810291909101810151600084815280835260408082206001600160a01b038e168352909352919091205490915081811015610b185760405162461bcd60e51b815260040161040890611e1e565b6000838152602081815260408083206001600160a01b038e8116855292528083208585039055908b16825281208054849290610b55908490611ed3565b9250508190555050505080610b6990611fa9565b9050610a8d565b50846001600160a01b0316866001600160a01b0316826001600160a01b03167f4a39dc06d4c0dbc64b70af90fd698a233a518aa5d07e595d983b8c0526c8f7fb8787604051610bc0929190611c80565b60405180910390a4610bd6818787878787610d61565b505050505050565b80516109b6906002906020840190611523565b6107c8838383610ecc565b610c0884848484610f4e565b50505050565b606082610c1a83610f83565b604051602001610c2b929190611b7c565b604051602081830303815290604052905092915050565b6001600160a01b038416610c685760405162461bcd60e51b815260040161040890611d96565b33610c81818787610c7888611080565b6105ad88611080565b6000848152602081815260408083206001600160a01b038a16845290915290205483811015610cc25760405162461bcd60e51b815260040161040890611e1e565b6000858152602081815260408083206001600160a01b038b8116855292528083208785039055908816825281208054869290610cff908490611ed3565b909155505060408051868152602081018690526001600160a01b03808916928a821692918616916000805160206120ec833981519152910160405180910390a4610d4d8288888888886110cb565b50505050505050565b6107c8838383611195565b6001600160a01b0384163b15610bd65760405163bc197c8160e01b81526001600160a01b0385169063bc197c8190610da59089908990889088908890600401611bca565b602060405180830381600087803b158015610dbf57600080fd5b505af1925050508015610def575060408051601f3d908101601f19168201909252610dec91810190611a1d565b60015b610e9c57610dfb612030565b806308c379a01415610e355750610e1061204c565b80610e1b5750610e37565b8060405162461bcd60e51b81526004016104089190611cae565b505b60405162461bcd60e51b815260206004820152603460248201527f455243313135353a207472616e7366657220746f206e6f6e20455243313135356044820152732932b1b2b4bb32b91034b6b83632b6b2b73a32b960611b6064820152608401610408565b6001600160e01b0319811663bc197c8160e01b14610d4d5760405162461bcd60e51b815260040161040890611cc1565b610ed78383836111c8565b60005b8251811015610c0857818181518110610ef557610ef5612004565b602002602001015160036000858481518110610f1357610f13612004565b602002602001015181526020019081526020016000206000828254610f389190611eff565b90915550610f47905081611fa9565b9050610eda565b610f5a84848484611344565b60008381526003602052604081208054849290610f78908490611ed3565b909155505050505050565b606081610fa75750506040805180820190915260018152600360fc1b602082015290565b8160005b8115610fd15780610fbb81611fa9565b9150610fca9050600a83611eeb565b9150610fab565b6000816001600160401b03811115610feb57610feb61201a565b6040519080825280601f01601f191660200182016040528015611015576020820181803683370190505b5090505b84156108485761102a600183611eff565b9150611037600a86611fc4565b611042906030611ed3565b60f81b81838151811061105757611057612004565b60200101906001600160f81b031916908160001a905350611079600a86611eeb565b9450611019565b604080516001808252818301909252606091600091906020808301908036833701905050905082816000815181106110ba576110ba612004565b602090810291909101015292915050565b6001600160a01b0384163b15610bd65760405163f23a6e6160e01b81526001600160a01b0385169063f23a6e619061110f9089908990889088908890600401611c28565b602060405180830381600087803b15801561112957600080fd5b505af1925050508015611159575060408051601f3d908101601f1916820190925261115691810190611a1d565b60015b61116557610dfb612030565b6001600160e01b0319811663f23a6e6160e01b14610d4d5760405162461bcd60e51b815260040161040890611cc1565b6111a0838383611433565b600082815260036020526040812080548392906111be908490611eff565b9091555050505050565b6001600160a01b0383166111ee5760405162461bcd60e51b815260040161040890611ddb565b805182511461120f5760405162461bcd60e51b815260040161040890611e68565b604080516020810190915260009081905233905b83518110156112e557600084828151811061124057611240612004565b60200260200101519050600084838151811061125e5761125e612004565b602090810291909101810151600084815280835260408082206001600160a01b038c1683529093529190912054909150818110156112ae5760405162461bcd60e51b815260040161040890611d09565b6000928352602083815260408085206001600160a01b038b16865290915290922091039055806112dd81611fa9565b915050611223565b5060006001600160a01b0316846001600160a01b0316826001600160a01b03167f4a39dc06d4c0dbc64b70af90fd698a233a518aa5d07e595d983b8c0526c8f7fb8686604051611336929190611c80565b60405180910390a450505050565b6001600160a01b0384166113a45760405162461bcd60e51b815260206004820152602160248201527f455243313135353a206d696e7420746f20746865207a65726f206164647265736044820152607360f81b6064820152608401610408565b336113b581600087610c7888611080565b6000848152602081815260408083206001600160a01b0389168452909152812080548592906113e5908490611ed3565b909155505060408051858152602081018590526001600160a01b0380881692600092918516916000805160206120ec833981519152910160405180910390a46105ad816000878787876110cb565b6001600160a01b0383166114595760405162461bcd60e51b815260040161040890611ddb565b336114898185600061146a87611080565b61147387611080565b5050604080516020810190915260009052505050565b6000838152602081815260408083206001600160a01b0388168452909152902054828110156114ca5760405162461bcd60e51b815260040161040890611d09565b6000848152602081815260408083206001600160a01b03898116808652918452828520888703905582518981529384018890529092908616916000805160206120ec833981519152910160405180910390a45050505050565b82805461152f90611f42565b90600052602060002090601f0160209004810192826115515760008555611597565b82601f1061156a57805160ff1916838001178555611597565b82800160010185558215611597579182015b8281111561159757825182559160200191906001019061157c565b506115a39291506115a7565b5090565b5b808211156115a357600081556001016115a8565b80356001600160a01b03811681146115d357600080fd5b919050565b600082601f8301126115e957600080fd5b813560206115f682611eb0565b6040516116038282611f7d565b8381528281019150858301600585901b8701840188101561162357600080fd5b60005b8581101561164257813584529284019290840190600101611626565b5090979650505050505050565b600082601f83011261166057600080fd5b81356001600160401b038111156116795761167961201a565b604051611690601f8301601f191660200182611f7d565b8181528460208386010111156116a557600080fd5b816020850160208301376000918101602001919091529392505050565b6000602082840312156116d457600080fd5b6116dd826115bc565b9392505050565b600080604083850312156116f757600080fd5b611700836115bc565b915061170e602084016115bc565b90509250929050565b600080600080600060a0868803121561172f57600080fd5b611738866115bc565b9450611746602087016115bc565b935060408601356001600160401b038082111561176257600080fd5b61176e89838a016115d8565b9450606088013591508082111561178457600080fd5b61179089838a016115d8565b935060808801359150808211156117a657600080fd5b506117b38882890161164f565b9150509295509295909350565b600080600080600060a086880312156117d857600080fd5b6117e1866115bc565b94506117ef602087016115bc565b9350604086013592506060860135915060808601356001600160401b0381111561181857600080fd5b6117b38882890161164f565b60008060006060848603121561183957600080fd5b611842846115bc565b925060208401356001600160401b038082111561185e57600080fd5b61186a878388016115d8565b9350604086013591508082111561188057600080fd5b5061188d868287016115d8565b9150509250925092565b600080604083850312156118aa57600080fd5b6118b3836115bc565b9150602083013580151581146118c857600080fd5b809150509250929050565b600080604083850312156118e657600080fd5b6118ef836115bc565b946020939093013593505050565b60008060006060848603121561191257600080fd5b61191b846115bc565b95602085013595506040909401359392505050565b6000806040838503121561194357600080fd5b82356001600160401b038082111561195a57600080fd5b818501915085601f83011261196e57600080fd5b8135602061197b82611eb0565b6040516119888282611f7d565b8381528281019150858301600585901b870184018b10156119a857600080fd5b600096505b848710156119d2576119be816115bc565b8352600196909601959183019183016119ad565b50965050860135925050808211156119e957600080fd5b506119f6858286016115d8565b9150509250929050565b600060208284031215611a1257600080fd5b81356116dd816120d5565b600060208284031215611a2f57600080fd5b81516116dd816120d5565b600060208284031215611a4c57600080fd5b81356001600160401b03811115611a6257600080fd5b6108488482850161164f565b600080600060608486031215611a8357600080fd5b83356001600160401b0380821115611a9a57600080fd5b611aa68783880161164f565b94506020860135915080821115611abc57600080fd5b50611ac98682870161164f565b925050604084013590509250925092565b600060208284031215611aec57600080fd5b5035919050565b60008060408385031215611b0657600080fd5b50508035926020909101359150565b600081518084526020808501945080840160005b83811015611b4557815187529582019590820190600101611b29565b509495945050505050565b60008151808452611b68816020860160208601611f16565b601f01601f19169290920160200192915050565b60008351611b8e818460208801611f16565b602f60f81b9083019081528351611bac816001840160208801611f16565b64173539b7b760d91b60019290910191820152600601949350505050565b6001600160a01b0386811682528516602082015260a060408201819052600090611bf690830186611b15565b8281036060840152611c088186611b15565b90508281036080840152611c1c8185611b50565b98975050505050505050565b6001600160a01b03868116825285166020820152604081018490526060810183905260a060808201819052600090611c6290830184611b50565b979650505050505050565b6020815260006116dd6020830184611b15565b604081526000611c936040830185611b15565b8281036020840152611ca58185611b15565b95945050505050565b6020815260006116dd6020830184611b50565b60208082526028908201527f455243313135353a204552433131353552656365697665722072656a656374656040820152676420746f6b656e7360c01b606082015260800190565b60208082526024908201527f455243313135353a206275726e20616d6f756e7420657863656564732062616c604082015263616e636560e01b606082015260800190565b60208082526029908201527f455243313135353a2063616c6c6572206973206e6f74206f776e6572206e6f7260408201526808185c1c1c9bdd995960ba1b606082015260800190565b60208082526025908201527f455243313135353a207472616e7366657220746f20746865207a65726f206164604082015264647265737360d81b606082015260800190565b60208082526023908201527f455243313135353a206275726e2066726f6d20746865207a65726f206164647260408201526265737360e81b606082015260800190565b6020808252602a908201527f455243313135353a20696e73756666696369656e742062616c616e636520666f60408201526939103a3930b739b332b960b11b606082015260800190565b60208082526028908201527f455243313135353a2069647320616e6420616d6f756e7473206c656e677468206040820152670dad2e6dac2e8c6d60c31b606082015260800190565b60006001600160401b03821115611ec957611ec961201a565b5060051b60200190565b60008219821115611ee657611ee6611fd8565b500190565b600082611efa57611efa611fee565b500490565b600082821015611f1157611f11611fd8565b500390565b60005b83811015611f31578181015183820152602001611f19565b83811115610c085750506000910152565b600181811c90821680611f5657607f821691505b60208210811415611f7757634e487b7160e01b600052602260045260246000fd5b50919050565b601f8201601f191681016001600160401b0381118282101715611fa257611fa261201a565b6040525050565b6000600019821415611fbd57611fbd611fd8565b5060010190565b600082611fd357611fd3611fee565b500690565b634e487b7160e01b600052601160045260246000fd5b634e487b7160e01b600052601260045260246000fd5b634e487b7160e01b600052603260045260246000fd5b634e487b7160e01b600052604160045260246000fd5b600060033d11156120495760046000803e5060005160e01c5b90565b600060443d101561205a5790565b6040516003193d81016004833e81513d6001600160401b03816024840111818411171561208957505050505090565b82850191508151818111156120a15750505050505090565b843d87010160208285010111156120bb5750505050505090565b6120ca60208286010187611f7d565b509095945050505050565b6001600160e01b03198116811461078257600080fdfec3d58168c5ae7397731d063d5bbf3d657854427343f4c083240f7aacaa2d0f62a26469706673582212202f5c0352263ead14ec15265ade0ff64d96f09061354d45d7af02e7de618cd9d264736f6c63430008070033",
  "immutableReferences": {},
  "source": "//SPDX-License-Identifier: UNLICENSED\r\npragma solidity 0.8.7;\r\n\r\n//ERC1155 Tokens\r\nimport '@openzeppelin/contracts/token/ERC1155/ERC1155.sol';\r\nimport \"@openzeppelin/contracts/token/ERC1155/extensions/ERC1155Supply.sol\";\r\nimport '@openzeppelin/contracts/token/ERC1155/extensions/ERC1155Burnable.sol';\r\n//import 'https://github.com/OpenZeppelin/openzeppelin-contracts/blob/release-v4.3/contracts/token/ERC1155/extensions/ERC1155Pausable.sol';\r\n\r\n//Utils\r\nimport \"@openzeppelin/contracts/utils/Counters.sol\";\r\nimport '@openzeppelin/contracts/access/AccessControl.sol';\r\nimport \"@openzeppelin/contracts/utils/Strings.sol\";\r\n\r\ncontract RahatERC1155 is ERC1155,ERC1155Supply,ERC1155Burnable{\r\n    \r\n    using Counters for Counters.Counter;\r\n    using Strings for uint256;\r\n    \r\n    Counters.Counter private _itemIds; // tracks the token ids\r\n    \r\n\tmapping(address => bool) public owner;\r\n\tmapping(uint256 => string) public name;\r\n\tmapping(uint256 => string) public symbol;\r\n\r\n\tmodifier OnlyOwner {\r\n\t\trequire(owner[tx.origin], 'Only Admin can execute this transaction');\r\n\t\t_;\r\n\t}\r\n\r\n\tconstructor(address _admin) ERC1155(\"https://ipfs.rumsan.com/ipfs\") {\r\n\t\towner[_admin] = true;\r\n\t}\r\n\t\r\n\r\n\t///@dev Mint New NFT to the caller\r\n    ///@param _name name of NFT\r\n    ///@param _symbol symbol of NFT\r\n    ///@param _amount amount of NFT\r\n\tfunction mintERC1155(\tstring memory _name,\r\n\t\tstring memory _symbol,uint256 _amount) public returns (uint256) {\r\n\t   _itemIds.increment();\r\n\t   uint256 newItemId = _itemIds.current();\r\n\t   name[newItemId] = _name;\r\n\t   symbol[newItemId] = _symbol;\r\n\t    _mint(msg.sender, newItemId, _amount, \"\");\r\n\t    \r\n\t    return newItemId;\r\n\t}\r\n\t\r\n    ///@dev set the baseURI of NFT\r\n    ///@param newuri base URI(eg: https://ipfs.io/ipfs)\r\n\tfunction setBaseURI(string memory newuri) public OnlyOwner {\r\n        _setURI(newuri);\r\n    }\r\n    \r\n    ///@dev check if the given tokenId exists\r\n    ///@param _id ERC1155 tokenId\r\n    function exists(uint256 _id) public view override returns(bool){\r\n         return(_itemIds.current() >= _id);\r\n    }\r\n\r\n\t///@dev mint ERC1155 token of given tokenId\r\n    ///@param _id ERC1155 tokenid\r\n    ///@param _amount amount of ERC1155 token to be minted \r\n\tfunction mintERC1155(uint256 _id,uint256 _amount) public {\r\n\t    require(exists(_id),\"token with given id doesn't exists\");\r\n\t    _mint(msg.sender, _id, _amount, \"\");\r\n\t}\r\n\t\r\n    ///@dev Get the token URI of given tokenId\r\n    ///@param _tokenId ERC1155 tokenId\r\n\tfunction getTokenData(uint256 _tokenId) public view returns(string memory){\r\n\t    return _toFullURI(uri(_tokenId),_tokenId);\r\n\t}\r\n\t\r\n    function _toFullURI(string memory _baseUri, uint256 _tokenId)\r\n        internal\r\n        pure\r\n        returns (string memory)\r\n    {\r\n        return\r\n            string(\r\n                abi.encodePacked(\r\n                    _baseUri,\r\n                    \"/\",\r\n                    _tokenId.toString(),\r\n                    \".json\"\r\n                )\r\n            );\r\n    }\r\n\t\r\n    \r\n    function _mint(address account, uint256 id, uint256 amount, bytes memory data)\r\n        internal\r\n        override(ERC1155, ERC1155Supply)\r\n    {\r\n        super._mint(account,id,amount,data);\r\n    }\r\n    function _mintBatch(address account, uint256[] memory ids, uint256[] memory amounts, bytes memory data)\r\n        internal\r\n        override(ERC1155, ERC1155Supply)\r\n    {\r\n        super._mintBatch(account,ids,amounts,data);\r\n    }\r\n    function _burn(address account, uint256 id, uint256 amount)\r\n        internal\r\n        override(ERC1155, ERC1155Supply)\r\n    {\r\n        super._burn(account,id,amount);\r\n    }\r\n    function _burnBatch(address account, uint256[] memory ids, uint256[] memory amounts)\r\n        internal\r\n        override(ERC1155, ERC1155Supply)\r\n    {\r\n        super._burnBatch(account,ids,amounts);\r\n    }\r\n}\r\n",
  "sourcePath": "D:\\projects\\Rahat\\rahat-contracts\\contracts\\RahatERC1155.sol",
  "compiler": {
    "name": "solc",
    "version": "0.8.7+commit.e28d00a7.Emscripten.clang"
  },
  "schemaVersion": "3.4.3",
  "updatedAt": "2021-11-23T16:08:10.974Z",
  "devdoc": {
    "kind": "dev",
    "methods": {
      "balanceOf(address,uint256)": {
        "details": "See {IERC1155-balanceOf}. Requirements: - `account` cannot be the zero address."
      },
      "balanceOfBatch(address[],uint256[])": {
        "details": "See {IERC1155-balanceOfBatch}. Requirements: - `accounts` and `ids` must have the same length."
      },
      "exists(uint256)": {
        "details": "check if the given tokenId exists",
        "params": {
          "_id": "ERC1155 tokenId"
        }
      },
      "getTokenData(uint256)": {
        "details": "Get the token URI of given tokenId",
        "params": {
          "_tokenId": "ERC1155 tokenId"
        }
      },
      "isApprovedForAll(address,address)": {
        "details": "See {IERC1155-isApprovedForAll}."
      },
      "mintERC1155(string,string,uint256)": {
        "details": "Mint New NFT to the caller",
        "params": {
          "_amount": "amount of NFT",
          "_name": "name of NFT",
          "_symbol": "symbol of NFT"
        }
      },
      "mintERC1155(uint256,uint256)": {
        "details": "mint ERC1155 token of given tokenId",
        "params": {
          "_amount": "amount of ERC1155 token to be minted ",
          "_id": "ERC1155 tokenid"
        }
      },
      "safeBatchTransferFrom(address,address,uint256[],uint256[],bytes)": {
        "details": "See {IERC1155-safeBatchTransferFrom}."
      },
      "safeTransferFrom(address,address,uint256,uint256,bytes)": {
        "details": "See {IERC1155-safeTransferFrom}."
      },
      "setApprovalForAll(address,bool)": {
        "details": "See {IERC1155-setApprovalForAll}."
      },
      "setBaseURI(string)": {
        "details": "set the baseURI of NFT",
        "params": {
          "newuri": "base URI(eg: https://ipfs.io/ipfs)"
        }
      },
      "supportsInterface(bytes4)": {
        "details": "See {IERC165-supportsInterface}."
      },
      "totalSupply(uint256)": {
        "details": "Total amount of tokens in with a given id."
      },
      "uri(uint256)": {
        "details": "See {IERC1155MetadataURI-uri}. This implementation returns the same URI for *all* token types. It relies on the token type ID substitution mechanism https://eips.ethereum.org/EIPS/eip-1155#metadata[defined in the EIP]. Clients calling this function must replace the `\\{id\\}` substring with the actual token type ID."
      }
    },
    "version": 1
  },
  "userdoc": {
    "kind": "user",
    "methods": {},
    "version": 1
  }
}