{
  "contractName": "RahatAdmin",
  "abi": [
    {
      "inputs": [
        {
          "internalType": "contract RahatERC20",
          "name": "_erc20",
          "type": "address"
        },
        {
          "internalType": "contract RahatERC1155",
          "name": "_erc1155",
          "type": "address"
        },
        {
          "internalType": "contract Rahat",
          "name": "_rahatContract",
          "type": "address"
        },
        {
          "internalType": "uint256",
          "name": "_intitialSupply",
          "type": "uint256"
        },
        {
          "internalType": "address",
          "name": "_admin",
          "type": "address"
        }
      ],
      "stateMutability": "nonpayable",
      "type": "constructor"
    },
    {
      "anonymous": false,
      "inputs": [
        {
          "indexed": false,
          "internalType": "bool",
          "name": "success",
          "type": "bool"
        }
      ],
      "name": "Minted",
      "type": "event"
    },
    {
      "anonymous": false,
      "inputs": [
        {
          "indexed": true,
          "internalType": "bytes32",
          "name": "projectId",
          "type": "bytes32"
        },
        {
          "indexed": true,
          "internalType": "uint256",
          "name": "tokenId",
          "type": "uint256"
        },
        {
          "indexed": false,
          "internalType": "uint256",
          "name": "projectCapital",
          "type": "uint256"
        },
        {
          "indexed": false,
          "internalType": "string",
          "name": "tag",
          "type": "string"
        }
      ],
      "name": "ProjectERC1155BudgetUpdated",
      "type": "event"
    },
    {
      "anonymous": false,
      "inputs": [
        {
          "indexed": true,
          "internalType": "bytes32",
          "name": "projectId",
          "type": "bytes32"
        },
        {
          "indexed": false,
          "internalType": "uint256",
          "name": "projectCapital",
          "type": "uint256"
        },
        {
          "indexed": false,
          "internalType": "string",
          "name": "tag",
          "type": "string"
        }
      ],
      "name": "ProjectERC20BudgetUpdated",
      "type": "event"
    },
    {
      "inputs": [],
      "name": "erc1155",
      "outputs": [
        {
          "internalType": "contract RahatERC1155",
          "name": "",
          "type": "address"
        }
      ],
      "stateMutability": "view",
      "type": "function"
    },
    {
      "inputs": [],
      "name": "erc20",
      "outputs": [
        {
          "internalType": "contract RahatERC20",
          "name": "",
          "type": "address"
        }
      ],
      "stateMutability": "view",
      "type": "function"
    },
    {
      "inputs": [
        {
          "internalType": "address",
          "name": "",
          "type": "address"
        },
        {
          "internalType": "address",
          "name": "",
          "type": "address"
        },
        {
          "internalType": "uint256[]",
          "name": "",
          "type": "uint256[]"
        },
        {
          "internalType": "uint256[]",
          "name": "",
          "type": "uint256[]"
        },
        {
          "internalType": "bytes",
          "name": "",
          "type": "bytes"
        }
      ],
      "name": "onERC1155BatchReceived",
      "outputs": [
        {
          "internalType": "bytes4",
          "name": "",
          "type": "bytes4"
        }
      ],
      "stateMutability": "nonpayable",
      "type": "function"
    },
    {
      "inputs": [
        {
          "internalType": "address",
          "name": "",
          "type": "address"
        },
        {
          "internalType": "address",
          "name": "",
          "type": "address"
        },
        {
          "internalType": "uint256",
          "name": "",
          "type": "uint256"
        },
        {
          "internalType": "uint256",
          "name": "",
          "type": "uint256"
        },
        {
          "internalType": "bytes",
          "name": "",
          "type": "bytes"
        }
      ],
      "name": "onERC1155Received",
      "outputs": [
        {
          "internalType": "bytes4",
          "name": "",
          "type": "bytes4"
        }
      ],
      "stateMutability": "nonpayable",
      "type": "function"
    },
    {
      "inputs": [
        {
          "internalType": "address",
          "name": "",
          "type": "address"
        }
      ],
      "name": "owner",
      "outputs": [
        {
          "internalType": "bool",
          "name": "",
          "type": "bool"
        }
      ],
      "stateMutability": "view",
      "type": "function"
    },
    {
      "inputs": [
        {
          "internalType": "bytes32",
          "name": "",
          "type": "bytes32"
        },
        {
          "internalType": "uint256",
          "name": "",
          "type": "uint256"
        }
      ],
      "name": "projectERC1155Capital",
      "outputs": [
        {
          "internalType": "uint256",
          "name": "",
          "type": "uint256"
        }
      ],
      "stateMutability": "view",
      "type": "function"
    },
    {
      "inputs": [
        {
          "internalType": "bytes32",
          "name": "",
          "type": "bytes32"
        }
      ],
      "name": "projectERC20Capital",
      "outputs": [
        {
          "internalType": "uint256",
          "name": "",
          "type": "uint256"
        }
      ],
      "stateMutability": "view",
      "type": "function"
    },
    {
      "inputs": [
        {
          "internalType": "bytes32",
          "name": "",
          "type": "bytes32"
        }
      ],
      "name": "projectExists",
      "outputs": [
        {
          "internalType": "bool",
          "name": "",
          "type": "bool"
        }
      ],
      "stateMutability": "view",
      "type": "function"
    },
    {
      "inputs": [
        {
          "internalType": "uint256",
          "name": "",
          "type": "uint256"
        }
      ],
      "name": "projectId",
      "outputs": [
        {
          "internalType": "bytes32",
          "name": "",
          "type": "bytes32"
        }
      ],
      "stateMutability": "view",
      "type": "function"
    },
    {
      "inputs": [],
      "name": "rahatContract",
      "outputs": [
        {
          "internalType": "contract Rahat",
          "name": "",
          "type": "address"
        }
      ],
      "stateMutability": "view",
      "type": "function"
    },
    {
      "inputs": [
        {
          "internalType": "bytes4",
          "name": "interfaceId",
          "type": "bytes4"
        }
      ],
      "name": "supportsInterface",
      "outputs": [
        {
          "internalType": "bool",
          "name": "",
          "type": "bool"
        }
      ],
      "stateMutability": "view",
      "type": "function"
    },
    {
      "inputs": [
        {
          "internalType": "string",
          "name": "_projectId",
          "type": "string"
        },
        {
          "internalType": "uint256",
          "name": "_projectCapital",
          "type": "uint256"
        }
      ],
      "name": "setProjectBudget_ERC20",
      "outputs": [],
      "stateMutability": "nonpayable",
      "type": "function"
    },
    {
      "inputs": [
        {
          "internalType": "string",
          "name": "_projectId",
          "type": "string"
        },
        {
          "internalType": "uint256",
          "name": "_projectCapital",
          "type": "uint256"
        },
        {
          "internalType": "uint256",
          "name": "tokenId",
          "type": "uint256"
        }
      ],
      "name": "setProjectBudget_ERC1155",
      "outputs": [],
      "stateMutability": "nonpayable",
      "type": "function"
    },
    {
      "inputs": [
        {
          "internalType": "string",
          "name": "_name",
          "type": "string"
        },
        {
          "internalType": "string",
          "name": "_symbol",
          "type": "string"
        },
        {
          "internalType": "string",
          "name": "_projectId",
          "type": "string"
        },
        {
          "internalType": "uint256",
          "name": "_projectCapital",
          "type": "uint256"
        }
      ],
      "name": "createAndsetProjectBudget_ERC1155",
      "outputs": [],
      "stateMutability": "nonpayable",
      "type": "function"
    },
    {
      "inputs": [
        {
          "internalType": "string",
          "name": "_projectId",
          "type": "string"
        },
        {
          "internalType": "uint256",
          "name": "_projectCapital",
          "type": "uint256"
        },
        {
          "internalType": "uint256",
          "name": "tokenId",
          "type": "uint256"
        }
      ],
      "name": "revokeProjectBudget",
      "outputs": [],
      "stateMutability": "nonpayable",
      "type": "function"
    },
    {
      "inputs": [
        {
          "internalType": "string",
          "name": "_projectId",
          "type": "string"
        },
        {
          "internalType": "uint256",
          "name": "_projectCapital",
          "type": "uint256"
        }
      ],
      "name": "revokeProjectBudget",
      "outputs": [],
      "stateMutability": "nonpayable",
      "type": "function"
    },
    {
      "inputs": [
        {
          "internalType": "string",
          "name": "_projectId",
          "type": "string"
        }
      ],
      "name": "suspendProject",
      "outputs": [],
      "stateMutability": "nonpayable",
      "type": "function"
    },
    {
      "inputs": [
        {
          "internalType": "string",
          "name": "_projectId",
          "type": "string"
        }
      ],
      "name": "getProjecERC20Balance",
      "outputs": [
        {
          "internalType": "uint256",
          "name": "_balance",
          "type": "uint256"
        }
      ],
      "stateMutability": "view",
      "type": "function"
    },
    {
      "inputs": [
        {
          "internalType": "string",
          "name": "_projectId",
          "type": "string"
        },
        {
          "internalType": "uint256",
          "name": "tokenId",
          "type": "uint256"
        }
      ],
      "name": "getProjectERC1155Balance",
      "outputs": [
        {
          "internalType": "uint256",
          "name": "_balance",
          "type": "uint256"
        }
      ],
      "stateMutability": "view",
      "type": "function"
    },
    {
      "inputs": [
        {
          "internalType": "string",
          "name": "_projectId",
          "type": "string"
        }
      ],
      "name": "getProjectERC1155Balances",
      "outputs": [
        {
          "internalType": "uint256[]",
          "name": "tokenIds",
          "type": "uint256[]"
        },
        {
          "internalType": "uint256[]",
          "name": "balances",
          "type": "uint256[]"
        }
      ],
      "stateMutability": "view",
      "type": "function"
    },
    {
      "inputs": [
        {
          "internalType": "string",
          "name": "_projectId",
          "type": "string"
        }
      ],
      "name": "getAllTokenIdsOfProject",
      "outputs": [
        {
          "internalType": "uint256[]",
          "name": "tokenIds",
          "type": "uint256[]"
        }
      ],
      "stateMutability": "view",
      "type": "function"
    },
    {
      "inputs": [
        {
          "internalType": "uint256",
          "name": "_amount",
          "type": "uint256"
        }
      ],
      "name": "withdrawToken",
      "outputs": [],
      "stateMutability": "nonpayable",
      "type": "function"
    },
    {
      "inputs": [
        {
          "internalType": "address",
          "name": "_address",
          "type": "address"
        },
        {
          "internalType": "uint256",
          "name": "_amount",
          "type": "uint256"
        }
      ],
      "name": "mintERC20",
      "outputs": [],
      "stateMutability": "nonpayable",
      "type": "function"
    },
    {
      "inputs": [
        {
          "internalType": "string",
          "name": "_name",
          "type": "string"
        },
        {
          "internalType": "string",
          "name": "_symbol",
          "type": "string"
        },
        {
          "internalType": "uint256",
          "name": "_amount",
          "type": "uint256"
        }
      ],
      "name": "mintERC1155",
      "outputs": [],
      "stateMutability": "nonpayable",
      "type": "function"
    },
    {
      "inputs": [
        {
          "internalType": "address",
          "name": "_account",
          "type": "address"
        }
      ],
      "name": "addOwner",
      "outputs": [],
      "stateMutability": "nonpayable",
      "type": "function"
    }
  ],
  "bytecode": "0x60806040523480156200001157600080fd5b506040516200275938038062002759833981016040819052620000349162000116565b600080546001600160a01b038781166001600160a01b03199283168117909355600180548883169084161790556002805491871691909216179055604051631f132a7360e21b815230600482015260248101849052637c4ca9cc90604401602060405180830381600087803b158015620000ad57600080fd5b505af1158015620000c2573d6000803e3d6000fd5b505050506040513d601f19601f82011682018060405250810190620000e891906200018a565b506001600160a01b03166000908152600360205260409020805460ff1916600117905550620001bd92505050565b600080600080600060a086880312156200012f57600080fd5b85516200013c81620001a4565b60208701519095506200014f81620001a4565b60408701519094506200016281620001a4565b6060870151608088015191945092506200017c81620001a4565b809150509295509295909350565b6000602082840312156200019d57600080fd5b5051919050565b6001600160a01b0381168114620001ba57600080fd5b50565b61258c80620001cd6000396000f3fe608060405234801561001057600080fd5b50600436106101635760003560e01c8063785e9e86116100ce578063bc197c8111610087578063bc197c8114610340578063c78f647814610378578063d31678b51461038b578063d56022d7146103ac578063d665b7a4146103bf578063f23a6e61146103d2578063f7597a4f146103f157600080fd5b8063785e9e86146102a95780637c1e25a5146102bc5780637c4ca9cc146102dc578063801fdb87146102ef5780638b4176c61461030257806396131d861461031557600080fd5b80634dd1f816116101205780634dd1f8161461020f5780634ff1a5691461022257806350baa6221461024d57806363c183f014610260578063666e1b39146102735780637065cb481461029657600080fd5b806301ffc9a7146101685780630ed8926214610190578063179680b1146101a557806334854e2f146101b857806338975895146101d95780633fdba575146101fc575b600080fd5b61017b610176366004611f9c565b610411565b60405190151581526020015b60405180910390f35b6101a361019e366004611fc6565b610448565b005b6101a36101b33660046120f5565b6104e9565b6101cb6101c6366004611fc6565b610815565b604051908152602001610187565b61017b6101e7366004611f61565b60066020526000908152604090205460ff1681565b6101a361020a366004612139565b6108d5565b6101cb61021d366004611f61565b610b6c565b600254610235906001600160a01b031681565b6040516001600160a01b039091168152602001610187565b6101a361025b366004611f61565b610b8d565b6101a361026e366004612139565b610ca7565b61017b610281366004611ded565b60036020526000908152604090205460ff1681565b6101a36102a4366004611ded565b611203565b600054610235906001600160a01b031681565b6102cf6102ca366004611fc6565b611256565b6040516101879190612273565b6101a36102ea366004611f15565b61127d565b6101cb6102fd3660046120f5565b611330565b6101a3610310366004612089565b6113f8565b6101cb610323366004611f7a565b600860209081526000928352604080842090915290825290205481565b61035f61034e366004611e08565b63bc197c8160e01b95945050505050565b6040516001600160e01b03199091168152602001610187565b6101a3610386366004611ffa565b6114ad565b61039e610399366004611fc6565b61190d565b604051610187929190612286565b600154610235906001600160a01b031681565b6101a36103cd3660046120f5565b611a5b565b61035f6103e0366004611eb1565b63f23a6e6160e01b95945050505050565b6101cb6103ff366004611f61565b60076020526000908152604090205481565b60006001600160e01b03198216630271189760e51b148061044257506301ffc9a760e01b6001600160e01b03198316145b92915050565b3360009081526003602052604090205460ff166104805760405162461bcd60e51b815260040161047790612338565b60405180910390fd5b80600061048c82611b91565b60008181526006602052604090205490915060ff16156104ab57505050565b600480546001818101909255600080516020612517833981519152018290556000828152600660205260409020805460ff191690911790555b505050565b3360009081526003602052604090205460ff166105185760405162461bcd60e51b815260040161047790612338565b81600061052482611b91565b60008181526006602052604090205490915060ff161561068d57600061054985611b91565b90508360076000838152602001908152602001600020600082825461056e919061243e565b909155505060005460025460405163a9059cbb60e01b81526001600160a01b039283169263a9059cbb926105a992911690889060040161225a565b602060405180830381600087803b1580156105c357600080fd5b505af11580156105d7573d6000803e3d6000fd5b505050506040513d601f19601f820116820180604052508101906105fb9190611f3f565b50600254604051638825756760e01b815260048101839052602481018690526001600160a01b0390911690638825756790604401600060405180830381600087803b15801561064957600080fd5b505af115801561065d573d6000803e3d6000fd5b50505050806000805160206125378339815191528560405161067f91906123c3565b60405180910390a25061080f565b600480546001818101909255600080516020612517833981519152018290556000828152600660205260408120805460ff19169092179091556106cf85611b91565b9050836007600083815260200190815260200160002060008282546106f4919061243e565b909155505060005460025460405163a9059cbb60e01b81526001600160a01b039283169263a9059cbb9261072f92911690889060040161225a565b602060405180830381600087803b15801561074957600080fd5b505af115801561075d573d6000803e3d6000fd5b505050506040513d601f19601f820116820180604052508101906107819190611f3f565b50600254604051638825756760e01b815260048101839052602481018690526001600160a01b0390911690638825756790604401600060405180830381600087803b1580156107cf57600080fd5b505af11580156107e3573d6000803e3d6000fd5b50505050806000805160206125378339815191528560405161080591906123c3565b60405180910390a2505b50505050565b60008061082183611b91565b60008181526006602052604090205490915060ff166108525760405162461bcd60e51b81526004016104779061238c565b6002546040516367bc276d60e11b8152600481018390526001600160a01b039091169063cf784eda9060240160206040518083038186803b15801561089657600080fd5b505afa1580156108aa573d6000803e3d6000fd5b505050506040513d601f19601f820116820180604052508101906108ce9190612186565b9392505050565b3360009081526003602052604090205460ff166109045760405162461bcd60e51b815260040161047790612338565b82600061091082611b91565b60008181526006602052604090205490915060ff1615610a2f57600154604051634f558e7960e01b8152600481018590526001600160a01b0390911690634f558e799060240160206040518083038186803b15801561096e57600080fd5b505afa158015610982573d6000803e3d6000fd5b505050506040513d601f19601f820116820180604052508101906109a69190611f3f565b6109c25760405162461bcd60e51b8152600401610477906122ea565b60006109cd86611b91565b60008181526008602090815260408083208884529091528120805492935087929091906109fb90849061243e565b9250508190555083816000805160206124f783398151915287604051610a2191906123e7565b60405180910390a350610b65565b600480546001808201835560008051602061251783398151915290910183905560008381526006602052604090819020805460ff19168317905590549051634f558e7960e01b81529182018590526001600160a01b031690634f558e799060240160206040518083038186803b158015610aa857600080fd5b505afa158015610abc573d6000803e3d6000fd5b505050506040513d601f19601f82011682018060405250810190610ae09190611f3f565b610afc5760405162461bcd60e51b8152600401610477906122ea565b6000610b0786611b91565b6000818152600860209081526040808320888452909152812080549293508792909190610b3590849061243e565b9250508190555083816000805160206124f783398151915287604051610b5b91906123e7565b60405180910390a3505b5050505050565b60048181548110610b7c57600080fd5b600091825260209091200154905081565b3360009081526003602052604090205460ff16610bbc5760405162461bcd60e51b815260040161047790612338565b60005460405163a9059cbb60e01b81526001600160a01b039091169063a9059cbb90610bee903390859060040161225a565b602060405180830381600087803b158015610c0857600080fd5b505af1158015610c1c573d6000803e3d6000fd5b505050506040513d601f19601f82011682018060405250810190610c409190611f3f565b610ca45760405162461bcd60e51b815260206004820152602f60248201527f52414841545f41444d494e3a204572726f72207768696c652063616c6c696e6760448201526e081d1bdad95b8818dbdb9d1c9858dd608a1b6064820152608401610477565b50565b3360009081526003602052604090205460ff16610cd65760405162461bcd60e51b815260040161047790612338565b826000610ce282611b91565b60008181526006602052604090205490915060ff1615610f6557600154604051634f558e7960e01b8152600481018590526001600160a01b0390911690634f558e799060240160206040518083038186803b158015610d4057600080fd5b505afa158015610d54573d6000803e3d6000fd5b505050506040513d601f19601f82011682018060405250810190610d789190611f3f565b610d945760405162461bcd60e51b8152600401610477906122ea565b6000610d9f86611b91565b6000818152600560205260409020909150610dba9085611bc1565b610dd8576000818152600560205260409020610dd69085611bd9565b505b60015460405163c048d5a160e01b815260048101869052602481018790526001600160a01b039091169063c048d5a190604401600060405180830381600087803b158015610e2557600080fd5b505af1158015610e39573d6000803e3d6000fd5b505050600082815260086020908152604080832088845290915281208054889350909190610e6890849061243e565b9091555050600154600254604051637921219560e11b81526001600160a01b039283169263f242432a92610ea89230929091169089908b90600401612222565b600060405180830381600087803b158015610ec257600080fd5b505af1158015610ed6573d6000803e3d6000fd5b5050600254604051630f6025eb60e01b81526004810185905260248101899052604481018890526001600160a01b039091169250630f6025eb9150606401600060405180830381600087803b158015610f2e57600080fd5b505af1158015610f42573d6000803e3d6000fd5b5050505083816000805160206124f783398151915287604051610a2191906123c3565b600480546001808201835560008051602061251783398151915290910183905560008381526006602052604090819020805460ff19168317905590549051634f558e7960e01b81529182018590526001600160a01b031690634f558e799060240160206040518083038186803b158015610fde57600080fd5b505afa158015610ff2573d6000803e3d6000fd5b505050506040513d601f19601f820116820180604052508101906110169190611f3f565b6110325760405162461bcd60e51b8152600401610477906122ea565b600061103d86611b91565b60008181526005602052604090209091506110589085611bc1565b6110765760008181526005602052604090206110749085611bd9565b505b60015460405163c048d5a160e01b815260048101869052602481018790526001600160a01b039091169063c048d5a190604401600060405180830381600087803b1580156110c357600080fd5b505af11580156110d7573d6000803e3d6000fd5b50505060008281526008602090815260408083208884529091528120805488935090919061110690849061243e565b9091555050600154600254604051637921219560e11b81526001600160a01b039283169263f242432a926111469230929091169089908b90600401612222565b600060405180830381600087803b15801561116057600080fd5b505af1158015611174573d6000803e3d6000fd5b5050600254604051630f6025eb60e01b81526004810185905260248101899052604481018890526001600160a01b039091169250630f6025eb9150606401600060405180830381600087803b1580156111cc57600080fd5b505af11580156111e0573d6000803e3d6000fd5b5050505083816000805160206124f783398151915287604051610b5b91906123c3565b3360009081526003602052604090205460ff166112325760405162461bcd60e51b815260040161047790612338565b6001600160a01b03166000908152600360205260409020805460ff19166001179055565b6060600061126383611b91565b60008181526005602052604090209091506108ce90611be5565b3360009081526003602052604090205460ff166112ac5760405162461bcd60e51b815260040161047790612338565b600054604051631f132a7360e21b81526001600160a01b0390911690637c4ca9cc906112de908590859060040161225a565b602060405180830381600087803b1580156112f857600080fd5b505af115801561130c573d6000803e3d6000fd5b505050506040513d601f19601f820116820180604052508101906104e49190612186565b60008061133c84611b91565b60008181526006602052604090205490915060ff1661136d5760405162461bcd60e51b81526004016104779061238c565b600254604051630e72f45760e21b815260048101839052602481018590526001600160a01b03909116906339cbd15c9060440160206040518083038186803b1580156113b857600080fd5b505afa1580156113cc573d6000803e3d6000fd5b505050506040513d601f19601f820116820180604052508101906113f09190612186565b949350505050565b3360009081526003602052604090205460ff166114275760405162461bcd60e51b815260040161047790612338565b6001546040516345a0bb6360e11b81526001600160a01b0390911690638b4176c69061145b908690869086906004016122b4565b602060405180830381600087803b15801561147557600080fd5b505af1158015611489573d6000803e3d6000fd5b505050506040513d601f19601f8201168201806040525081019061080f9190612186565b3360009081526003602052604090205460ff166114dc5760405162461bcd60e51b815260040161047790612338565b8160006114e882611b91565b60008181526006602052604090205490915060ff16156116ea57600061150d85611b91565b6001546040516345a0bb6360e11b81529192506000916001600160a01b0390911690638b4176c690611547908b908b908a906004016122b4565b602060405180830381600087803b15801561156157600080fd5b505af1158015611575573d6000803e3d6000fd5b505050506040513d601f19601f820116820180604052508101906115999190612186565b60008381526005602052604090209091506115b49082611bd9565b506000828152600860209081526040808320848452909152812080548792906115de90849061243e565b9091555050600154600254604051637921219560e11b81526001600160a01b039283169263f242432a9261161e9230929091169086908b90600401612222565b600060405180830381600087803b15801561163857600080fd5b505af115801561164c573d6000803e3d6000fd5b5050600254604051630f6025eb60e01b81526004810186905260248101899052604481018590526001600160a01b039091169250630f6025eb9150606401600060405180830381600087803b1580156116a457600080fd5b505af11580156116b8573d6000803e3d6000fd5b5050505080826000805160206124f7833981519152876040516116db91906123c3565b60405180910390a35050611905565b600480546001818101909255600080516020612517833981519152018290556000828152600660205260408120805460ff191690921790915561172c85611b91565b6001546040516345a0bb6360e11b81529192506000916001600160a01b0390911690638b4176c690611766908b908b908a906004016122b4565b602060405180830381600087803b15801561178057600080fd5b505af1158015611794573d6000803e3d6000fd5b505050506040513d601f19601f820116820180604052508101906117b89190612186565b60008381526005602052604090209091506117d39082611bd9565b506000828152600860209081526040808320848452909152812080548792906117fd90849061243e565b9091555050600154600254604051637921219560e11b81526001600160a01b039283169263f242432a9261183d9230929091169086908b90600401612222565b600060405180830381600087803b15801561185757600080fd5b505af115801561186b573d6000803e3d6000fd5b5050600254604051630f6025eb60e01b81526004810186905260248101899052604481018590526001600160a01b039091169250630f6025eb9150606401600060405180830381600087803b1580156118c357600080fd5b505af11580156118d7573d6000803e3d6000fd5b5050505080826000805160206124f7833981519152876040516118fa91906123c3565b60405180910390a350505b505050505050565b606080600061191b84611b91565b600081815260056020526040812091925090819061193890611bf2565b90506000816001600160401b03811115611954576119546124e0565b60405190808252806020026020018201604052801561197d578160200160208202803683370190505b5090506000826001600160401b0381111561199a5761199a6124e0565b6040519080825280602002602001820160405280156119c3578160200160208202803683370190505b509050600093505b82841015611a4e5760008581526005602052604081206119eb9086611bfc565b905060006119f98a83611330565b905081848781518110611a0e57611a0e6124ca565b60200260200101818152505080838781518110611a2d57611a2d6124ca565b60200260200101818152505050508380611a4690612499565b9450506119cb565b9097909650945050505050565b3360009081526003602052604090205460ff16611a8a5760405162461bcd60e51b815260040161047790612338565b816000611a9682611b91565b60008181526006602052604090205490915060ff1615611b05576000611abb85611b91565b905083600760008381526020019081526020016000206000828254611ae09190612456565b92505081905550806000805160206125378339815191528560405161067f91906123e7565b600480546001818101909255600080516020612517833981519152018290556000828152600660205260408120805460ff1916909217909155611b4785611b91565b905083600760008381526020019081526020016000206000828254611b6c9190612456565b92505081905550806000805160206125378339815191528560405161080591906123e7565b600081604051602001611ba49190612206565b604051602081830303815290604052805190602001209050919050565b600081815260018301602052604081205415156108ce565b60006108ce8383611c08565b606060006108ce83611c57565b6000610442825490565b60006108ce8383611cb3565b6000818152600183016020526040812054611c4f57508154600181810184556000848152602080822090930184905584548482528286019093526040902091909155610442565b506000610442565b606081600001805480602002602001604051908101604052809291908181526020018280548015611ca757602002820191906000526020600020905b815481526020019060010190808311611c93575b50505050509050919050565b6000826000018281548110611cca57611cca6124ca565b9060005260206000200154905092915050565b80356001600160a01b0381168114611cf457600080fd5b919050565b600082601f830112611d0a57600080fd5b813560206001600160401b03821115611d2557611d256124e0565b8160051b611d3482820161240e565b838152828101908684018388018501891015611d4f57600080fd5b600093505b85841015611d72578035835260019390930192918401918401611d54565b50979650505050505050565b600082601f830112611d8f57600080fd5b81356001600160401b03811115611da857611da86124e0565b611dbb601f8201601f191660200161240e565b818152846020838601011115611dd057600080fd5b816020850160208301376000918101602001919091529392505050565b600060208284031215611dff57600080fd5b6108ce82611cdd565b600080600080600060a08688031215611e2057600080fd5b611e2986611cdd565b9450611e3760208701611cdd565b935060408601356001600160401b0380821115611e5357600080fd5b611e5f89838a01611cf9565b94506060880135915080821115611e7557600080fd5b611e8189838a01611cf9565b93506080880135915080821115611e9757600080fd5b50611ea488828901611d7e565b9150509295509295909350565b600080600080600060a08688031215611ec957600080fd5b611ed286611cdd565b9450611ee060208701611cdd565b9350604086013592506060860135915060808601356001600160401b03811115611f0957600080fd5b611ea488828901611d7e565b60008060408385031215611f2857600080fd5b611f3183611cdd565b946020939093013593505050565b600060208284031215611f5157600080fd5b815180151581146108ce57600080fd5b600060208284031215611f7357600080fd5b5035919050565b60008060408385031215611f8d57600080fd5b50508035926020909101359150565b600060208284031215611fae57600080fd5b81356001600160e01b0319811681146108ce57600080fd5b600060208284031215611fd857600080fd5b81356001600160401b03811115611fee57600080fd5b6113f084828501611d7e565b6000806000806080858703121561201057600080fd5b84356001600160401b038082111561202757600080fd5b61203388838901611d7e565b9550602087013591508082111561204957600080fd5b61205588838901611d7e565b9450604087013591508082111561206b57600080fd5b5061207887828801611d7e565b949793965093946060013593505050565b60008060006060848603121561209e57600080fd5b83356001600160401b03808211156120b557600080fd5b6120c187838801611d7e565b945060208601359150808211156120d757600080fd5b506120e486828701611d7e565b925050604084013590509250925092565b6000806040838503121561210857600080fd5b82356001600160401b0381111561211e57600080fd5b61212a85828601611d7e565b95602094909401359450505050565b60008060006060848603121561214e57600080fd5b83356001600160401b0381111561216457600080fd5b61217086828701611d7e565b9660208601359650604090950135949350505050565b60006020828403121561219857600080fd5b5051919050565b600081518084526020808501945080840160005b838110156121cf578151875295820195908201906001016121b3565b509495945050505050565b600081518084526121f281602086016020860161246d565b601f01601f19169290920160200192915050565b6000825161221881846020870161246d565b9190910192915050565b6001600160a01b0394851681529290931660208301526040820152606081019190915260a06080820181905260009082015260c00190565b6001600160a01b03929092168252602082015260400190565b6020815260006108ce602083018461219f565b604081526000612299604083018561219f565b82810360208401526122ab818561219f565b95945050505050565b6060815260006122c760608301866121da565b82810360208401526122d981866121da565b915050826040830152949350505050565b6020808252602e908201527f526168617441646d696e3a20546f6b656e207769746820676976656e2069642060408201526d646f65736e27742065786973747360901b606082015260800190565b60208082526034908201527f52414841545f41444d494e3a204f6e6c792041646d696e2063616e20657865636040820152733aba32903a3434b9903a3930b739b0b1ba34b7b760611b606082015260800190565b6020808252601e908201527f52414841545f41444d494e3a20496e76616c69642050726f6a65637449440000604082015260600190565b9081526040602082018190526003908201526218591960ea1b606082015260800190565b908152604060208201819052600690820152651919591d58dd60d21b606082015260800190565b604051601f8201601f191681016001600160401b0381118282101715612436576124366124e0565b604052919050565b60008219821115612451576124516124b4565b500190565b600082821015612468576124686124b4565b500390565b60005b83811015612488578181015183820152602001612470565b8381111561080f5750506000910152565b60006000198214156124ad576124ad6124b4565b5060010190565b634e487b7160e01b600052601160045260246000fd5b634e487b7160e01b600052603260045260246000fd5b634e487b7160e01b600052604160045260246000fdfe01f512e18cf4998febd0989861a31e6a2d71570ad0fe29486e62613ba53a65408a35acfbc15ff81a39ae7d344fd709f28e8600b4aa8c65c6b64bfe7fe36bd19bfb81835777f5c1e6fd7d6eb84fa729934ae66884bf599bb714743f575ec7b577a2646970667358221220e7dfe3e1d4c9d84790f0717ca97052e404b901ef2553361e96500277bdfd585e64736f6c63430008070033",
  "immutableReferences": {},
  "source": "//SPDX-License-Identifier: UNLICENSED\r\n\r\npragma solidity 0.8.7;\r\n\r\nimport './RahatERC20.sol';\r\nimport './RahatERC1155.sol';\r\nimport './Rahat.sol';\r\n\r\n/// @title Rahat Admin contract - owns all the tokens initially minted\r\n/// @author Rumsan Associates\r\n/// @notice You can use this contract to manage Rahat tokens and projects\r\n/// @dev All function calls are only executed by contract owner\r\ncontract RahatAdmin is ERC1155Holder {\r\n    \r\n    using EnumerableSet for EnumerableSet.UintSet;\r\n    \r\n\tevent ProjectERC20BudgetUpdated(bytes32 indexed projectId, uint256 projectCapital,string tag);\r\n\tevent ProjectERC1155BudgetUpdated(bytes32 indexed projectId, uint256 indexed tokenId, uint256 projectCapital,string tag);\r\n\tevent Minted(bool success);\r\n\r\n\t// uint256 public mintData ;\r\n\t// bool public mintSuccess =false;\r\n\r\n    RahatERC20 public erc20;\r\n    RahatERC1155 public erc1155;\r\n\tRahat public rahatContract;\r\n\tmapping(address => bool) public owner;\r\n\t//EnumerableSet.UintSet private tokenIds;\r\n\r\n\t/// @notice list of projects\r\n\tbytes32[] public projectId;\r\n\t\r\n\t//NFTs minted for each project\r\n    mapping(bytes32 => EnumerableSet.UintSet) ERC1155InProject;\r\n\r\n\t/// @notice check if projectId exists or not;\r\n\tmapping(bytes32 => bool) public projectExists;\r\n\r\n\t/// @notice assign budgets to project\r\n\tmapping(bytes32 => uint256) public projectERC20Capital;\r\n\tmapping(bytes32 => mapping(uint256 => uint256)) public projectERC1155Capital; // projectId => tokenId => balance\r\n\r\n\tmodifier OnlyOwner {\r\n\t\trequire(owner[msg.sender], 'RAHAT_ADMIN: Only Admin can execute this transaction');\r\n\t\t_;\r\n\t}\r\n\r\n\tmodifier CheckProject(string memory _projectId) {\r\n\t\tbytes32 _id = findHash(_projectId);\r\n\t\tif (projectExists[_id]) {\r\n\t\t\t_;\r\n\t\t} else {\r\n\t\t\tprojectId.push(_id);\r\n\t\t\tprojectExists[_id] = true;\r\n\t\t\t_;\r\n\t\t}\r\n\t}\r\n\t\r\n\t\r\n\t\r\n\t\r\n\r\n\t/// @notice All the supply is allocated to this contract\r\n\t/// @dev deploys AidToken and Rahat contract by sending supply to this contract\r\n\r\n\tconstructor(\r\n\t    RahatERC20 _erc20, \r\n\t    RahatERC1155 _erc1155,\r\n\t\tRahat _rahatContract,\r\n\t\tuint256 _intitialSupply,\r\n\t\taddress _admin\r\n\t) {\r\n\t\terc20 = _erc20;\r\n\t\terc1155 = _erc1155;\r\n\t\trahatContract = _rahatContract;\r\n\t\terc20.mintERC20(address(this), _intitialSupply);\r\n\t\t//(bool success, bytes memory result) = address(_tokenContract).call(abi.encodeWithSignature(\"mintERC20(address, uint256)\", address(this), _intitialSupply));\r\n\t\t//mintSuccess = success;\r\n\t\t//mintData = abi.decode(result,(uint256));\r\n\r\n\t\towner[_admin] = true;\r\n\t}\r\n\r\n    \r\n\t/// @notice allocate token to projects\r\n\t/// @dev Allocates token to the given projectId, Creates project and transfer tokens to Rahat contract.\r\n\t/// @param _projectId Unique Id of Project\r\n\t/// @param _projectCapital Budget Allocated to project\r\n\tfunction setProjectBudget_ERC20(string memory _projectId, uint256 _projectCapital)\r\n\t\tpublic\r\n\t\tOnlyOwner\r\n\t\tCheckProject(_projectId)\r\n\t{\r\n\t\tbytes32 _id = findHash(_projectId);\r\n\t\tprojectERC20Capital[_id] += _projectCapital;\r\n\t\terc20.transfer(address(rahatContract), _projectCapital);\r\n\t\trahatContract.updateProjectBudget(_id, _projectCapital);\r\n\r\n\t\temit ProjectERC20BudgetUpdated(_id, _projectCapital,'add');\r\n\t}\r\n\t\r\n\t/// @notice allocate ERC1155 tokens to projects\r\n\t/// @dev Allocates token to the given projectId, Creates project and transfer tokens to Rahat contract.\r\n\t/// @param _projectId Unique Id of Project\r\n\t/// @param _projectCapital amount of ERC1155 token with _tokenId allocated to project\r\n\t/// @param tokenId ERC1155 token ID\r\n\t\tfunction setProjectBudget_ERC1155(string memory _projectId, uint256 _projectCapital,uint256 tokenId)\r\n\t\tpublic\r\n\t\tOnlyOwner\r\n\t\tCheckProject(_projectId)\r\n\t{\r\n\t    require(erc1155.exists(tokenId),\"RahatAdmin: Token with given id doesn't exists\");\r\n\t    bytes32 _id = findHash(_projectId);\r\n\t    if(!ERC1155InProject[_id].contains(tokenId)){\r\n\t        ERC1155InProject[_id].add(tokenId);\r\n\t    }\r\n\t    \r\n\t\terc1155.mintERC1155(tokenId,_projectCapital);\r\n\t\tprojectERC1155Capital[_id][tokenId] += _projectCapital;\r\n\t\terc1155.safeTransferFrom(address(this),address(rahatContract),tokenId, _projectCapital,'');\r\n\t\trahatContract.updateProjectBudget(_id, _projectCapital,tokenId);\r\n\r\n\t\temit ProjectERC1155BudgetUpdated(_id,tokenId, _projectCapital,'add');\r\n\t}\r\n\r\n\t/// @notice allocate ERC1155 tokens to projects\r\n\t/// @dev create token and allocate them to the given projectId, Creates project and transfer tokens to Rahat contract.\r\n\t///@param _name name of NFT\r\n    ///@param _symbol symbol of NFT\r\n\t/// @param _projectId Unique Id of Project\r\n\t/// @param _projectCapital amount of ERC1155 token with _tokenId allocated to project\r\n\t/// @param _projectCapital ERC1155 token ID\r\n\tfunction createAndsetProjectBudget_ERC1155(string memory _name, string memory _symbol, string memory _projectId, uint256 _projectCapital)\r\n\t\tpublic\r\n\t\tOnlyOwner\r\n\t\tCheckProject(_projectId)\r\n\t{\r\n\t    bytes32 _id = findHash(_projectId);\r\n\t    uint256 tokenId = erc1155.mintERC1155(_name,_symbol,_projectCapital);\r\n\t    \r\n\t    ERC1155InProject[_id].add(tokenId);\r\n\t\tprojectERC1155Capital[_id][tokenId] += _projectCapital;\r\n\t\terc1155.safeTransferFrom(address(this),address(rahatContract),tokenId, _projectCapital,'');\r\n\t\trahatContract.updateProjectBudget(_id, _projectCapital,tokenId);\r\n\r\n\t\temit ProjectERC1155BudgetUpdated(_id,tokenId, _projectCapital,'add');\r\n\t}\r\n\t\r\n\t\r\n\r\n\t\tfunction revokeProjectBudget(string memory _projectId, uint256 _projectCapital)\r\n\t\tpublic\r\n\t\tOnlyOwner\r\n\t\tCheckProject(_projectId)\r\n\t{\r\n\t\tbytes32 _id = findHash(_projectId);\r\n\t\tprojectERC20Capital[_id] -= _projectCapital;\r\n\t//\ttokenContract.transfer(address(rahatContract), _projectCapital);\r\n\t\t//rahatContract.updateProjectBudget(_id, _projectCapital);\r\n\r\n\t\temit ProjectERC20BudgetUpdated(_id, _projectCapital,'deduct');\r\n\t}\r\n\t\r\n\t\tfunction revokeProjectBudget(string memory _projectId, uint256 _projectCapital,uint256 tokenId)\r\n\t\tpublic\r\n\t\tOnlyOwner\r\n\t\tCheckProject(_projectId)\r\n\t{\r\n\t    require(erc1155.exists(tokenId),\"RahatAdmin: Token with given id doesn't exists\");\r\n\t    \r\n\t\tbytes32 _id = findHash(_projectId);\r\n\t\tprojectERC1155Capital[_id][tokenId] += _projectCapital;\r\n\t//\ttokenContract.safeTransferFrom(address(this),address(rahatContract),tokenId, _projectCapital,'');\r\n\t//\trahatContract.updateProjectBudget(_id, _projectCapital,tokenId);\r\n\r\n\t\temit ProjectERC1155BudgetUpdated(_id,tokenId, _projectCapital,'deduct');\r\n\t}\r\n\t\r\n\tfunction suspendProject(string memory _projectId) public OnlyOwner CheckProject(_projectId){\r\n\t    \r\n\t}\r\n\r\n\t/// @notice get the current balance of project\r\n\t/// @param _projectId Unique Id of project\r\n\tfunction getProjecERC20Balance(string memory _projectId) public view returns (uint256 _balance) {\r\n\t\tbytes32 _id = findHash(_projectId);\r\n\t\trequire(projectExists[_id], 'RAHAT_ADMIN: Invalid ProjectID');\r\n\t\treturn (rahatContract.getProjectBalance(_id));\r\n\t}\r\n\r\n\t\r\n\t/// @notice get the current ERC1155 amount of given tokenId in the project\r\n\t/// @param _projectId Unique Id of project\r\n\t/// @param tokenId ERC1155 tokenID\r\n\tfunction getProjectERC1155Balance(string memory _projectId,uint256 tokenId) public view returns (uint256 _balance) {\r\n\t\tbytes32 _id = findHash(_projectId);\r\n\t\trequire(projectExists[_id], 'RAHAT_ADMIN: Invalid ProjectID');\r\n\t\treturn (rahatContract.getProjectBalance(_id,tokenId));\r\n\t}\r\n\t\r\n\tfunction getProjectERC1155Balances(string memory _projectId) public view returns(uint256[] memory tokenIds, uint256[] memory balances){\r\n\t    bytes32 _id = findHash(_projectId);\r\n        uint256 i;\r\n        uint256 _totalERC1155 = ERC1155InProject[_id].length();\r\n        uint256[] memory _tokenIds = new uint256[](_totalERC1155);\r\n        uint256[] memory _balances = new uint256[](_totalERC1155);\r\n        \r\n        for (i=0;i<_totalERC1155;i++){\r\n            uint256 _tokenId = ERC1155InProject[_id].at(i);\r\n            uint256 _balance = getProjectERC1155Balance(_projectId,_tokenId);\r\n            _tokenIds[i] = _tokenId;\r\n            _balances[i] = _balance;\r\n        }\r\n        \r\n        return (_tokenIds,_balances);\r\n\t    \r\n\t}\r\n\t\r\n\tfunction getAllTokenIdsOfProject(string memory _projectId) public view returns (uint256[] memory tokenIds){\r\n\t     bytes32 _id = findHash(_projectId);\r\n\t    return ERC1155InProject[_id].values();\r\n\t}\r\n\r\n\t// TODO:   //SANTOSH - Can't we take default error of transferring?\r\n\t/// @notice take out token from this contract\r\n\t/// @param _amount Amount to withdraw token from this contract\r\n\tfunction withdrawToken(uint256 _amount) public OnlyOwner {\r\n\t\trequire(erc20.transfer(msg.sender, _amount), 'RAHAT_ADMIN: Error while calling token contract');\r\n\t}\r\n\r\n\t/// @notice mint new tokens\r\n\t/// @param _address address to send the minted tokens\r\n\t/// @param _amount Amount of token to Mint\r\n\tfunction mintERC20(address _address, uint256 _amount) public OnlyOwner {\r\n\t\terc20.mintERC20(_address, _amount);\r\n\t}\r\n\t\r\n\t/// @dev mint new tokens\r\n    ///@param _name name of NFT\r\n    ///@param _symbol symbol of NFT\r\n    ///@param _amount amount of NFT\r\n\tfunction mintERC1155(string memory _name,\r\n\t\tstring memory _symbol,uint256 _amount) public OnlyOwner {\r\n\t\t    erc1155.mintERC1155(_name,_symbol,_amount);\r\n\t\t}\r\n\r\n\t/// @notice Add an account to the owner role. Restricted to owners.\r\n\t/// @param _account address of new owner\r\n\tfunction addOwner(address _account) public OnlyOwner {\r\n\t\towner[_account] = true;\r\n\t}\r\n\r\n\t/// @notice generates the hash of the given string\r\n\t/// @param _data String of which hash is to be generated\r\n\tfunction findHash(string memory _data) private pure returns (bytes32) {\r\n\t\treturn keccak256(abi.encodePacked(_data));\r\n\t}\r\n}\r\n",
  "sourcePath": "D:\\projects\\Rahat\\rahat-contracts\\contracts\\RahatAdmin.sol",
  "compiler": {
    "name": "solc",
    "version": "0.8.7+commit.e28d00a7.Emscripten.clang"
  },
  "schemaVersion": "3.4.3",
  "updatedAt": "2021-11-23T16:08:10.958Z",
  "devdoc": {
    "author": "Rumsan Associates",
    "details": "All function calls are only executed by contract owner",
    "kind": "dev",
    "methods": {
      "addOwner(address)": {
        "params": {
          "_account": "address of new owner"
        }
      },
      "constructor": {
        "details": "deploys AidToken and Rahat contract by sending supply to this contract"
      },
      "createAndsetProjectBudget_ERC1155(string,string,string,uint256)": {
        "details": "create token and allocate them to the given projectId, Creates project and transfer tokens to Rahat contract.",
        "params": {
          "_name": "name of NFT",
          "_projectCapital": "ERC1155 token ID",
          "_projectId": "Unique Id of Project",
          "_symbol": "symbol of NFT"
        }
      },
      "getProjecERC20Balance(string)": {
        "params": {
          "_projectId": "Unique Id of project"
        }
      },
      "getProjectERC1155Balance(string,uint256)": {
        "params": {
          "_projectId": "Unique Id of project",
          "tokenId": "ERC1155 tokenID"
        }
      },
      "mintERC1155(string,string,uint256)": {
        "details": "mint new tokens",
        "params": {
          "_amount": "amount of NFT",
          "_name": "name of NFT",
          "_symbol": "symbol of NFT"
        }
      },
      "mintERC20(address,uint256)": {
        "params": {
          "_address": "address to send the minted tokens",
          "_amount": "Amount of token to Mint"
        }
      },
      "setProjectBudget_ERC1155(string,uint256,uint256)": {
        "details": "Allocates token to the given projectId, Creates project and transfer tokens to Rahat contract.",
        "params": {
          "_projectCapital": "amount of ERC1155 token with _tokenId allocated to project",
          "_projectId": "Unique Id of Project",
          "tokenId": "ERC1155 token ID"
        }
      },
      "setProjectBudget_ERC20(string,uint256)": {
        "details": "Allocates token to the given projectId, Creates project and transfer tokens to Rahat contract.",
        "params": {
          "_projectCapital": "Budget Allocated to project",
          "_projectId": "Unique Id of Project"
        }
      },
      "supportsInterface(bytes4)": {
        "details": "See {IERC165-supportsInterface}."
      },
      "withdrawToken(uint256)": {
        "params": {
          "_amount": "Amount to withdraw token from this contract"
        }
      }
    },
    "title": "Rahat Admin contract - owns all the tokens initially minted",
    "version": 1
  },
  "userdoc": {
    "kind": "user",
    "methods": {
      "addOwner(address)": {
        "notice": "Add an account to the owner role. Restricted to owners."
      },
      "constructor": {
        "notice": "All the supply is allocated to this contract"
      },
      "createAndsetProjectBudget_ERC1155(string,string,string,uint256)": {
        "notice": "allocate ERC1155 tokens to projects"
      },
      "getProjecERC20Balance(string)": {
        "notice": "get the current balance of project"
      },
      "getProjectERC1155Balance(string,uint256)": {
        "notice": "get the current ERC1155 amount of given tokenId in the project"
      },
      "mintERC20(address,uint256)": {
        "notice": "mint new tokens"
      },
      "projectERC20Capital(bytes32)": {
        "notice": "assign budgets to project"
      },
      "projectExists(bytes32)": {
        "notice": "check if projectId exists or not;"
      },
      "projectId(uint256)": {
        "notice": "list of projects"
      },
      "setProjectBudget_ERC1155(string,uint256,uint256)": {
        "notice": "allocate ERC1155 tokens to projects"
      },
      "setProjectBudget_ERC20(string,uint256)": {
        "notice": "allocate token to projects"
      },
      "withdrawToken(uint256)": {
        "notice": "take out token from this contract"
      }
    },
    "notice": "You can use this contract to manage Rahat tokens and projects",
    "version": 1
  }
}