{
  "contractName": "RahatERC20",
  "abi": [
    {
      "inputs": [
        {
          "internalType": "string",
          "name": "_name",
          "type": "string"
        },
        {
          "internalType": "string",
          "name": "_symbol",
          "type": "string"
        },
        {
          "internalType": "address",
          "name": "_admin",
          "type": "address"
        }
      ],
      "stateMutability": "nonpayable",
      "type": "constructor"
    },
    {
      "anonymous": false,
      "inputs": [
        {
          "indexed": true,
          "internalType": "address",
          "name": "owner",
          "type": "address"
        },
        {
          "indexed": true,
          "internalType": "address",
          "name": "spender",
          "type": "address"
        },
        {
          "indexed": false,
          "internalType": "uint256",
          "name": "value",
          "type": "uint256"
        }
      ],
      "name": "Approval",
      "type": "event"
    },
    {
      "anonymous": false,
      "inputs": [
        {
          "indexed": false,
          "internalType": "uint256",
          "name": "id",
          "type": "uint256"
        }
      ],
      "name": "Snapshot",
      "type": "event"
    },
    {
      "anonymous": false,
      "inputs": [
        {
          "indexed": true,
          "internalType": "address",
          "name": "from",
          "type": "address"
        },
        {
          "indexed": true,
          "internalType": "address",
          "name": "to",
          "type": "address"
        },
        {
          "indexed": false,
          "internalType": "uint256",
          "name": "value",
          "type": "uint256"
        }
      ],
      "name": "Transfer",
      "type": "event"
    },
    {
      "inputs": [
        {
          "internalType": "address",
          "name": "owner",
          "type": "address"
        },
        {
          "internalType": "address",
          "name": "spender",
          "type": "address"
        }
      ],
      "name": "allowance",
      "outputs": [
        {
          "internalType": "uint256",
          "name": "",
          "type": "uint256"
        }
      ],
      "stateMutability": "view",
      "type": "function"
    },
    {
      "inputs": [
        {
          "internalType": "address",
          "name": "spender",
          "type": "address"
        },
        {
          "internalType": "uint256",
          "name": "amount",
          "type": "uint256"
        }
      ],
      "name": "approve",
      "outputs": [
        {
          "internalType": "bool",
          "name": "",
          "type": "bool"
        }
      ],
      "stateMutability": "nonpayable",
      "type": "function"
    },
    {
      "inputs": [
        {
          "internalType": "address",
          "name": "account",
          "type": "address"
        }
      ],
      "name": "balanceOf",
      "outputs": [
        {
          "internalType": "uint256",
          "name": "",
          "type": "uint256"
        }
      ],
      "stateMutability": "view",
      "type": "function"
    },
    {
      "inputs": [
        {
          "internalType": "address",
          "name": "account",
          "type": "address"
        },
        {
          "internalType": "uint256",
          "name": "snapshotId",
          "type": "uint256"
        }
      ],
      "name": "balanceOfAt",
      "outputs": [
        {
          "internalType": "uint256",
          "name": "",
          "type": "uint256"
        }
      ],
      "stateMutability": "view",
      "type": "function"
    },
    {
      "inputs": [
        {
          "internalType": "uint256",
          "name": "amount",
          "type": "uint256"
        }
      ],
      "name": "burn",
      "outputs": [],
      "stateMutability": "nonpayable",
      "type": "function"
    },
    {
      "inputs": [
        {
          "internalType": "address",
          "name": "account",
          "type": "address"
        },
        {
          "internalType": "uint256",
          "name": "amount",
          "type": "uint256"
        }
      ],
      "name": "burnFrom",
      "outputs": [],
      "stateMutability": "nonpayable",
      "type": "function"
    },
    {
      "inputs": [],
      "name": "decimals",
      "outputs": [
        {
          "internalType": "uint8",
          "name": "",
          "type": "uint8"
        }
      ],
      "stateMutability": "view",
      "type": "function"
    },
    {
      "inputs": [
        {
          "internalType": "address",
          "name": "spender",
          "type": "address"
        },
        {
          "internalType": "uint256",
          "name": "subtractedValue",
          "type": "uint256"
        }
      ],
      "name": "decreaseAllowance",
      "outputs": [
        {
          "internalType": "bool",
          "name": "",
          "type": "bool"
        }
      ],
      "stateMutability": "nonpayable",
      "type": "function"
    },
    {
      "inputs": [
        {
          "internalType": "address",
          "name": "spender",
          "type": "address"
        },
        {
          "internalType": "uint256",
          "name": "addedValue",
          "type": "uint256"
        }
      ],
      "name": "increaseAllowance",
      "outputs": [
        {
          "internalType": "bool",
          "name": "",
          "type": "bool"
        }
      ],
      "stateMutability": "nonpayable",
      "type": "function"
    },
    {
      "inputs": [
        {
          "internalType": "bytes[]",
          "name": "data",
          "type": "bytes[]"
        }
      ],
      "name": "multicall",
      "outputs": [
        {
          "internalType": "bytes[]",
          "name": "results",
          "type": "bytes[]"
        }
      ],
      "stateMutability": "nonpayable",
      "type": "function"
    },
    {
      "inputs": [],
      "name": "name",
      "outputs": [
        {
          "internalType": "string",
          "name": "",
          "type": "string"
        }
      ],
      "stateMutability": "view",
      "type": "function"
    },
    {
      "inputs": [
        {
          "internalType": "address",
          "name": "",
          "type": "address"
        }
      ],
      "name": "owner",
      "outputs": [
        {
          "internalType": "bool",
          "name": "",
          "type": "bool"
        }
      ],
      "stateMutability": "view",
      "type": "function"
    },
    {
      "inputs": [],
      "name": "symbol",
      "outputs": [
        {
          "internalType": "string",
          "name": "",
          "type": "string"
        }
      ],
      "stateMutability": "view",
      "type": "function"
    },
    {
      "inputs": [],
      "name": "totalSupply",
      "outputs": [
        {
          "internalType": "uint256",
          "name": "",
          "type": "uint256"
        }
      ],
      "stateMutability": "view",
      "type": "function"
    },
    {
      "inputs": [
        {
          "internalType": "uint256",
          "name": "snapshotId",
          "type": "uint256"
        }
      ],
      "name": "totalSupplyAt",
      "outputs": [
        {
          "internalType": "uint256",
          "name": "",
          "type": "uint256"
        }
      ],
      "stateMutability": "view",
      "type": "function"
    },
    {
      "inputs": [
        {
          "internalType": "address",
          "name": "recipient",
          "type": "address"
        },
        {
          "internalType": "uint256",
          "name": "amount",
          "type": "uint256"
        }
      ],
      "name": "transfer",
      "outputs": [
        {
          "internalType": "bool",
          "name": "",
          "type": "bool"
        }
      ],
      "stateMutability": "nonpayable",
      "type": "function"
    },
    {
      "inputs": [
        {
          "internalType": "address",
          "name": "sender",
          "type": "address"
        },
        {
          "internalType": "address",
          "name": "recipient",
          "type": "address"
        },
        {
          "internalType": "uint256",
          "name": "amount",
          "type": "uint256"
        }
      ],
      "name": "transferFrom",
      "outputs": [
        {
          "internalType": "bool",
          "name": "",
          "type": "bool"
        }
      ],
      "stateMutability": "nonpayable",
      "type": "function"
    },
    {
      "inputs": [
        {
          "internalType": "address",
          "name": "_address",
          "type": "address"
        },
        {
          "internalType": "uint256",
          "name": "_amount",
          "type": "uint256"
        }
      ],
      "name": "mintERC20",
      "outputs": [
        {
          "internalType": "uint256",
          "name": "",
          "type": "uint256"
        }
      ],
      "stateMutability": "nonpayable",
      "type": "function"
    },
    {
      "inputs": [
        {
          "internalType": "address",
          "name": "_account",
          "type": "address"
        }
      ],
      "name": "addOwner",
      "outputs": [],
      "stateMutability": "nonpayable",
      "type": "function"
    }
  ],
  "bytecode": "0x60806040523480156200001157600080fd5b5060405162001b0d38038062001b0d833981016040819052620000349162000491565b8251839083906200004d90600390602085019062000334565b5080516200006390600490602084019062000334565b5050336000818152600960205260408082208054600160ff1991821681179092556001600160a01b03871684529190922080549091169091179055620000ad9150612710620000b6565b505050620005d2565b6001600160a01b038216620001115760405162461bcd60e51b815260206004820152601f60248201527f45524332303a206d696e7420746f20746865207a65726f206164647265737300604482015260640160405180910390fd5b6200011f60008383620001ac565b80600260008282546200013391906200051e565b90915550506001600160a01b03821660009081526020819052604081208054839290620001629084906200051e565b90915550506040518181526001600160a01b038316906000907fddf252ad1be2c89b69c2b068fc378daa952ba7f163c4a11628f55a4df523b3ef9060200160405180910390a35050565b620001c4838383620001c960201b620007b31760201c565b505050565b620001e1838383620001c460201b6200059a1760201c565b6001600160a01b0383166200020557620001fb8262000230565b620001c462000268565b6001600160a01b0382166200021f57620001fb8362000230565b6200022a8362000230565b620001c4825b6001600160a01b038116600090815260056020908152604080832091839052909120546200026591906200027a565b6200027a565b50565b6200027860066200025f60025490565b565b600062000286620002c9565b9050806200029484620002e7565b1015620001c4578254600180820185556000858152602080822090930193909355938401805494850181558252902090910155565b6000620002e260086200033060201b620007fb1760201c565b905090565b8054600090620002f957506000919050565b815482906200030b9060019062000539565b815481106200031e576200031e620005a6565b90600052602060002001549050919050565b5490565b828054620003429062000553565b90600052602060002090601f016020900481019282620003665760008555620003b1565b82601f106200038157805160ff1916838001178555620003b1565b82800160010185558215620003b1579182015b82811115620003b157825182559160200191906001019062000394565b50620003bf929150620003c3565b5090565b5b80821115620003bf5760008155600101620003c4565b600082601f830112620003ec57600080fd5b81516001600160401b0380821115620004095762000409620005bc565b604051601f8301601f19908116603f01168101908282118183101715620004345762000434620005bc565b816040528381526020925086838588010111156200045157600080fd5b600091505b8382101562000475578582018301518183018401529082019062000456565b83821115620004875760008385830101525b9695505050505050565b600080600060608486031215620004a757600080fd5b83516001600160401b0380821115620004bf57600080fd5b620004cd87838801620003da565b94506020860151915080821115620004e457600080fd5b50620004f386828701620003da565b604086015190935090506001600160a01b03811681146200051357600080fd5b809150509250925092565b6000821982111562000534576200053462000590565b500190565b6000828210156200054e576200054e62000590565b500390565b600181811c908216806200056857607f821691505b602082108114156200058a57634e487b7160e01b600052602260045260246000fd5b50919050565b634e487b7160e01b600052601160045260246000fd5b634e487b7160e01b600052603260045260246000fd5b634e487b7160e01b600052604160045260246000fd5b61152b80620005e26000396000f3fe608060405234801561001057600080fd5b50600436106101015760003560e01c80637065cb481161009d5780637065cb48146101d957806370a08231146101ec57806379cc6790146101ff5780637c4ca9cc1461021257806395d89b4114610225578063981b24d01461022d578063a457c2d714610240578063a9059cbb14610253578063ac9650d814610266578063dd62ed3e1461028657600080fd5b806306fdde0314610106578063095ea7b31461012457806318160ddd1461014757806323b872dd14610159578063313ce5671461016c578063395093511461017b57806342966c681461018e5780634ee2cd7e146101a3578063666e1b39146101b6575b600080fd5b61010e6102bf565b60405161011b91906112fe565b60405180910390f35b61013761013236600461119c565b610351565b604051901515815260200161011b565b6002545b60405190815260200161011b565b610137610167366004611160565b610368565b6040516012815260200161011b565b61013761018936600461119c565b610419565b6101a161019c36600461123b565b610455565b005b61014b6101b136600461119c565b610462565b6101376101c4366004611112565b60096020526000908152604090205460ff1681565b6101a16101e7366004611112565b6104ab565b61014b6101fa366004611112565b6104fe565b6101a161020d36600461119c565b610519565b61014b61022036600461119c565b61059f565b61010e6105de565b61014b61023b36600461123b565b6105ed565b61013761024e36600461119c565b610618565b61013761026136600461119c565b6106b1565b6102796102743660046111c6565b6106be565b60405161011b919061129c565b61014b61029436600461112d565b6001600160a01b03918216600090815260016020908152604080832093909416825291909152205490565b6060600380546102ce9061141c565b80601f01602080910402602001604051908101604052809291908181526020018280546102fa9061141c565b80156103475780601f1061031c57610100808354040283529160200191610347565b820191906000526020600020905b81548152906001019060200180831161032a57829003601f168201915b5050505050905090565b600061035e3384846107ff565b5060015b92915050565b6000610375848484610923565b6001600160a01b0384166000908152600160209081526040808320338452909152902054828110156103ff5760405162461bcd60e51b815260206004820152602860248201527f45524332303a207472616e7366657220616d6f756e74206578636565647320616044820152676c6c6f77616e636560c01b60648201526084015b60405180910390fd5b61040c85338584036107ff565b60019150505b9392505050565b3360008181526001602090815260408083206001600160a01b0387168452909152812054909161035e91859061045090869061139f565b6107ff565b61045f3382610aec565b50565b6001600160a01b038216600090815260056020526040812081908190610489908590610c34565b91509150816104a05761049b856104fe565b6104a2565b805b95945050505050565b3260009081526009602052604090205460ff166104da5760405162461bcd60e51b81526004016103f690611311565b6001600160a01b03166000908152600960205260409020805460ff19166001179055565b6001600160a01b031660009081526020819052604090205490565b60006105258333610294565b9050818110156105835760405162461bcd60e51b8152602060048201526024808201527f45524332303a206275726e20616d6f756e74206578636565647320616c6c6f77604482015263616e636560e01b60648201526084016103f6565b61059083338484036107ff565b61059a8383610aec565b505050565b3260009081526009602052604081205460ff166105ce5760405162461bcd60e51b81526004016103f690611311565b6105d88383610d2b565b50919050565b6060600480546102ce9061141c565b60008060006105fd846006610c34565b915091508161060e57600254610610565b805b949350505050565b3360009081526001602090815260408083206001600160a01b03861684529091528120548281101561069a5760405162461bcd60e51b815260206004820152602560248201527f45524332303a2064656372656173656420616c6c6f77616e63652062656c6f77604482015264207a65726f60d81b60648201526084016103f6565b6106a733858584036107ff565b5060019392505050565b600061035e338484610923565b60608167ffffffffffffffff8111156106d9576106d9611498565b60405190808252806020026020018201604052801561070c57816020015b60608152602001906001900390816106f75790505b50905060005b828110156107ac5761077c3085858481811061073057610730611482565b90506020028101906107429190611358565b8080601f016020809104026020016040519081016040528093929190818152602001838380828437600092019190915250610e0492505050565b82828151811061078e5761078e611482565b602002602001018190525080806107a490611451565b915050610712565b5092915050565b6001600160a01b0383166107d2576107ca82610e29565b61059a610e53565b6001600160a01b0382166107e9576107ca83610e29565b6107f283610e29565b61059a82610e29565b5490565b6001600160a01b0383166108615760405162461bcd60e51b8152602060048201526024808201527f45524332303a20617070726f76652066726f6d20746865207a65726f206164646044820152637265737360e01b60648201526084016103f6565b6001600160a01b0382166108c25760405162461bcd60e51b815260206004820152602260248201527f45524332303a20617070726f766520746f20746865207a65726f206164647265604482015261737360f01b60648201526084016103f6565b6001600160a01b0383811660008181526001602090815260408083209487168084529482529182902085905590518481527f8c5be1e5ebec7d5bd14f71427d1e84f3dd0314c0f7b2291e5b200ac8c7c3b925910160405180910390a3505050565b6001600160a01b0383166109875760405162461bcd60e51b815260206004820152602560248201527f45524332303a207472616e736665722066726f6d20746865207a65726f206164604482015264647265737360d81b60648201526084016103f6565b6001600160a01b0382166109e95760405162461bcd60e51b815260206004820152602360248201527f45524332303a207472616e7366657220746f20746865207a65726f206164647260448201526265737360e81b60648201526084016103f6565b6109f4838383610e63565b6001600160a01b03831660009081526020819052604090205481811015610a6c5760405162461bcd60e51b815260206004820152602660248201527f45524332303a207472616e7366657220616d6f756e7420657863656564732062604482015265616c616e636560d01b60648201526084016103f6565b6001600160a01b03808516600090815260208190526040808220858503905591851681529081208054849290610aa390849061139f565b92505081905550826001600160a01b0316846001600160a01b03166000805160206114d683398151915284604051610add91815260200190565b60405180910390a35b50505050565b6001600160a01b038216610b4c5760405162461bcd60e51b815260206004820152602160248201527f45524332303a206275726e2066726f6d20746865207a65726f206164647265736044820152607360f81b60648201526084016103f6565b610b5882600083610e63565b6001600160a01b03821660009081526020819052604090205481811015610bcc5760405162461bcd60e51b815260206004820152602260248201527f45524332303a206275726e20616d6f756e7420657863656564732062616c616e604482015261636560f01b60648201526084016103f6565b6001600160a01b0383166000908152602081905260408120838303905560028054849290610bfb9084906113d9565b90915550506040518281526000906001600160a01b038516906000805160206114d68339815191529060200160405180910390a3505050565b60008060008411610c805760405162461bcd60e51b815260206004820152601660248201527504552433230536e617073686f743a20696420697320360541b60448201526064016103f6565b610c88610e6e565b841115610cd75760405162461bcd60e51b815260206004820152601d60248201527f4552433230536e617073686f743a206e6f6e6578697374656e7420696400000060448201526064016103f6565b6000610ce38486610e7e565b8454909150811415610cfc576000809250925050610d24565b6001846001018281548110610d1357610d13611482565b906000526020600020015492509250505b9250929050565b6001600160a01b038216610d815760405162461bcd60e51b815260206004820152601f60248201527f45524332303a206d696e7420746f20746865207a65726f20616464726573730060448201526064016103f6565b610d8d60008383610e63565b8060026000828254610d9f919061139f565b90915550506001600160a01b03821660009081526020819052604081208054839290610dcc90849061139f565b90915550506040518181526001600160a01b038316906000906000805160206114d68339815191529060200160405180910390a35050565b606061041283836040518060600160405280602781526020016114af60279139610f41565b6001600160a01b038116600090815260056020526040902061045f90610e4e836104fe565b611015565b610e616006610e4e60025490565b565b61059a8383836107b3565b6000610e7960085490565b905090565b8154600090610e8f57506000610362565b82546000905b80821015610eeb576000610ea9838361105f565b905084868281548110610ebe57610ebe611482565b90600052602060002001541115610ed757809150610ee5565b610ee281600161139f565b92505b50610e95565b600082118015610f2057508385610f036001856113d9565b81548110610f1357610f13611482565b9060005260206000200154145b15610f3957610f306001836113d9565b92505050610362565b509050610362565b6060833b610fa05760405162461bcd60e51b815260206004820152602660248201527f416464726573733a2064656c65676174652063616c6c20746f206e6f6e2d636f6044820152651b9d1c9858dd60d21b60648201526084016103f6565b600080856001600160a01b031685604051610fbb9190611280565b600060405180830381855af49150503d8060008114610ff6576040519150601f19603f3d011682016040523d82523d6000602084013e610ffb565b606091505b509150915061100b82828661107a565b9695505050505050565b600061101f610e6e565b90508061102b846110b3565b101561059a578254600180820185556000858152602080822090930193909355938401805494850181558252902090910155565b600061106e60028484186113b7565b6104129084841661139f565b60608315611089575081610412565b8251156110995782518084602001fd5b8160405162461bcd60e51b81526004016103f691906112fe565b80546000906110c457506000919050565b815482906110d4906001906113d9565b815481106110e4576110e4611482565b90600052602060002001549050919050565b919050565b80356001600160a01b03811681146110f657600080fd5b60006020828403121561112457600080fd5b610412826110fb565b6000806040838503121561114057600080fd5b611149836110fb565b9150611157602084016110fb565b90509250929050565b60008060006060848603121561117557600080fd5b61117e846110fb565b925061118c602085016110fb565b9150604084013590509250925092565b600080604083850312156111af57600080fd5b6111b8836110fb565b946020939093013593505050565b600080602083850312156111d957600080fd5b823567ffffffffffffffff808211156111f157600080fd5b818501915085601f83011261120557600080fd5b81358181111561121457600080fd5b8660208260051b850101111561122957600080fd5b60209290920196919550909350505050565b60006020828403121561124d57600080fd5b5035919050565b6000815180845261126c8160208601602086016113f0565b601f01601f19169290920160200192915050565b600082516112928184602087016113f0565b9190910192915050565b6000602080830181845280855180835260408601915060408160051b870101925083870160005b828110156112f157603f198886030184526112df858351611254565b945092850192908501906001016112c3565b5092979650505050505050565b6020815260006104126020830184611254565b60208082526027908201527f4f6e6c792041646d696e2063616e20657865637574652074686973207472616e60408201526639b0b1ba34b7b760c91b606082015260800190565b6000808335601e1984360301811261136f57600080fd5b83018035915067ffffffffffffffff82111561138a57600080fd5b602001915036819003821315610d2457600080fd5b600082198211156113b2576113b261146c565b500190565b6000826113d457634e487b7160e01b600052601260045260246000fd5b500490565b6000828210156113eb576113eb61146c565b500390565b60005b8381101561140b5781810151838201526020016113f3565b83811115610ae65750506000910152565b600181811c9082168061143057607f821691505b602082108114156105d857634e487b7160e01b600052602260045260246000fd5b60006000198214156114655761146561146c565b5060010190565b634e487b7160e01b600052601160045260246000fd5b634e487b7160e01b600052603260045260246000fd5b634e487b7160e01b600052604160045260246000fdfe416464726573733a206c6f772d6c6576656c2064656c65676174652063616c6c206661696c6564ddf252ad1be2c89b69c2b068fc378daa952ba7f163c4a11628f55a4df523b3efa2646970667358221220973c885c43ae2575e407c77d218a17d7aad221d88eb2b8ef43e9ee8bde3919da64736f6c63430008070033",
  "immutableReferences": {},
  "source": "//SPDX-License-Identifier: LGPL-3.0\r\npragma solidity 0.8.7;\r\n\r\n//ERC20 Tokens\r\nimport \"@openzeppelin/contracts/token/ERC20/extensions/ERC20Snapshot.sol\";\r\nimport \"@openzeppelin/contracts/token/ERC20/extensions/ERC20Burnable.sol\";\r\nimport \"@openzeppelin/contracts/utils/Multicall.sol\";\r\n\r\n//Utils\r\nimport \"@openzeppelin/contracts/access/AccessControl.sol\";\r\n\r\ncontract RahatERC20 is ERC20, ERC20Snapshot, ERC20Burnable, Multicall {\r\n  ///@dev owner of the ERC20 contract\r\n  mapping(address => bool) public owner;\r\n\r\n  modifier OnlyOwner {\r\n    require(owner[tx.origin], \"Only Admin can execute this transaction\");\r\n    _;\r\n  }\r\n\r\n  constructor(\r\n    string memory _name,\r\n    string memory _symbol,\r\n    address _admin\r\n  ) ERC20(_name, _symbol) {\r\n    owner[msg.sender] = true;\r\n    owner[_admin] = true;\r\n    _mint(msg.sender, 10000);\r\n  }\r\n\r\n  ///@dev Mint x amount of ERC20 token to given address\r\n  ///@param _address Address to which ERC20 token will be minted\r\n  ///@param _amount Amount of token to be minted\r\n  function mintERC20(address _address, uint256 _amount)\r\n    public\r\n    OnlyOwner\r\n    returns (uint256)\r\n  {\r\n    _mint(_address, _amount);\r\n    return _amount;\r\n  }\r\n\r\n  function _beforeTokenTransfer(\r\n    address from,\r\n    address to,\r\n    uint256 amount\r\n  ) internal override(ERC20, ERC20Snapshot) {\r\n    super._beforeTokenTransfer(from, to, amount);\r\n  }\r\n\r\n  function addOwner(address _account) public OnlyOwner {\r\n    owner[_account] = true;\r\n  }\r\n}\r\n",
  "sourcePath": "D:\\projects\\Rahat\\rahat-contracts\\contracts\\RahatERC20.sol",
  "compiler": {
    "name": "solc",
    "version": "0.8.7+commit.e28d00a7.Emscripten.clang"
  },
  "schemaVersion": "3.4.3",
  "updatedAt": "2022-06-27T02:07:40.139Z",
  "devdoc": {
    "kind": "dev",
    "methods": {
      "allowance(address,address)": {
        "details": "See {IERC20-allowance}."
      },
      "approve(address,uint256)": {
        "details": "See {IERC20-approve}. Requirements: - `spender` cannot be the zero address."
      },
      "balanceOf(address)": {
        "details": "See {IERC20-balanceOf}."
      },
      "balanceOfAt(address,uint256)": {
        "details": "Retrieves the balance of `account` at the time `snapshotId` was created."
      },
      "burn(uint256)": {
        "details": "Destroys `amount` tokens from the caller. See {ERC20-_burn}."
      },
      "burnFrom(address,uint256)": {
        "details": "Destroys `amount` tokens from `account`, deducting from the caller's allowance. See {ERC20-_burn} and {ERC20-allowance}. Requirements: - the caller must have allowance for ``accounts``'s tokens of at least `amount`."
      },
      "decimals()": {
        "details": "Returns the number of decimals used to get its user representation. For example, if `decimals` equals `2`, a balance of `505` tokens should be displayed to a user as `5.05` (`505 / 10 ** 2`). Tokens usually opt for a value of 18, imitating the relationship between Ether and Wei. This is the value {ERC20} uses, unless this function is overridden; NOTE: This information is only used for _display_ purposes: it in no way affects any of the arithmetic of the contract, including {IERC20-balanceOf} and {IERC20-transfer}."
      },
      "decreaseAllowance(address,uint256)": {
        "details": "Atomically decreases the allowance granted to `spender` by the caller. This is an alternative to {approve} that can be used as a mitigation for problems described in {IERC20-approve}. Emits an {Approval} event indicating the updated allowance. Requirements: - `spender` cannot be the zero address. - `spender` must have allowance for the caller of at least `subtractedValue`."
      },
      "increaseAllowance(address,uint256)": {
        "details": "Atomically increases the allowance granted to `spender` by the caller. This is an alternative to {approve} that can be used as a mitigation for problems described in {IERC20-approve}. Emits an {Approval} event indicating the updated allowance. Requirements: - `spender` cannot be the zero address."
      },
      "mintERC20(address,uint256)": {
        "details": "Mint x amount of ERC20 token to given address",
        "params": {
          "_address": "Address to which ERC20 token will be minted",
          "_amount": "Amount of token to be minted"
        }
      },
      "multicall(bytes[])": {
        "details": "Receives and executes a batch of function calls on this contract."
      },
      "name()": {
        "details": "Returns the name of the token."
      },
      "symbol()": {
        "details": "Returns the symbol of the token, usually a shorter version of the name."
      },
      "totalSupply()": {
        "details": "See {IERC20-totalSupply}."
      },
      "totalSupplyAt(uint256)": {
        "details": "Retrieves the total supply at the time `snapshotId` was created."
      },
      "transfer(address,uint256)": {
        "details": "See {IERC20-transfer}. Requirements: - `recipient` cannot be the zero address. - the caller must have a balance of at least `amount`."
      },
      "transferFrom(address,address,uint256)": {
        "details": "See {IERC20-transferFrom}. Emits an {Approval} event indicating the updated allowance. This is not required by the EIP. See the note at the beginning of {ERC20}. Requirements: - `sender` and `recipient` cannot be the zero address. - `sender` must have a balance of at least `amount`. - the caller must have allowance for ``sender``'s tokens of at least `amount`."
      }
    },
    "stateVariables": {
      "owner": {
        "details": "owner of the ERC20 contract"
      }
    },
    "version": 1
  },
  "userdoc": {
    "kind": "user",
    "methods": {},
    "version": 1
  }
}