{
  "contractName": "RahatERC1155",
  "abi": [
    {
      "inputs": [
        {
          "internalType": "address",
          "name": "_admin",
          "type": "address"
        }
      ],
      "stateMutability": "nonpayable",
      "type": "constructor"
    },
    {
      "anonymous": false,
      "inputs": [
        {
          "indexed": true,
          "internalType": "address",
          "name": "account",
          "type": "address"
        },
        {
          "indexed": true,
          "internalType": "address",
          "name": "operator",
          "type": "address"
        },
        {
          "indexed": false,
          "internalType": "bool",
          "name": "approved",
          "type": "bool"
        }
      ],
      "name": "ApprovalForAll",
      "type": "event"
    },
    {
      "anonymous": false,
      "inputs": [
        {
          "indexed": true,
          "internalType": "address",
          "name": "operator",
          "type": "address"
        },
        {
          "indexed": true,
          "internalType": "address",
          "name": "from",
          "type": "address"
        },
        {
          "indexed": true,
          "internalType": "address",
          "name": "to",
          "type": "address"
        },
        {
          "indexed": false,
          "internalType": "uint256[]",
          "name": "ids",
          "type": "uint256[]"
        },
        {
          "indexed": false,
          "internalType": "uint256[]",
          "name": "values",
          "type": "uint256[]"
        }
      ],
      "name": "TransferBatch",
      "type": "event"
    },
    {
      "anonymous": false,
      "inputs": [
        {
          "indexed": true,
          "internalType": "address",
          "name": "operator",
          "type": "address"
        },
        {
          "indexed": true,
          "internalType": "address",
          "name": "from",
          "type": "address"
        },
        {
          "indexed": true,
          "internalType": "address",
          "name": "to",
          "type": "address"
        },
        {
          "indexed": false,
          "internalType": "uint256",
          "name": "id",
          "type": "uint256"
        },
        {
          "indexed": false,
          "internalType": "uint256",
          "name": "value",
          "type": "uint256"
        }
      ],
      "name": "TransferSingle",
      "type": "event"
    },
    {
      "anonymous": false,
      "inputs": [
        {
          "indexed": false,
          "internalType": "string",
          "name": "value",
          "type": "string"
        },
        {
          "indexed": true,
          "internalType": "uint256",
          "name": "id",
          "type": "uint256"
        }
      ],
      "name": "URI",
      "type": "event"
    },
    {
      "inputs": [
        {
          "internalType": "address",
          "name": "account",
          "type": "address"
        },
        {
          "internalType": "uint256",
          "name": "id",
          "type": "uint256"
        }
      ],
      "name": "balanceOf",
      "outputs": [
        {
          "internalType": "uint256",
          "name": "",
          "type": "uint256"
        }
      ],
      "stateMutability": "view",
      "type": "function"
    },
    {
      "inputs": [
        {
          "internalType": "address[]",
          "name": "accounts",
          "type": "address[]"
        },
        {
          "internalType": "uint256[]",
          "name": "ids",
          "type": "uint256[]"
        }
      ],
      "name": "balanceOfBatch",
      "outputs": [
        {
          "internalType": "uint256[]",
          "name": "",
          "type": "uint256[]"
        }
      ],
      "stateMutability": "view",
      "type": "function"
    },
    {
      "inputs": [
        {
          "internalType": "address",
          "name": "account",
          "type": "address"
        },
        {
          "internalType": "uint256",
          "name": "id",
          "type": "uint256"
        },
        {
          "internalType": "uint256",
          "name": "value",
          "type": "uint256"
        }
      ],
      "name": "burn",
      "outputs": [],
      "stateMutability": "nonpayable",
      "type": "function"
    },
    {
      "inputs": [
        {
          "internalType": "address",
          "name": "account",
          "type": "address"
        },
        {
          "internalType": "uint256[]",
          "name": "ids",
          "type": "uint256[]"
        },
        {
          "internalType": "uint256[]",
          "name": "values",
          "type": "uint256[]"
        }
      ],
      "name": "burnBatch",
      "outputs": [],
      "stateMutability": "nonpayable",
      "type": "function"
    },
    {
      "inputs": [
        {
          "internalType": "address",
          "name": "account",
          "type": "address"
        },
        {
          "internalType": "address",
          "name": "operator",
          "type": "address"
        }
      ],
      "name": "isApprovedForAll",
      "outputs": [
        {
          "internalType": "bool",
          "name": "",
          "type": "bool"
        }
      ],
      "stateMutability": "view",
      "type": "function"
    },
    {
      "inputs": [
        {
          "internalType": "bytes[]",
          "name": "data",
          "type": "bytes[]"
        }
      ],
      "name": "multicall",
      "outputs": [
        {
          "internalType": "bytes[]",
          "name": "results",
          "type": "bytes[]"
        }
      ],
      "stateMutability": "nonpayable",
      "type": "function"
    },
    {
      "inputs": [
        {
          "internalType": "uint256",
          "name": "",
          "type": "uint256"
        }
      ],
      "name": "name",
      "outputs": [
        {
          "internalType": "string",
          "name": "",
          "type": "string"
        }
      ],
      "stateMutability": "view",
      "type": "function"
    },
    {
      "inputs": [
        {
          "internalType": "address",
          "name": "",
          "type": "address"
        }
      ],
      "name": "owner",
      "outputs": [
        {
          "internalType": "bool",
          "name": "",
          "type": "bool"
        }
      ],
      "stateMutability": "view",
      "type": "function"
    },
    {
      "inputs": [
        {
          "internalType": "address",
          "name": "from",
          "type": "address"
        },
        {
          "internalType": "address",
          "name": "to",
          "type": "address"
        },
        {
          "internalType": "uint256[]",
          "name": "ids",
          "type": "uint256[]"
        },
        {
          "internalType": "uint256[]",
          "name": "amounts",
          "type": "uint256[]"
        },
        {
          "internalType": "bytes",
          "name": "data",
          "type": "bytes"
        }
      ],
      "name": "safeBatchTransferFrom",
      "outputs": [],
      "stateMutability": "nonpayable",
      "type": "function"
    },
    {
      "inputs": [
        {
          "internalType": "address",
          "name": "from",
          "type": "address"
        },
        {
          "internalType": "address",
          "name": "to",
          "type": "address"
        },
        {
          "internalType": "uint256",
          "name": "id",
          "type": "uint256"
        },
        {
          "internalType": "uint256",
          "name": "amount",
          "type": "uint256"
        },
        {
          "internalType": "bytes",
          "name": "data",
          "type": "bytes"
        }
      ],
      "name": "safeTransferFrom",
      "outputs": [],
      "stateMutability": "nonpayable",
      "type": "function"
    },
    {
      "inputs": [
        {
          "internalType": "address",
          "name": "operator",
          "type": "address"
        },
        {
          "internalType": "bool",
          "name": "approved",
          "type": "bool"
        }
      ],
      "name": "setApprovalForAll",
      "outputs": [],
      "stateMutability": "nonpayable",
      "type": "function"
    },
    {
      "inputs": [
        {
          "internalType": "bytes4",
          "name": "interfaceId",
          "type": "bytes4"
        }
      ],
      "name": "supportsInterface",
      "outputs": [
        {
          "internalType": "bool",
          "name": "",
          "type": "bool"
        }
      ],
      "stateMutability": "view",
      "type": "function"
    },
    {
      "inputs": [
        {
          "internalType": "uint256",
          "name": "",
          "type": "uint256"
        }
      ],
      "name": "symbol",
      "outputs": [
        {
          "internalType": "string",
          "name": "",
          "type": "string"
        }
      ],
      "stateMutability": "view",
      "type": "function"
    },
    {
      "inputs": [
        {
          "internalType": "uint256",
          "name": "id",
          "type": "uint256"
        }
      ],
      "name": "totalSupply",
      "outputs": [
        {
          "internalType": "uint256",
          "name": "",
          "type": "uint256"
        }
      ],
      "stateMutability": "view",
      "type": "function"
    },
    {
      "inputs": [
        {
          "internalType": "uint256",
          "name": "",
          "type": "uint256"
        }
      ],
      "name": "uri",
      "outputs": [
        {
          "internalType": "string",
          "name": "",
          "type": "string"
        }
      ],
      "stateMutability": "view",
      "type": "function"
    },
    {
      "inputs": [
        {
          "internalType": "string",
          "name": "_name",
          "type": "string"
        },
        {
          "internalType": "string",
          "name": "_symbol",
          "type": "string"
        },
        {
          "internalType": "uint256",
          "name": "_amount",
          "type": "uint256"
        }
      ],
      "name": "mintERC1155",
      "outputs": [
        {
          "internalType": "uint256",
          "name": "",
          "type": "uint256"
        }
      ],
      "stateMutability": "nonpayable",
      "type": "function"
    },
    {
      "inputs": [
        {
          "internalType": "string",
          "name": "newuri",
          "type": "string"
        }
      ],
      "name": "setBaseURI",
      "outputs": [],
      "stateMutability": "nonpayable",
      "type": "function"
    },
    {
      "inputs": [
        {
          "internalType": "uint256",
          "name": "_id",
          "type": "uint256"
        }
      ],
      "name": "exists",
      "outputs": [
        {
          "internalType": "bool",
          "name": "",
          "type": "bool"
        }
      ],
      "stateMutability": "view",
      "type": "function"
    },
    {
      "inputs": [
        {
          "internalType": "uint256",
          "name": "_id",
          "type": "uint256"
        },
        {
          "internalType": "uint256",
          "name": "_amount",
          "type": "uint256"
        }
      ],
      "name": "mintExistingERC1155",
      "outputs": [],
      "stateMutability": "nonpayable",
      "type": "function"
    },
    {
      "inputs": [
        {
          "internalType": "uint256",
          "name": "_tokenId",
          "type": "uint256"
        }
      ],
      "name": "getTokenData",
      "outputs": [
        {
          "internalType": "string",
          "name": "",
          "type": "string"
        }
      ],
      "stateMutability": "view",
      "type": "function"
    },
    {
      "inputs": [
        {
          "internalType": "address",
          "name": "_account",
          "type": "address"
        }
      ],
      "name": "addOwner",
      "outputs": [],
      "stateMutability": "nonpayable",
      "type": "function"
    }
  ],
  "bytecode": "0x60806040523480156200001157600080fd5b50604051620027833803806200278383398101604081905262000034916200015b565b60408051808201909152601c81527f68747470733a2f2f697066732e72756d73616e2e636f6d2f6970667300000000602082015262000073816200009c565b506001600160a01b03166000908152600560205260409020805460ff19166001179055620001ca565b8051620000b1906002906020840190620000b5565b5050565b828054620000c3906200018d565b90600052602060002090601f016020900481019282620000e7576000855562000132565b82601f106200010257805160ff191683800117855562000132565b8280016001018555821562000132579182015b828111156200013257825182559160200191906001019062000115565b506200014092915062000144565b5090565b5b8082111562000140576000815560010162000145565b6000602082840312156200016e57600080fd5b81516001600160a01b03811681146200018657600080fd5b9392505050565b600181811c90821680620001a257607f821691505b60208210811415620001c457634e487b7160e01b600052602260045260246000fd5b50919050565b6125a980620001da6000396000f3fe608060405234801561001057600080fd5b50600436106101155760003560e01c80636b20c454116100a85780636b20c4541461022b5780637065cb481461023e5780638b4176c614610251578063a22cb46514610264578063ac9650d814610277578063b09afec114610297578063b78e7d9e146102aa578063bd85b039146102bd578063e985e9c5146102dd578063f242432a14610319578063f5298aca1461032c57600080fd5b8062ad800c1461011a578062fdd58e1461014357806301ffc9a7146101645780630e89341c146101875780632eb2c2d61461019a5780634e1273f4146101af5780634e41a1fb146101cf5780634f558e79146101e257806355f804b3146101f5578063666e1b3914610208575b600080fd5b61012d610128366004611e05565b61033f565b60405161013a9190612057565b60405180910390f35b610156610151366004611b8a565b6103d9565b60405190815260200161013a565b610177610172366004611d2b565b610470565b604051901515815260200161013a565b61012d610195366004611e05565b6104c2565b6101ad6101a83660046119ce565b610556565b005b6101c26101bd366004611be7565b6105ed565b60405161013a9190612016565b61012d6101dd366004611e05565b610716565b6101776101f0366004611e05565b61072f565b6101ad610203366004611d65565b610743565b610177610216366004611980565b60056020526000908152604090205460ff1681565b6101ad610239366004611adb565b61077e565b6101ad61024c366004611980565b6107c6565b61015661025f366004611d99565b610819565b6101ad610272366004611b4e565b61089e565b61028a610285366004611cb7565b6108ad565b60405161013a9190611fb4565b61012d6102a5366004611e05565b6109a1565b6101ad6102b8366004611e1e565b6109b5565b6101566102cb366004611e05565b60009081526003602052604090205490565b6101776102eb36600461199b565b6001600160a01b03918216600090815260016020908152604080832093909416825291909152205460ff1690565b6101ad610327366004611a77565b610a30565b6101ad61033a366004611bb4565b610a75565b6006602052600090815260409020805461035890612383565b80601f016020809104026020016040519081016040528092919081815260200182805461038490612383565b80156103d15780601f106103a6576101008083540402835291602001916103d1565b820191906000526020600020905b8154815290600101906020018083116103b457829003601f168201915b505050505081565b60006001600160a01b03831661044a5760405162461bcd60e51b815260206004820152602b60248201527f455243313135353a2062616c616e636520717565727920666f7220746865207a60448201526a65726f206164647265737360a81b60648201526084015b60405180910390fd5b506000908152602081815260408083206001600160a01b03949094168352929052205490565b60006001600160e01b03198216636cdb3d1360e11b14806104a157506001600160e01b031982166303a24d0760e21b145b806104bc57506301ffc9a760e01b6001600160e01b03198316145b92915050565b6060600280546104d190612383565b80601f01602080910402602001604051908101604052809291908181526020018280546104fd90612383565b801561054a5780601f1061051f5761010080835404028352916020019161054a565b820191906000526020600020905b81548152906001019060200180831161052d57829003601f168201915b50505050509050919050565b6001600160a01b038516331480610572575061057285336102eb565b6105d95760405162461bcd60e51b815260206004820152603260248201527f455243313135353a207472616e736665722063616c6c6572206973206e6f74206044820152711bdddb995c881b9bdc88185c1c1c9bdd995960721b6064820152608401610441565b6105e68585858585610ab8565b5050505050565b606081518351146106525760405162461bcd60e51b815260206004820152602960248201527f455243313135353a206163636f756e747320616e6420696473206c656e677468604482015268040dad2e6dac2e8c6d60bb1b6064820152608401610441565b600083516001600160401b0381111561066d5761066d61245b565b604051908082528060200260200182016040528015610696578160200160208202803683370190505b50905060005b845181101561070e576106e18582815181106106ba576106ba612445565b60200260200101518583815181106106d4576106d4612445565b60200260200101516103d9565b8282815181106106f3576106f3612445565b6020908102919091010152610707816123ea565b905061069c565b509392505050565b6007602052600090815260409020805461035890612383565b60008161073b60045490565b101592915050565b3260009081526005602052604090205460ff166107725760405162461bcd60e51b815260040161044190612184565b61077b81610c62565b50565b6001600160a01b03831633148061079a575061079a83336102eb565b6107b65760405162461bcd60e51b8152600401610441906120f6565b6107c1838383610c75565b505050565b3260009081526005602052604090205460ff166107f55760405162461bcd60e51b815260040161044190612184565b6001600160a01b03166000908152600560205260409020805460ff19166001179055565b6000610829600480546001019055565b600061083460045490565b600081815260066020908152604090912087519293506108589290918801906117e1565b5060008181526007602090815260409091208551610878928701906117e1565b5061089433828560405180602001604052806000815250610e03565b90505b9392505050565b6108a9338383610f01565b5050565b6060816001600160401b038111156108c7576108c761245b565b6040519080825280602002602001820160405280156108fa57816020015b60608152602001906001900390816108e55790505b50905060005b8281101561099a5761096a3085858481811061091e5761091e612445565b905060200281019061093091906122a0565b8080601f016020809104026020016040519081016040528093929190818152602001838380828437600092019190915250610fe292505050565b82828151811061097c5761097c612445565b60200260200101819052508080610992906123ea565b915050610900565b5092915050565b60606104bc6109af836104c2565b83611007565b6109be8261072f565b610a155760405162461bcd60e51b815260206004820152602260248201527f746f6b656e207769746820676976656e20696420646f65736e27742065786973604482015261747360f01b6064820152608401610441565b6108a933838360405180602001604052806000815250610e03565b6001600160a01b038516331480610a4c5750610a4c85336102eb565b610a685760405162461bcd60e51b8152600401610441906120f6565b6105e6858585858561103b565b6001600160a01b038316331480610a915750610a9183336102eb565b610aad5760405162461bcd60e51b8152600401610441906120f6565b6107c1838383611146565b8151835114610ad95760405162461bcd60e51b815260040161044190612258565b6001600160a01b038416610aff5760405162461bcd60e51b81526004016104419061213f565b33610b0e818787878787611235565b60005b8451811015610bf4576000858281518110610b2e57610b2e612445565b602002602001015190506000858381518110610b4c57610b4c612445565b602090810291909101810151600084815280835260408082206001600160a01b038e168352909352919091205490915081811015610b9c5760405162461bcd60e51b81526004016104419061220e565b6000838152602081815260408083206001600160a01b038e8116855292528083208585039055908b16825281208054849290610bd9908490612310565b9250508190555050505080610bed906123ea565b9050610b11565b50846001600160a01b0316866001600160a01b0316826001600160a01b03167f4a39dc06d4c0dbc64b70af90fd698a233a518aa5d07e595d983b8c0526c8f7fb8787604051610c44929190612029565b60405180910390a4610c5a818787878787611243565b505050505050565b80516108a99060029060208401906117e1565b6001600160a01b038316610c9b5760405162461bcd60e51b8152600401610441906121cb565b8051825114610cbc5760405162461bcd60e51b815260040161044190612258565b6000339050610cdf81856000868660405180602001604052806000815250611235565b60005b8351811015610da4576000848281518110610cff57610cff612445565b602002602001015190506000848381518110610d1d57610d1d612445565b602090810291909101810151600084815280835260408082206001600160a01b038c168352909352919091205490915081811015610d6d5760405162461bcd60e51b8152600401610441906120b2565b6000928352602083815260408085206001600160a01b038b1686529091529092209103905580610d9c816123ea565b915050610ce2565b5060006001600160a01b0316846001600160a01b0316826001600160a01b03167f4a39dc06d4c0dbc64b70af90fd698a233a518aa5d07e595d983b8c0526c8f7fb8686604051610df5929190612029565b60405180910390a450505050565b6001600160a01b038416610e635760405162461bcd60e51b815260206004820152602160248201527f455243313135353a206d696e7420746f20746865207a65726f206164647265736044820152607360f81b6064820152608401610441565b33610e8381600087610e74886113ae565b610e7d886113ae565b87611235565b6000848152602081815260408083206001600160a01b038916845290915281208054859290610eb3908490612310565b909155505060408051858152602081018590526001600160a01b03808816926000929185169160008051602061252d833981519152910160405180910390a46105e6816000878787876113f9565b816001600160a01b0316836001600160a01b03161415610f755760405162461bcd60e51b815260206004820152602960248201527f455243313135353a2073657474696e6720617070726f76616c20737461747573604482015268103337b91039b2b63360b91b6064820152608401610441565b6001600160a01b03838116600081815260016020908152604080832094871680845294825291829020805460ff191686151590811790915591519182527f17307eab39ab6107e8899845ad3d59bd9653f200f220920489ca2b5937696c31910160405180910390a3505050565b6060610897838360405180606001604052806027815260200161254d602791396114c3565b60608261101383611597565b604051602001611024929190611ec3565b604051602081830303815290604052905092915050565b6001600160a01b0384166110615760405162461bcd60e51b81526004016104419061213f565b33611071818787610e74886113ae565b6000848152602081815260408083206001600160a01b038a168452909152902054838110156110b25760405162461bcd60e51b81526004016104419061220e565b6000858152602081815260408083206001600160a01b038b81168552925280832087850390559088168252812080548692906110ef908490612310565b909155505060408051868152602081018690526001600160a01b03808916928a8216929186169160008051602061252d833981519152910160405180910390a461113d8288888888886113f9565b50505050505050565b6001600160a01b03831661116c5760405162461bcd60e51b8152600401610441906121cb565b3361119b8185600061117d876113ae565b611186876113ae565b60405180602001604052806000815250611235565b6000838152602081815260408083206001600160a01b0388168452909152902054828110156111dc5760405162461bcd60e51b8152600401610441906120b2565b6000848152602081815260408083206001600160a01b038981168086529184528285208887039055825189815293840188905290929086169160008051602061252d833981519152910160405180910390a45050505050565b610c5a86868686868661169c565b6001600160a01b0384163b15610c5a5760405163bc197c8160e01b81526001600160a01b0385169063bc197c81906112879089908990889088908890600401611f11565b602060405180830381600087803b1580156112a157600080fd5b505af19250505080156112d1575060408051601f3d908101601f191682019092526112ce91810190611d48565b60015b61137e576112dd612471565b806308c379a0141561131757506112f261248d565b806112fd5750611319565b8060405162461bcd60e51b81526004016104419190612057565b505b60405162461bcd60e51b815260206004820152603460248201527f455243313135353a207472616e7366657220746f206e6f6e20455243313135356044820152732932b1b2b4bb32b91034b6b83632b6b2b73a32b960611b6064820152608401610441565b6001600160e01b0319811663bc197c8160e01b1461113d5760405162461bcd60e51b81526004016104419061206a565b604080516001808252818301909252606091600091906020808301908036833701905050905082816000815181106113e8576113e8612445565b602090810291909101015292915050565b6001600160a01b0384163b15610c5a5760405163f23a6e6160e01b81526001600160a01b0385169063f23a6e619061143d9089908990889088908890600401611f6f565b602060405180830381600087803b15801561145757600080fd5b505af1925050508015611487575060408051601f3d908101601f1916820190925261148491810190611d48565b60015b611493576112dd612471565b6001600160e01b0319811663f23a6e6160e01b1461113d5760405162461bcd60e51b81526004016104419061206a565b6060833b6115225760405162461bcd60e51b815260206004820152602660248201527f416464726573733a2064656c65676174652063616c6c20746f206e6f6e2d636f6044820152651b9d1c9858dd60d21b6064820152608401610441565b600080856001600160a01b03168560405161153d9190611ea7565b600060405180830381855af49150503d8060008114611578576040519150601f19603f3d011682016040523d82523d6000602084013e61157d565b606091505b509150915061158d8282866117a8565b9695505050505050565b6060816115bb5750506040805180820190915260018152600360fc1b602082015290565b8160005b81156115e557806115cf816123ea565b91506115de9050600a83612328565b91506115bf565b6000816001600160401b038111156115ff576115ff61245b565b6040519080825280601f01601f191660200182016040528015611629576020820181803683370190505b5090505b84156116945761163e60018361233c565b915061164b600a86612405565b611656906030612310565b60f81b81838151811061166b5761166b612445565b60200101906001600160f81b031916908160001a90535061168d600a86612328565b945061162d565b949350505050565b6001600160a01b0385166117235760005b8351811015611721578281815181106116c8576116c8612445565b6020026020010151600360008684815181106116e6576116e6612445565b60200260200101518152602001908152602001600020600082825461170b9190612310565b9091555061171a9050816123ea565b90506116ad565b505b6001600160a01b038416610c5a5760005b835181101561113d5782818151811061174f5761174f612445565b60200260200101516003600086848151811061176d5761176d612445565b602002602001015181526020019081526020016000206000828254611792919061233c565b909155506117a19050816123ea565b9050611734565b606083156117b7575081610897565b8251156117c75782518084602001fd5b8160405162461bcd60e51b81526004016104419190612057565b8280546117ed90612383565b90600052602060002090601f01602090048101928261180f5760008555611855565b82601f1061182857805160ff1916838001178555611855565b82800160010185558215611855579182015b8281111561185557825182559160200191906001019061183a565b50611861929150611865565b5090565b5b808211156118615760008155600101611866565b80356001600160a01b038116811461189157600080fd5b919050565b600082601f8301126118a757600080fd5b813560206118b4826122ed565b6040516118c182826123be565b8381528281019150858301600585901b870184018810156118e157600080fd5b60005b85811015611900578135845292840192908401906001016118e4565b5090979650505050505050565b600082601f83011261191e57600080fd5b81356001600160401b038111156119375761193761245b565b60405161194e601f8301601f1916602001826123be565b81815284602083860101111561196357600080fd5b816020850160208301376000918101602001919091529392505050565b60006020828403121561199257600080fd5b6108978261187a565b600080604083850312156119ae57600080fd5b6119b78361187a565b91506119c56020840161187a565b90509250929050565b600080600080600060a086880312156119e657600080fd5b6119ef8661187a565b94506119fd6020870161187a565b935060408601356001600160401b0380821115611a1957600080fd5b611a2589838a01611896565b94506060880135915080821115611a3b57600080fd5b611a4789838a01611896565b93506080880135915080821115611a5d57600080fd5b50611a6a8882890161190d565b9150509295509295909350565b600080600080600060a08688031215611a8f57600080fd5b611a988661187a565b9450611aa66020870161187a565b9350604086013592506060860135915060808601356001600160401b03811115611acf57600080fd5b611a6a8882890161190d565b600080600060608486031215611af057600080fd5b611af98461187a565b925060208401356001600160401b0380821115611b1557600080fd5b611b2187838801611896565b93506040860135915080821115611b3757600080fd5b50611b4486828701611896565b9150509250925092565b60008060408385031215611b6157600080fd5b611b6a8361187a565b915060208301358015158114611b7f57600080fd5b809150509250929050565b60008060408385031215611b9d57600080fd5b611ba68361187a565b946020939093013593505050565b600080600060608486031215611bc957600080fd5b611bd28461187a565b95602085013595506040909401359392505050565b60008060408385031215611bfa57600080fd5b82356001600160401b0380821115611c1157600080fd5b818501915085601f830112611c2557600080fd5b81356020611c32826122ed565b604051611c3f82826123be565b8381528281019150858301600585901b870184018b1015611c5f57600080fd5b600096505b84871015611c8957611c758161187a565b835260019690960195918301918301611c64565b5096505086013592505080821115611ca057600080fd5b50611cad85828601611896565b9150509250929050565b60008060208385031215611cca57600080fd5b82356001600160401b0380821115611ce157600080fd5b818501915085601f830112611cf557600080fd5b813581811115611d0457600080fd5b8660208260051b8501011115611d1957600080fd5b60209290920196919550909350505050565b600060208284031215611d3d57600080fd5b813561089781612516565b600060208284031215611d5a57600080fd5b815161089781612516565b600060208284031215611d7757600080fd5b81356001600160401b03811115611d8d57600080fd5b6116948482850161190d565b600080600060608486031215611dae57600080fd5b83356001600160401b0380821115611dc557600080fd5b611dd18783880161190d565b94506020860135915080821115611de757600080fd5b50611df48682870161190d565b925050604084013590509250925092565b600060208284031215611e1757600080fd5b5035919050565b60008060408385031215611e3157600080fd5b50508035926020909101359150565b600081518084526020808501945080840160005b83811015611e7057815187529582019590820190600101611e54565b509495945050505050565b60008151808452611e93816020860160208601612353565b601f01601f19169290920160200192915050565b60008251611eb9818460208701612353565b9190910192915050565b60008351611ed5818460208801612353565b602f60f81b9083019081528351611ef3816001840160208801612353565b64173539b7b760d91b60019290910191820152600601949350505050565b6001600160a01b0386811682528516602082015260a060408201819052600090611f3d90830186611e40565b8281036060840152611f4f8186611e40565b90508281036080840152611f638185611e7b565b98975050505050505050565b6001600160a01b03868116825285166020820152604081018490526060810183905260a060808201819052600090611fa990830184611e7b565b979650505050505050565b6000602080830181845280855180835260408601915060408160051b870101925083870160005b8281101561200957603f19888603018452611ff7858351611e7b565b94509285019290850190600101611fdb565b5092979650505050505050565b6020815260006108976020830184611e40565b60408152600061203c6040830185611e40565b828103602084015261204e8185611e40565b95945050505050565b6020815260006108976020830184611e7b565b60208082526028908201527f455243313135353a204552433131353552656365697665722072656a656374656040820152676420746f6b656e7360c01b606082015260800190565b60208082526024908201527f455243313135353a206275726e20616d6f756e7420657863656564732062616c604082015263616e636560e01b606082015260800190565b60208082526029908201527f455243313135353a2063616c6c6572206973206e6f74206f776e6572206e6f7260408201526808185c1c1c9bdd995960ba1b606082015260800190565b60208082526025908201527f455243313135353a207472616e7366657220746f20746865207a65726f206164604082015264647265737360d81b606082015260800190565b60208082526027908201527f4f6e6c792041646d696e2063616e20657865637574652074686973207472616e60408201526639b0b1ba34b7b760c91b606082015260800190565b60208082526023908201527f455243313135353a206275726e2066726f6d20746865207a65726f206164647260408201526265737360e81b606082015260800190565b6020808252602a908201527f455243313135353a20696e73756666696369656e742062616c616e636520666f60408201526939103a3930b739b332b960b11b606082015260800190565b60208082526028908201527f455243313135353a2069647320616e6420616d6f756e7473206c656e677468206040820152670dad2e6dac2e8c6d60c31b606082015260800190565b6000808335601e198436030181126122b757600080fd5b8301803591506001600160401b038211156122d157600080fd5b6020019150368190038213156122e657600080fd5b9250929050565b60006001600160401b038211156123065761230661245b565b5060051b60200190565b6000821982111561232357612323612419565b500190565b6000826123375761233761242f565b500490565b60008282101561234e5761234e612419565b500390565b60005b8381101561236e578181015183820152602001612356565b8381111561237d576000848401525b50505050565b600181811c9082168061239757607f821691505b602082108114156123b857634e487b7160e01b600052602260045260246000fd5b50919050565b601f8201601f191681016001600160401b03811182821017156123e3576123e361245b565b6040525050565b60006000198214156123fe576123fe612419565b5060010190565b6000826124145761241461242f565b500690565b634e487b7160e01b600052601160045260246000fd5b634e487b7160e01b600052601260045260246000fd5b634e487b7160e01b600052603260045260246000fd5b634e487b7160e01b600052604160045260246000fd5b600060033d111561248a5760046000803e5060005160e01c5b90565b600060443d101561249b5790565b6040516003193d81016004833e81513d6001600160401b0381602484011181841117156124ca57505050505090565b82850191508151818111156124e25750505050505090565b843d87010160208285010111156124fc5750505050505090565b61250b602082860101876123be565b509095945050505050565b6001600160e01b03198116811461077b57600080fdfec3d58168c5ae7397731d063d5bbf3d657854427343f4c083240f7aacaa2d0f62416464726573733a206c6f772d6c6576656c2064656c65676174652063616c6c206661696c6564a264697066735822122022c7997f42cb9ba2a29be80714a547a6512b794b7b1f7a2cdd1ca0caef254bbf64736f6c63430008070033",
  "immutableReferences": {},
  "source": "//SPDX-License-Identifier: LGPL-3.0\r\npragma solidity 0.8.7;\r\n\r\n//ERC1155 Tokens\r\nimport \"@openzeppelin/contracts/token/ERC1155/ERC1155.sol\";\r\nimport \"@openzeppelin/contracts/token/ERC1155/extensions/ERC1155Supply.sol\";\r\nimport \"@openzeppelin/contracts/token/ERC1155/extensions/ERC1155Burnable.sol\";\r\n\r\n//Utils\r\nimport \"@openzeppelin/contracts/utils/Counters.sol\";\r\nimport \"@openzeppelin/contracts/access/AccessControl.sol\";\r\nimport \"@openzeppelin/contracts/utils/Strings.sol\";\r\nimport \"@openzeppelin/contracts/utils/Multicall.sol\";\r\n\r\ncontract RahatERC1155 is ERC1155, ERC1155Supply, ERC1155Burnable, Multicall {\r\n  using Counters for Counters.Counter;\r\n  using Strings for uint256;\r\n\r\n  Counters.Counter private _itemIds; // tracks the token ids\r\n\r\n  mapping(address => bool) public owner;\r\n  mapping(uint256 => string) public name;\r\n  mapping(uint256 => string) public symbol;\r\n\r\n  modifier OnlyOwner {\r\n    require(owner[tx.origin], \"Only Admin can execute this transaction\");\r\n    _;\r\n  }\r\n\r\n  constructor(address _admin) ERC1155(\"https://ipfs.rumsan.com/ipfs\") {\r\n    owner[_admin] = true;\r\n  }\r\n\r\n  ///@dev Mint New NFT to the caller\r\n  ///@param _name name of NFT\r\n  ///@param _symbol symbol of NFT\r\n  ///@param _amount amount of NFT\r\n  function mintERC1155(\r\n    string memory _name,\r\n    string memory _symbol,\r\n    uint256 _amount\r\n  ) public returns (uint256) {\r\n    _itemIds.increment();\r\n    uint256 newItemId = _itemIds.current();\r\n    name[newItemId] = _name;\r\n    symbol[newItemId] = _symbol;\r\n    _mint(msg.sender, newItemId, _amount, \"\");\r\n\r\n    return newItemId;\r\n  }\r\n\r\n  ///@dev set the baseURI of NFT\r\n  ///@param newuri base URI(eg: https://ipfs.io/ipfs)\r\n  function setBaseURI(string memory newuri) public OnlyOwner {\r\n    _setURI(newuri);\r\n  }\r\n\r\n  ///@dev check if the given tokenId exists\r\n  ///@param _id ERC1155 tokenId\r\n  function exists(uint256 _id) public view override returns (bool) {\r\n    return (_itemIds.current() >= _id);\r\n  }\r\n\r\n  ///@dev mint ERC1155 token of given tokenId\r\n  ///@param _id ERC1155 tokenid\r\n  ///@param _amount amount of ERC1155 token to be minted\r\n  function mintExistingERC1155(uint256 _id, uint256 _amount) public {\r\n    require(exists(_id), \"token with given id doesn't exists\");\r\n    _mint(msg.sender, _id, _amount, \"\");\r\n  }\r\n\r\n  ///@dev Get the token URI of given tokenId\r\n  ///@param _tokenId ERC1155 tokenId\r\n  function getTokenData(uint256 _tokenId) public view returns (string memory) {\r\n    return _toFullURI(uri(_tokenId), _tokenId);\r\n  }\r\n\r\n  function _toFullURI(string memory _baseUri, uint256 _tokenId)\r\n    internal\r\n    pure\r\n    returns (string memory)\r\n  {\r\n    return\r\n      string(abi.encodePacked(_baseUri, \"/\", _tokenId.toString(), \".json\"));\r\n  }\r\n\r\n  function addOwner(address _account) public OnlyOwner {\r\n    owner[_account] = true;\r\n  }\r\n\r\n  function _beforeTokenTransfer(\r\n    address operator,\r\n    address from,\r\n    address to,\r\n    uint256[] memory ids,\r\n    uint256[] memory amounts,\r\n    bytes memory data\r\n  ) internal override(ERC1155, ERC1155Supply) {\r\n    super._beforeTokenTransfer(operator, from, to, ids, amounts, data);\r\n  }\r\n\r\n  //RESOLVE REMIX ISSUES\r\n  // function _mint(address account, uint256 id, uint256 amount, bytes memory data)\r\n  //     internal\r\n  //     override(ERC1155, ERC1155Supply)\r\n  // {\r\n  //     super._mint(account,id,amount,data);\r\n  // }\r\n  // function _mintBatch(address account, uint256[] memory ids, uint256[] memory amounts, bytes memory data)\r\n  //     internal\r\n  //     override(ERC1155, ERC1155Supply)\r\n  // {\r\n  //     super._mintBatch(account,ids,amounts,data);\r\n  // }\r\n  // function _burn(address account, uint256 id, uint256 amount)\r\n  //     internal\r\n  //     override(ERC1155, ERC1155Supply)\r\n  // {\r\n  //     super._burn(account,id,amount);\r\n  // }\r\n  // function _burnBatch(address account, uint256[] memory ids, uint256[] memory amounts)\r\n  //     internal\r\n  //     override(ERC1155, ERC1155Supply)\r\n  // {\r\n  //     super._burnBatch(account,ids,amounts);\r\n  // }\r\n}\r\n",
  "sourcePath": "D:\\projects\\Rahat\\rahat-contracts\\contracts\\RahatERC1155.sol",
  "compiler": {
    "name": "solc",
    "version": "0.8.7+commit.e28d00a7.Emscripten.clang"
  },
  "schemaVersion": "3.4.3",
  "updatedAt": "2022-06-27T02:07:40.123Z",
  "devdoc": {
    "kind": "dev",
    "methods": {
      "balanceOf(address,uint256)": {
        "details": "See {IERC1155-balanceOf}. Requirements: - `account` cannot be the zero address."
      },
      "balanceOfBatch(address[],uint256[])": {
        "details": "See {IERC1155-balanceOfBatch}. Requirements: - `accounts` and `ids` must have the same length."
      },
      "exists(uint256)": {
        "details": "check if the given tokenId exists",
        "params": {
          "_id": "ERC1155 tokenId"
        }
      },
      "getTokenData(uint256)": {
        "details": "Get the token URI of given tokenId",
        "params": {
          "_tokenId": "ERC1155 tokenId"
        }
      },
      "isApprovedForAll(address,address)": {
        "details": "See {IERC1155-isApprovedForAll}."
      },
      "mintERC1155(string,string,uint256)": {
        "details": "Mint New NFT to the caller",
        "params": {
          "_amount": "amount of NFT",
          "_name": "name of NFT",
          "_symbol": "symbol of NFT"
        }
      },
      "mintExistingERC1155(uint256,uint256)": {
        "details": "mint ERC1155 token of given tokenId",
        "params": {
          "_amount": "amount of ERC1155 token to be minted",
          "_id": "ERC1155 tokenid"
        }
      },
      "multicall(bytes[])": {
        "details": "Receives and executes a batch of function calls on this contract."
      },
      "safeBatchTransferFrom(address,address,uint256[],uint256[],bytes)": {
        "details": "See {IERC1155-safeBatchTransferFrom}."
      },
      "safeTransferFrom(address,address,uint256,uint256,bytes)": {
        "details": "See {IERC1155-safeTransferFrom}."
      },
      "setApprovalForAll(address,bool)": {
        "details": "See {IERC1155-setApprovalForAll}."
      },
      "setBaseURI(string)": {
        "details": "set the baseURI of NFT",
        "params": {
          "newuri": "base URI(eg: https://ipfs.io/ipfs)"
        }
      },
      "supportsInterface(bytes4)": {
        "details": "See {IERC165-supportsInterface}."
      },
      "totalSupply(uint256)": {
        "details": "Total amount of tokens in with a given id."
      },
      "uri(uint256)": {
        "details": "See {IERC1155MetadataURI-uri}. This implementation returns the same URI for *all* token types. It relies on the token type ID substitution mechanism https://eips.ethereum.org/EIPS/eip-1155#metadata[defined in the EIP]. Clients calling this function must replace the `\\{id\\}` substring with the actual token type ID."
      }
    },
    "version": 1
  },
  "userdoc": {
    "kind": "user",
    "methods": {},
    "version": 1
  }
}