{
  "contractName": "RahatERC20",
  "abi": [
    {
      "inputs": [
        {
          "internalType": "string",
          "name": "_name",
          "type": "string"
        },
        {
          "internalType": "string",
          "name": "_symbol",
          "type": "string"
        },
        {
          "internalType": "address",
          "name": "_admin",
          "type": "address"
        }
      ],
      "stateMutability": "nonpayable",
      "type": "constructor"
    },
    {
      "anonymous": false,
      "inputs": [
        {
          "indexed": true,
          "internalType": "address",
          "name": "owner",
          "type": "address"
        },
        {
          "indexed": true,
          "internalType": "address",
          "name": "spender",
          "type": "address"
        },
        {
          "indexed": false,
          "internalType": "uint256",
          "name": "value",
          "type": "uint256"
        }
      ],
      "name": "Approval",
      "type": "event"
    },
    {
      "anonymous": false,
      "inputs": [
        {
          "indexed": false,
          "internalType": "uint256",
          "name": "id",
          "type": "uint256"
        }
      ],
      "name": "Snapshot",
      "type": "event"
    },
    {
      "anonymous": false,
      "inputs": [
        {
          "indexed": true,
          "internalType": "address",
          "name": "from",
          "type": "address"
        },
        {
          "indexed": true,
          "internalType": "address",
          "name": "to",
          "type": "address"
        },
        {
          "indexed": false,
          "internalType": "uint256",
          "name": "value",
          "type": "uint256"
        }
      ],
      "name": "Transfer",
      "type": "event"
    },
    {
      "inputs": [
        {
          "internalType": "address",
          "name": "owner",
          "type": "address"
        },
        {
          "internalType": "address",
          "name": "spender",
          "type": "address"
        }
      ],
      "name": "allowance",
      "outputs": [
        {
          "internalType": "uint256",
          "name": "",
          "type": "uint256"
        }
      ],
      "stateMutability": "view",
      "type": "function"
    },
    {
      "inputs": [
        {
          "internalType": "address",
          "name": "spender",
          "type": "address"
        },
        {
          "internalType": "uint256",
          "name": "amount",
          "type": "uint256"
        }
      ],
      "name": "approve",
      "outputs": [
        {
          "internalType": "bool",
          "name": "",
          "type": "bool"
        }
      ],
      "stateMutability": "nonpayable",
      "type": "function"
    },
    {
      "inputs": [
        {
          "internalType": "address",
          "name": "account",
          "type": "address"
        }
      ],
      "name": "balanceOf",
      "outputs": [
        {
          "internalType": "uint256",
          "name": "",
          "type": "uint256"
        }
      ],
      "stateMutability": "view",
      "type": "function"
    },
    {
      "inputs": [
        {
          "internalType": "address",
          "name": "account",
          "type": "address"
        },
        {
          "internalType": "uint256",
          "name": "snapshotId",
          "type": "uint256"
        }
      ],
      "name": "balanceOfAt",
      "outputs": [
        {
          "internalType": "uint256",
          "name": "",
          "type": "uint256"
        }
      ],
      "stateMutability": "view",
      "type": "function"
    },
    {
      "inputs": [
        {
          "internalType": "uint256",
          "name": "amount",
          "type": "uint256"
        }
      ],
      "name": "burn",
      "outputs": [],
      "stateMutability": "nonpayable",
      "type": "function"
    },
    {
      "inputs": [
        {
          "internalType": "address",
          "name": "account",
          "type": "address"
        },
        {
          "internalType": "uint256",
          "name": "amount",
          "type": "uint256"
        }
      ],
      "name": "burnFrom",
      "outputs": [],
      "stateMutability": "nonpayable",
      "type": "function"
    },
    {
      "inputs": [],
      "name": "decimals",
      "outputs": [
        {
          "internalType": "uint8",
          "name": "",
          "type": "uint8"
        }
      ],
      "stateMutability": "view",
      "type": "function"
    },
    {
      "inputs": [
        {
          "internalType": "address",
          "name": "spender",
          "type": "address"
        },
        {
          "internalType": "uint256",
          "name": "subtractedValue",
          "type": "uint256"
        }
      ],
      "name": "decreaseAllowance",
      "outputs": [
        {
          "internalType": "bool",
          "name": "",
          "type": "bool"
        }
      ],
      "stateMutability": "nonpayable",
      "type": "function"
    },
    {
      "inputs": [
        {
          "internalType": "address",
          "name": "spender",
          "type": "address"
        },
        {
          "internalType": "uint256",
          "name": "addedValue",
          "type": "uint256"
        }
      ],
      "name": "increaseAllowance",
      "outputs": [
        {
          "internalType": "bool",
          "name": "",
          "type": "bool"
        }
      ],
      "stateMutability": "nonpayable",
      "type": "function"
    },
    {
      "inputs": [],
      "name": "name",
      "outputs": [
        {
          "internalType": "string",
          "name": "",
          "type": "string"
        }
      ],
      "stateMutability": "view",
      "type": "function"
    },
    {
      "inputs": [
        {
          "internalType": "address",
          "name": "",
          "type": "address"
        }
      ],
      "name": "owner",
      "outputs": [
        {
          "internalType": "bool",
          "name": "",
          "type": "bool"
        }
      ],
      "stateMutability": "view",
      "type": "function"
    },
    {
      "inputs": [],
      "name": "symbol",
      "outputs": [
        {
          "internalType": "string",
          "name": "",
          "type": "string"
        }
      ],
      "stateMutability": "view",
      "type": "function"
    },
    {
      "inputs": [],
      "name": "totalSupply",
      "outputs": [
        {
          "internalType": "uint256",
          "name": "",
          "type": "uint256"
        }
      ],
      "stateMutability": "view",
      "type": "function"
    },
    {
      "inputs": [
        {
          "internalType": "uint256",
          "name": "snapshotId",
          "type": "uint256"
        }
      ],
      "name": "totalSupplyAt",
      "outputs": [
        {
          "internalType": "uint256",
          "name": "",
          "type": "uint256"
        }
      ],
      "stateMutability": "view",
      "type": "function"
    },
    {
      "inputs": [
        {
          "internalType": "address",
          "name": "recipient",
          "type": "address"
        },
        {
          "internalType": "uint256",
          "name": "amount",
          "type": "uint256"
        }
      ],
      "name": "transfer",
      "outputs": [
        {
          "internalType": "bool",
          "name": "",
          "type": "bool"
        }
      ],
      "stateMutability": "nonpayable",
      "type": "function"
    },
    {
      "inputs": [
        {
          "internalType": "address",
          "name": "sender",
          "type": "address"
        },
        {
          "internalType": "address",
          "name": "recipient",
          "type": "address"
        },
        {
          "internalType": "uint256",
          "name": "amount",
          "type": "uint256"
        }
      ],
      "name": "transferFrom",
      "outputs": [
        {
          "internalType": "bool",
          "name": "",
          "type": "bool"
        }
      ],
      "stateMutability": "nonpayable",
      "type": "function"
    },
    {
      "inputs": [
        {
          "internalType": "address",
          "name": "_address",
          "type": "address"
        },
        {
          "internalType": "uint256",
          "name": "_amount",
          "type": "uint256"
        }
      ],
      "name": "mintERC20",
      "outputs": [
        {
          "internalType": "uint256",
          "name": "",
          "type": "uint256"
        }
      ],
      "stateMutability": "nonpayable",
      "type": "function"
    }
  ],
  "bytecode": "0x60806040523480156200001157600080fd5b506040516200169f3803806200169f833981016040819052620000349162000491565b8251839083906200004d90600390602085019062000334565b5080516200006390600490602084019062000334565b5050336000818152600960205260408082208054600160ff1991821681179092556001600160a01b03871684529190922080549091169091179055620000ad9150612710620000b6565b505050620005d2565b6001600160a01b038216620001115760405162461bcd60e51b815260206004820152601f60248201527f45524332303a206d696e7420746f20746865207a65726f206164647265737300604482015260640160405180910390fd5b6200011f60008383620001ac565b80600260008282546200013391906200051e565b90915550506001600160a01b03821660009081526020819052604081208054839290620001629084906200051e565b90915550506040518181526001600160a01b038316906000907fddf252ad1be2c89b69c2b068fc378daa952ba7f163c4a11628f55a4df523b3ef9060200160405180910390a35050565b620001c4838383620001c960201b620006601760201c565b505050565b620001e1838383620001c460201b620004fc1760201c565b6001600160a01b0383166200020557620001fb8262000230565b620001c462000268565b6001600160a01b0382166200021f57620001fb8362000230565b6200022a8362000230565b620001c4825b6001600160a01b038116600090815260056020908152604080832091839052909120546200026591906200027a565b6200027a565b50565b6200027860066200025f60025490565b565b600062000286620002c9565b9050806200029484620002e7565b1015620001c4578254600180820185556000858152602080822090930193909355938401805494850181558252902090910155565b6000620002e260086200033060201b620006a81760201c565b905090565b8054600090620002f957506000919050565b815482906200030b9060019062000539565b815481106200031e576200031e620005a6565b90600052602060002001549050919050565b5490565b828054620003429062000553565b90600052602060002090601f016020900481019282620003665760008555620003b1565b82601f106200038157805160ff1916838001178555620003b1565b82800160010185558215620003b1579182015b82811115620003b157825182559160200191906001019062000394565b50620003bf929150620003c3565b5090565b5b80821115620003bf5760008155600101620003c4565b600082601f830112620003ec57600080fd5b81516001600160401b0380821115620004095762000409620005bc565b604051601f8301601f19908116603f01168101908282118183101715620004345762000434620005bc565b816040528381526020925086838588010111156200045157600080fd5b600091505b8382101562000475578582018301518183018401529082019062000456565b83821115620004875760008385830101525b9695505050505050565b600080600060608486031215620004a757600080fd5b83516001600160401b0380821115620004bf57600080fd5b620004cd87838801620003da565b94506020860151915080821115620004e457600080fd5b50620004f386828701620003da565b604086015190935090506001600160a01b03811681146200051357600080fd5b809150509250925092565b6000821982111562000534576200053462000590565b500190565b6000828210156200054e576200054e62000590565b500390565b600181811c908216806200056857607f821691505b602082108114156200058a57634e487b7160e01b600052602260045260246000fd5b50919050565b634e487b7160e01b600052601160045260246000fd5b634e487b7160e01b600052603260045260246000fd5b634e487b7160e01b600052604160045260246000fd5b6110bd80620005e26000396000f3fe608060405234801561001057600080fd5b50600436106100eb5760003560e01c8063666e1b3911610092578063666e1b39146101a057806370a08231146101c357806379cc6790146101d65780637c4ca9cc146101e957806395d89b41146101fc578063981b24d014610204578063a457c2d714610217578063a9059cbb1461022a578063dd62ed3e1461023d57600080fd5b806306fdde03146100f0578063095ea7b31461010e57806318160ddd1461013157806323b872dd14610143578063313ce56714610156578063395093511461016557806342966c68146101785780634ee2cd7e1461018d575b600080fd5b6100f8610276565b6040516101059190610f60565b60405180910390f35b61012161011c366004610f1d565b610308565b6040519015158152602001610105565b6002545b604051908152602001610105565b610121610151366004610ee1565b61031f565b60405160128152602001610105565b610121610173366004610f1d565b6103ce565b61018b610186366004610f47565b61040a565b005b61013561019b366004610f1d565b610417565b6101216101ae366004610e93565b60096020526000908152604090205460ff1681565b6101356101d1366004610e93565b610460565b61018b6101e4366004610f1d565b61047b565b6101356101f7366004610f1d565b610501565b6100f8610580565b610135610212366004610f47565b61058f565b610121610225366004610f1d565b6105ba565b610121610238366004610f1d565b610653565b61013561024b366004610eae565b6001600160a01b03918216600090815260016020908152604080832093909416825291909152205490565b60606003805461028590611006565b80601f01602080910402602001604051908101604052809291908181526020018280546102b190611006565b80156102fe5780601f106102d3576101008083540402835291602001916102fe565b820191906000526020600020905b8154815290600101906020018083116102e157829003601f168201915b5050505050905090565b60006103153384846106ac565b5060015b92915050565b600061032c8484846107d0565b6001600160a01b0384166000908152600160209081526040808320338452909152902054828110156103b65760405162461bcd60e51b815260206004820152602860248201527f45524332303a207472616e7366657220616d6f756e74206578636565647320616044820152676c6c6f77616e636560c01b60648201526084015b60405180910390fd5b6103c385338584036106ac565b506001949350505050565b3360008181526001602090815260408083206001600160a01b03871684529091528120549091610315918590610405908690610fb5565b6106ac565b6104143382610998565b50565b6001600160a01b03821660009081526005602052604081208190819061043e908590610ae0565b91509150816104555761045085610460565b610457565b805b95945050505050565b6001600160a01b031660009081526020819052604090205490565b6000610487833361024b565b9050818110156104e55760405162461bcd60e51b8152602060048201526024808201527f45524332303a206275726e20616d6f756e74206578636565647320616c6c6f77604482015263616e636560e01b60648201526084016103ad565b6104f283338484036106ac565b6104fc8383610998565b505050565b3260009081526009602052604081205460ff166105705760405162461bcd60e51b815260206004820152602760248201527f4f6e6c792041646d696e2063616e20657865637574652074686973207472616e60448201526639b0b1ba34b7b760c91b60648201526084016103ad565b61057a8383610bd7565b50919050565b60606004805461028590611006565b600080600061059f846006610ae0565b91509150816105b0576002546105b2565b805b949350505050565b3360009081526001602090815260408083206001600160a01b03861684529091528120548281101561063c5760405162461bcd60e51b815260206004820152602560248201527f45524332303a2064656372656173656420616c6c6f77616e63652062656c6f77604482015264207a65726f60d81b60648201526084016103ad565b61064933858584036106ac565b5060019392505050565b60006103153384846107d0565b6001600160a01b03831661067f5761067782610cb0565b6104fc610cda565b6001600160a01b0382166106965761067783610cb0565b61069f83610cb0565b6104fc82610cb0565b5490565b6001600160a01b03831661070e5760405162461bcd60e51b8152602060048201526024808201527f45524332303a20617070726f76652066726f6d20746865207a65726f206164646044820152637265737360e01b60648201526084016103ad565b6001600160a01b03821661076f5760405162461bcd60e51b815260206004820152602260248201527f45524332303a20617070726f766520746f20746865207a65726f206164647265604482015261737360f01b60648201526084016103ad565b6001600160a01b0383811660008181526001602090815260408083209487168084529482529182902085905590518481527f8c5be1e5ebec7d5bd14f71427d1e84f3dd0314c0f7b2291e5b200ac8c7c3b925910160405180910390a3505050565b6001600160a01b0383166108345760405162461bcd60e51b815260206004820152602560248201527f45524332303a207472616e736665722066726f6d20746865207a65726f206164604482015264647265737360d81b60648201526084016103ad565b6001600160a01b0382166108965760405162461bcd60e51b815260206004820152602360248201527f45524332303a207472616e7366657220746f20746865207a65726f206164647260448201526265737360e81b60648201526084016103ad565b6108a1838383610cea565b6001600160a01b038316600090815260208190526040902054818110156109195760405162461bcd60e51b815260206004820152602660248201527f45524332303a207472616e7366657220616d6f756e7420657863656564732062604482015265616c616e636560d01b60648201526084016103ad565b6001600160a01b03808516600090815260208190526040808220858503905591851681529081208054849290610950908490610fb5565b92505081905550826001600160a01b0316846001600160a01b03166000805160206110688339815191528460405161098a91815260200190565b60405180910390a350505050565b6001600160a01b0382166109f85760405162461bcd60e51b815260206004820152602160248201527f45524332303a206275726e2066726f6d20746865207a65726f206164647265736044820152607360f81b60648201526084016103ad565b610a0482600083610cea565b6001600160a01b03821660009081526020819052604090205481811015610a785760405162461bcd60e51b815260206004820152602260248201527f45524332303a206275726e20616d6f756e7420657863656564732062616c616e604482015261636560f01b60648201526084016103ad565b6001600160a01b0383166000908152602081905260408120838303905560028054849290610aa7908490610fef565b90915550506040518281526000906001600160a01b038516906000805160206110688339815191529060200160405180910390a3505050565b60008060008411610b2c5760405162461bcd60e51b815260206004820152601660248201527504552433230536e617073686f743a20696420697320360541b60448201526064016103ad565b610b34610cf5565b841115610b835760405162461bcd60e51b815260206004820152601d60248201527f4552433230536e617073686f743a206e6f6e6578697374656e7420696400000060448201526064016103ad565b6000610b8f8486610d05565b8454909150811415610ba8576000809250925050610bd0565b6001846001018281548110610bbf57610bbf611051565b906000526020600020015492509250505b9250929050565b6001600160a01b038216610c2d5760405162461bcd60e51b815260206004820152601f60248201527f45524332303a206d696e7420746f20746865207a65726f20616464726573730060448201526064016103ad565b610c3960008383610cea565b8060026000828254610c4b9190610fb5565b90915550506001600160a01b03821660009081526020819052604081208054839290610c78908490610fb5565b90915550506040518181526001600160a01b038316906000906000805160206110688339815191529060200160405180910390a35050565b6001600160a01b038116600090815260056020526040902061041490610cd583610460565b610dc8565b610ce86006610cd560025490565b565b6104fc838383610660565b6000610d0060085490565b905090565b8154600090610d1657506000610319565b82546000905b80821015610d72576000610d308383610e12565b905084868281548110610d4557610d45611051565b90600052602060002001541115610d5e57809150610d6c565b610d69816001610fb5565b92505b50610d1c565b600082118015610da757508385610d8a600185610fef565b81548110610d9a57610d9a611051565b9060005260206000200154145b15610dc057610db7600183610fef565b92505050610319565b509050610319565b6000610dd2610cf5565b905080610dde84610e34565b10156104fc578254600180820185556000858152602080822090930193909355938401805494850181558252902090910155565b6000610e216002848418610fcd565b610e2d90848416610fb5565b9392505050565b8054600090610e4557506000919050565b81548290610e5590600190610fef565b81548110610e6557610e65611051565b90600052602060002001549050919050565b919050565b80356001600160a01b0381168114610e7757600080fd5b600060208284031215610ea557600080fd5b610e2d82610e7c565b60008060408385031215610ec157600080fd5b610eca83610e7c565b9150610ed860208401610e7c565b90509250929050565b600080600060608486031215610ef657600080fd5b610eff84610e7c565b9250610f0d60208501610e7c565b9150604084013590509250925092565b60008060408385031215610f3057600080fd5b610f3983610e7c565b946020939093013593505050565b600060208284031215610f5957600080fd5b5035919050565b600060208083528351808285015260005b81811015610f8d57858101830151858201604001528201610f71565b81811115610f9f576000604083870101525b50601f01601f1916929092016040019392505050565b60008219821115610fc857610fc861103b565b500190565b600082610fea57634e487b7160e01b600052601260045260246000fd5b500490565b6000828210156110015761100161103b565b500390565b600181811c9082168061101a57607f821691505b6020821081141561057a57634e487b7160e01b600052602260045260246000fd5b634e487b7160e01b600052601160045260246000fd5b634e487b7160e01b600052603260045260246000fdfeddf252ad1be2c89b69c2b068fc378daa952ba7f163c4a11628f55a4df523b3efa26469706673582212202dd0d499c1d949e4ab834443e58eeac436b9d4460a190e47afc50ac4dbb0ca7064736f6c63430008070033",
  "immutableReferences": {},
  "source": "//SPDX-License-Identifier: UNLICENSED\r\npragma solidity 0.8.7;\r\n\r\n//ERC20 Tokens\r\nimport '@openzeppelin/contracts/token/ERC20/extensions/ERC20Snapshot.sol';\r\nimport '@openzeppelin/contracts/token/ERC20/extensions/ERC20Burnable.sol';\r\n//import 'https://github.com/OpenZeppelin/openzeppelin-contracts/blob/release-v4.3/contracts/token/ERC20/extensions/ERC20Pausable.sol';\r\n\r\n\r\n//Utils\r\nimport '@openzeppelin/contracts/access/AccessControl.sol';\r\n\r\ncontract RahatERC20 is ERC20,ERC20Snapshot,ERC20Burnable{    \r\n    \r\n\t///@dev owner of the ERC20 contract \r\n\tmapping(address => bool) public owner;\r\n\r\n\tmodifier OnlyOwner {\r\n\t\trequire(owner[tx.origin], 'Only Admin can execute this transaction');\r\n\t\t_;\r\n\t}\r\n\r\n\tconstructor(\r\n\t\tstring memory _name,\r\n\t\tstring memory _symbol,\r\n\t\taddress _admin\r\n\t)  ERC20(_name, _symbol) {\r\n\t\towner[msg.sender] = true;\r\n\t\towner[_admin] = true;\r\n\t\t_mint(msg.sender, 10000);\r\n\t}\r\n\t\r\n\r\n\t///@dev Mint x amount of ERC20 token to given address\r\n\t///@param _address Address to which ERC20 token will be minted\r\n\t///@param _amount Amount of token to be minted\r\n\tfunction mintERC20(address _address, uint256 _amount) public OnlyOwner returns (uint256) {\r\n\t\t_mint(_address, _amount);\r\n\t\treturn _amount;\r\n\t}\r\n\r\n\tfunction _beforeTokenTransfer(address from, address to, uint256 amount)\r\n        internal\r\n        override(ERC20, ERC20Snapshot)\r\n    {\r\n        super._beforeTokenTransfer(from, to, amount);\r\n    }\r\n    \r\n}\r\n",
  "sourcePath": "D:\\projects\\Rahat\\rahat-contracts\\contracts\\RahatERC20.sol",
  "compiler": {
    "name": "solc",
    "version": "0.8.7+commit.e28d00a7.Emscripten.clang"
  },
  "schemaVersion": "3.4.3",
  "updatedAt": "2021-11-23T16:08:10.985Z",
  "devdoc": {
    "kind": "dev",
    "methods": {
      "allowance(address,address)": {
        "details": "See {IERC20-allowance}."
      },
      "approve(address,uint256)": {
        "details": "See {IERC20-approve}. Requirements: - `spender` cannot be the zero address."
      },
      "balanceOf(address)": {
        "details": "See {IERC20-balanceOf}."
      },
      "balanceOfAt(address,uint256)": {
        "details": "Retrieves the balance of `account` at the time `snapshotId` was created."
      },
      "burn(uint256)": {
        "details": "Destroys `amount` tokens from the caller. See {ERC20-_burn}."
      },
      "burnFrom(address,uint256)": {
        "details": "Destroys `amount` tokens from `account`, deducting from the caller's allowance. See {ERC20-_burn} and {ERC20-allowance}. Requirements: - the caller must have allowance for ``accounts``'s tokens of at least `amount`."
      },
      "decimals()": {
        "details": "Returns the number of decimals used to get its user representation. For example, if `decimals` equals `2`, a balance of `505` tokens should be displayed to a user as `5.05` (`505 / 10 ** 2`). Tokens usually opt for a value of 18, imitating the relationship between Ether and Wei. This is the value {ERC20} uses, unless this function is overridden; NOTE: This information is only used for _display_ purposes: it in no way affects any of the arithmetic of the contract, including {IERC20-balanceOf} and {IERC20-transfer}."
      },
      "decreaseAllowance(address,uint256)": {
        "details": "Atomically decreases the allowance granted to `spender` by the caller. This is an alternative to {approve} that can be used as a mitigation for problems described in {IERC20-approve}. Emits an {Approval} event indicating the updated allowance. Requirements: - `spender` cannot be the zero address. - `spender` must have allowance for the caller of at least `subtractedValue`."
      },
      "increaseAllowance(address,uint256)": {
        "details": "Atomically increases the allowance granted to `spender` by the caller. This is an alternative to {approve} that can be used as a mitigation for problems described in {IERC20-approve}. Emits an {Approval} event indicating the updated allowance. Requirements: - `spender` cannot be the zero address."
      },
      "mintERC20(address,uint256)": {
        "details": "Mint x amount of ERC20 token to given address",
        "params": {
          "_address": "Address to which ERC20 token will be minted",
          "_amount": "Amount of token to be minted"
        }
      },
      "name()": {
        "details": "Returns the name of the token."
      },
      "symbol()": {
        "details": "Returns the symbol of the token, usually a shorter version of the name."
      },
      "totalSupply()": {
        "details": "See {IERC20-totalSupply}."
      },
      "totalSupplyAt(uint256)": {
        "details": "Retrieves the total supply at the time `snapshotId` was created."
      },
      "transfer(address,uint256)": {
        "details": "See {IERC20-transfer}. Requirements: - `recipient` cannot be the zero address. - the caller must have a balance of at least `amount`."
      },
      "transferFrom(address,address,uint256)": {
        "details": "See {IERC20-transferFrom}. Emits an {Approval} event indicating the updated allowance. This is not required by the EIP. See the note at the beginning of {ERC20}. Requirements: - `sender` and `recipient` cannot be the zero address. - `sender` must have a balance of at least `amount`. - the caller must have allowance for ``sender``'s tokens of at least `amount`."
      }
    },
    "stateVariables": {
      "owner": {
        "details": "owner of the ERC20 contract "
      }
    },
    "version": 1
  },
  "userdoc": {
    "kind": "user",
    "methods": {},
    "version": 1
  }
}